:020000040000FA
:1000000005EF00F00000000000000A0EAF6E240EA5
:10001000AC6E900EAB6E000EF86E010EF76E000E19
:10002000F66E7D0E216E206A0900F5509EA816EF2F
:1000300000F0AD6E202E14EF00F0212E13EF00F033
:0400400020EF00F0BD
:100100005B53696E636520746865206D6964203196
:10011000393730735D2C2041492C20696E206D7970
:1001200020766965772C20686173206E6F74206D6E
:10013000616465206472616D617469632070726FBF
:10014000677265737320696E2074686520646972D4
:10015000656374696F6E206F662070726F6772617D
:100160006D732074686174206861766520776861BA
:100170007420796F752063616C6C202767656E65EC
:1001800072616C20696E74656C6C6967656E63651D
:1001900027206F722027636F6D6D6F6E2073656E01
:1001A000736527206F722061206C6F74206F66204A
:1001B0007265736F7572636566756C6E65737320B7
:1001C000666F722068616E646C696E672070726F12
:1001D000626C656D7320746861742074686520704A
:1001E000726F6772616D6D6572206469646E2774E9
:1001F000206861766520696E206D696E64205B5DA4
:100200002E205468617427732061207175617274A7
:1002100065722063656E747572792E20596F752032
:1002200063616E2061736B20776861742068617010
:1002300070656E65642E2020204365727461696E5E
:100240006C79206C6F7473206F66207468696E67B8
:10025000732068617070656E6564207468617420D5
:10026000796F7520636F756C642063616C6C2041DD
:10027000492E204F70746963616C206368617261FC
:1002800063746572207265636F676E6974696F6EFF
:100290002C206D616368696E6573207265616469A5
:1002A0006E67206E6F742D746F6F2D6261646C7950
:1002B000207072696E74656420746578742C206196
:1002C00072652070726574747920676F6F642E2078
:1002D00054686579206F6E6C79206D616B65206163
:1002E000206D697374616B6520657665727920662F
:1002F0006577206C696E65732E2042757420746872
:100300006F736520617265206E6F74207573696EFE
:1003100067207665727920646966666572656E74B9
:1003200020746563686E6971756573207468616EA9
:10033000207765726520617661696C61626C652009
:100340006265666F72652E2054686520636F6D70FC
:100350007574657220697320612074686F757361AC
:100360006E642074696D6573206661737465722CA8
:10037000206F72206D6F72652E204D6F7374207028
:10038000656F706C6520696E20414920617265203F
:1003900065697468657220776F726B696E67206F2C
:1003A0006E20747279696E6720746F207265707246
:1003B0006573656E74206B6E6F776C65646765201E
:1003C000696E2074686520666F726D206F66206D9F
:1003D000617468656D61746963616C206C6F6769D5
:1003E000632C2077686963682072657665616C7339
:1003F0002061206C6F74206F662070726F626C6574
:100400006D732C2062757420646F65736E27742081
:100410006769766520757320676F6F6420736F6CF2
:100420007574696F6E732E205468652072656173F0
:100430006F6E204920646F6E27742063617265209F
:10044000666F72206C6F67696320697320746861DE
:10045000742049207468696E6B20746865206B692C
:100460006E64206F6620726561736F6E696E6720BF
:10047000746861742070656F706C652066696E6465
:100480002075736566756C20696E207265616C20DD
:100490006C69666520697320726561736F6E696E41
:1004A0006720627920616E616C6F67792E205768D2
:1004B00061742049206D65616E20627920726561EA
:1004C000736F6E696E6720627920616E616C6F6711
:1004D000792069733A206F6620636F7572736520A7
:1004E000696620796F752073656520612070726F71
:1004F000626C656D2065786163746C79206C696BE2
:1005000065206F6E6520796F752776652073656548
:100510006E206265666F72652C207468656E207946
:100520006F752063616E206A7573742072656D65E6
:100530006D6265722074686520736F6C7574696F85
:100540006E2E2042757420696E207265616C206C7D
:10055000696665207468617420616C6D6F737420C6
:100560006E657665722068617070656E732E2054BA
:10057000686572652061726520616C7761797320AE
:10058000736F6D65207468696E6773206469666651
:100590006572656E742E20536F20796F75206C6FB5
:1005A0006F6B20617420746869732070726F626C65
:1005B000656D206F7220736974756174696F6E2048
:1005C000616E64207361792C207768617420776F85
:1005D000726B656427205768617420646F2049201E
:1005E00072656D656D6265722061626F75742073EE
:1005F0006F6C76696E6720612073696D696C6172DA
:100600002070726F626C656D20696E207468652061
:100610007061737427205468617420776F7264204E
:100620002773696D696C617227206D65616E732037
:100630007468617420796F75277265206C6F6F6BB9
:10064000696E6720696E20796F7572207265636FBD
:1006500072647320666F7220612063617365207419
:100660006861742068617320736F6D6520666561D1
:100670007475726573206F722070726F706572741A
:10068000696573206F722066756E6374696F6E6141
:100690006C697479207468617427732074686520AC
:1006A00073616D6520617320746869732070726F67
:1006B000626C656D2C20616E64206F7468657220B9
:1006C0006665617475726573207468617420617207
:1006D0006520646966666572656E742E205468656F
:1006E0006E20796F75206861766520746F20617364
:1006F0006B2C207768696368206F66207468657367
:100700006520666561747572657320617265206924
:100710006D706F7274616E7427204966207468650D
:1007200079277265206E6F7420696D706F727461C5
:100730006E742C207468656E2077686F2063617218
:1007400065732E2049662069742773206469666684
:100750006572656E7420696E20696D706F72746168
:100760006E742066656174757265732C207468659B
:100770006E20796F752077616E7420746F206765C5
:10078000742061207375622D676F616C2C2077680F
:1007900069636820736179732C20686F77206361C7
:1007A0006E2049206368616E6765207468697320F4
:1007B00070726F626C656D20736F20746861742055
:1007C00069742077696C6C20626574746572206648
:1007D00069742074686174206F6E652E20536F20D9
:1007E0006974207365656D7320746F206D65207466
:1007F000686174206D6F7374206F66207768617410
:100800002077652063616C6C202770726F626C6565
:100810006D20736F6C76696E672720697320666937
:10082000677572696E67206F757420686F772074C2
:100830006F20666974207468652070726573656ED8
:1008400074206361736520746F20736974756174BB
:10085000696F6E7320776869636820796F75277692
:1008600065207365656E206265666F72652C207702
:1008700068696368206172656E27742074686520FA
:1008800073616D652E204D617468656D6174696377
:10089000616C206C6F676963206973206E6F2067DD
:1008A0006F6F6420617420746869732E2020204962
:1008B0007427732076657279206861726420746F82
:1008C00020726570726573656E74206D6574612D3C
:1008D0006B6E6F776C656467652061626F757420FD
:1008E0007768696368206665617475726573206FE7
:1008F00066207468696E67732061726520696D7027
:100900006F7274616E7420626563617573652069CE
:10091000742773206861726420746F206578707228
:10092000657373207768617420796F75206D6561D8
:100930006E20627920696D706F7274616E742E2002
:100940005768617420697320696D706F7274616E8D
:100950007427204974206D6967687420626520736C
:100960006F6D657468696E67206C696B652C2027F4
:1009700069742077696C6C20726564756365207991
:100980006F757220616D6F756E74206F6620736570
:10099000617263682074696D65272E204D6F7374D2
:1009A000206C6F67696320697320646F6E652069CE
:1009B0006E20736F6D6520617766756C2074686951
:1009C0006E672063616C6C6564207468652066697D
:1009D000727374206F7264657220707265646963EB
:1009E0006174652063616C63756C75732C20696636
:1009F00020796F75276C6C20706172646F6E207443
:100A000068652065787072657373696F6E2C2077E6
:100A1000686963682068617320746865207669720C
:100A200074756520746861742074686572652773D5
:100A300020736F6D6520676F6F64207468656F72D7
:100A4000656D732061626F75742069742C20627506
:100A50007420697420686173207468652074726FF3
:100A600075626C6520746861742069742063616EBE
:100A700027742074616C6B2061626F7574206974D7
:100A800073206F776E206465647563746976652082
:100A900070726F6365737365732E20546861742779
:100AA000732077686174207765207468696E6B20A5
:100AB0007768656E20796F75207361792C204927DE
:100AC0007665206265656E20776F726B696E672050
:100AD0006F6E207468697320666F72203135206DE7
:100AE000696E7574657320616E6420492068617653
:100AF000656E277420676F7474656E20616E7977F8
:100B0000686572652C2077656C6C20746861742749
:100B100073206E6F7420746865206D6F7374206924
:100B20006D706F7274616E74206B696E64206F6695
:100B30002073656C662D6D6F6E69746F72696E6778
:100B4000207375706572766973696E672074686565
:100B5000726520636F756C642062652E2042757427
:100B60002049277665206E65766572207365656E0F
:100B700020746861742068617070656E696E672E9C
:100B8000204E6F7720796F752063616E20736F72CE
:100B900074206F662073696D756C6174652069746B
:100BA0002062792061737369676E696E6720736371
:100BB0006F72657320746F20686F77206C6F6E673B
:100BC00020796F7527766520736561726368656447
:100BD0002070617274206F6620746865207472657D
:100BE00065206F7220736F6D657468696E672C2065
:100BF0007573696E672074686520616C7068612028
:100C000062657461206865757269737469632066D2
:100C10006F7220636F6E74726F6C6C696E67207395
:100C20006561726368657320275B5D20696E636927
:100C300064656E74616C6C792C20746861742077C3
:100C4000617320696E76656E7465642062792041F7
:100C500072746875722053616D75656C20696E20C1
:100C600074686520636865636B6572732070726F6A
:100C70006772616D2C20616E64207265696E7665A5
:100C80006E746564206279204A6F686E204D6343FC
:100C90006172746879206265636175736520536160
:100CA0006D75656C20686164206578706C61696E33
:100CB000656420697420736F206261646C792E20F2
:100CC00020204E657572616C206E6574732C2079DE
:100CD0006F75206D69676874207468696E6B2C206D
:100CE0006861766520746861742066757A7A792007
:100CF0007175616C6974792074686174206966200B
:100D000074776F207468696E6773206172656E27EF
:100D1000742065786163746C7920746865207361F0
:100D20006D652C2077656C6C2069742077696C6C1C
:100D3000207265636F676E697A6520697420616EE1
:100D4000797761792E20536F2074686579277265F1
:100D50002066696E652E2042757420746865207463
:100D6000726F75626C652077697468206E65757244
:100D7000616C206E657473206973207468617420DF
:100D80007468657927726520636F6D706C65746532
:100D90006C7920696E63617061626C65206F66209A
:100DA000616E79207265666C656374696F6E2E2062
:100DB00049662070617274206F6620796F757220A9
:100DC0006D616368696E652C206C696B6520746861
:100DD00065204F435220706172742C2075736573C7
:100DE0002061206E657572616C206E657420746F71
:100DF0002064697374696E677569736820626574CD
:100E00007765656E2061205020616E6420612062EC
:100E1000726F6B656E20522C207468657265277343
:100E2000206E6F2077617920746865207265737415
:100E3000206F66207468652070726F6772616D2024
:100E400063616E206B6E6F77202D2069742773208D
:100E5000766572792068617264202D20746F206439
:100E60006973617373656D626C6520746865206871
:100E7000756765206E756D626572206F66206C699E
:100E800074746C65206E756D626572732068696438
:100E900064656E20696E20746865206E6575726188
:100EA0006C206E65742070726F6772616D20616E68
:100EB0006420666967757265206F75742077686154
:100EC00074207761732074686520696D706F727427
:100ED000616E7420666561747572652074686174F2
:100EE00020616C6C6F77656420697420746F206D6D
:100EF000616B65206974732064697374696E6374CF
:100F0000696F6E2E20496E207072696E6369706C15
:100F1000652C20796F7520636F756C6420646F2079
:100F2000746861742C20627574204920646F6E2788
:100F300074206B6E6F77206F6620616E79626F64CC
:100F40007920696E636F72706F726174696E672069
:100F50006E657572616C206E657473207769746854
:100F6000206F74686572206B696E6473206F6620F1
:100F7000726561736F6E696E67207769746820614E
:100F80006E79207375636820696E7465726661633B
:100F9000652E20202047656E6574696320616C674B
:100FA0006F726974686D73206172652076657279FD
:100FB00020706F70756C61722E20492063616E27FE
:100FC0007420666967757265206F7574207768791B
:100FD00020626563617573652C20696E20616C6D9C
:100FE0006F737420616C6C207265737065637473C9
:100FF0002C20746865792061726520776F72736543
:10100000207468616E20746865207472616469740C
:10101000696F6E616C206172746966696369616C85
:1010200020696E74656C6C6967656E6365206865C0
:1010300075726973746963207365617263682E20C9
:10104000576861742067656E6574696320616C67B9
:101050006F726974686D7320646F20697320757393
:10106000652074686520636F6D7075746572732098
:1010700074656E2074686F7573616E642074696D39
:1010800065732066617374657220746F206D616B87
:1010900065206C6F7473206F66207468696E677367
:1010A00020746F207472792E205468656E20796FD9
:1010B000752068617665206120636F6D7065746965
:1010C00074696F6E20736F20746861742074686532
:1010D000206F6E6573207468617420737563636537
:1010E00065642062657474657220696E20736F6C2C
:1010F00076696E6720736F6D652070726F626C65C4
:101100006D2C206F72206661737465722C2072657D
:10111000706C61636520746865206F6E6573207400
:1011200068617420746F6F6B206C6F6E6765722ED0
:1011300020486F77657665722C20696E2072656134
:101140006C206C6966652049207468696E6B207438
:101150006861742773207468652077726F6E6720EA
:101160007468696E672E20416E642065766F6C75B9
:1011700074696F6E20697473656C6620697320737F
:1011800063726577792061626F7574207468697322
:101190002E2054686520696D706F7274616E7420C2
:1011A0007468696E67206973206E6F7420746F2095
:1011B00072656D656D6265722077686174206C651B
:1011C0006420746F2073756363657373202D206FC3
:1011D000722068616C66206F662074686520746890
:1011E000696E6720796F752073686F756C64207203
:1011F000656D656D62657220697320776861742022
:10120000776F726B65642E20546865206F74686513
:10121000722068616C662069732077686174206150
:1012200072652074686520313030206D6F737420D2
:10123000636F6D6D6F6E206D697374616B65732E76
:10124000205768656E204920776173207472616948
:101250006E696E6720666F7220612050682E442E82
:1012600020696E206D617468656D61746963732CAB
:101270002065766572796F6E6520756E6465727330
:10128000746F6F64207468617420696E207468657F
:10129000206D617468656D617469637320776F7226
:1012A0006C642E20496620796F7520686561722014
:1012B00061207468656F72656D2C207468656E209E
:1012C000796F7520616C736F2077616E7420746F15
:1012D000206B6E6F7720746865203130206D6F73DE
:1012E00074206C696B656C79207761797320746800
:1012F000617420697420776F6E2774206170706C40
:10130000792E204F6620636F75727365206120749B
:1013100068656F72656D20697320616C77617973A0
:1013200020747275652069662074686520636F6E2D
:10133000646974696F6E732061726520747275657B
:101340002C20627574206966207468697320776147
:1013500073207472756520666F72206120636F6DF3
:1013600070616374207365742C2069732069742024
:10137000616C736F207472756520666F72206120D6
:101380006C6F63616C6C7920636F6D706163742046
:101390007365742C20616E64206966206E6F742002
:1013A00077686572652069732074686520636F755E
:1013B0006E746572206578616D706C65207468610B
:1013C000742073686F77732077687920746861740C
:1013D000206B696E64206F6620726561736F6E6941
:1013E0006E6720627265616B7320646F776E2E206A
:1013F0002020576861742065766F6C7574696F6E14
:1014000020616E642067656E6574696320616C6736
:101410006F726974686D7320646F6E277420646FD7
:10142000202D74656C6C206D652069662049276DE0
:101430002077726F6E672D206973206B6565702051
:10144000616E79207265636F7264206F66207768C1
:101450007920616C6C2074686F736520706F6F7297
:10146000206C6F7365727320646965642E20496611
:1014700020697420776572656E277420666F72200C
:101480006120616C6D6F73742072656C6967696F40
:1014900075732C20737570657273746974696F75D8
:1014A0007320776F7273686970206F6620696D6949
:1014B000746174696E672067656E65746963732013
:1014C000776869636820746F6F6B20363030206DE9
:1014D000696C6C696F6E2079656172732C20776519
:1014E0006C6C2C205B5D20343030206D696C6C6935
:1014F0006F6E2079656172732C20746F206765743C
:1015000020746F2075732066726F6D206669736832
:101510002E2E2E20596F7520636F756C64207361B9
:10152000792C20626F792C206966205B77655D20BD
:10153000686164206B65707420736F6D65207265DF
:10154000636F726473206F662077686174207765BB
:101550006E742077726F6E6720616E6420737065A1
:101560006E742061626F7574207468652073616D9C
:101570006520616D6F756E74206F6620656E657293
:101580006779206F6E206C6561726E696E67206886
:101590006F7720746F2061766F696420627567735E
:1015A0002C206D6179626520697420776F756C6499
:1015B00020686176652074616B656E206F6E6C7952
:1015C0002035206D696C6C696F6E2079656172736E
:1015D00020696E7374656164206F66203430302733
:1015E0002057686F206B6E6F7773272042757420C9
:1015F00049207468696E6B2070656F706C65207728
:10160000686F206C6F6F6B2061742067656E657406
:10161000696320616C676F726974686D7320616EB5
:101620006420646F6E2774206E6F74696365207424
:10163000686174207468657920646F6E2774207304
:101640006F6C766520616E792070726F626C656D6B
:1016500073207468617420726571756972652064A5
:101660006565702074686F756768742073686F753E
:101670006C642E2E2E204920636F756C6420676F7A
:10168000206F6E20616C6C206461792720202054CB
:101690006865206F74686572205B706F696E745D39
:1016A0002C2066696E616C6C792C206973206F6EDA
:1016B0006520746861742077696C6C206972726946
:1016C00074617465206D6F72652070656F706C65F4
:1016D0002E204920646F6E2774206C696B65205B37
:1016E0007468655D20757365206F6620737461741E
:1016F0006973746963616C206D6574686F647320CD
:10170000666F72206C6561726E696E6720746F20FF
:1017100064697374696E677569736820626574774C
:1017200065656E20616D626967756F757320776F8F
:1017300072647320696E206C616E677561676520E5
:101740006F72206C6561726E696E67206265686198
:1017500076696F72206279206368616E67696E676F
:101760002070726F626162696C697469657320616F
:101770006E6420736F20666F7274682E20546865E3
:1017800020726561736F6E206973207468617420C4
:10179000616761696E2C20696620746865206B6ED4
:1017A0006F776C6564676520796F752073746F72ED
:1017B000652069732073746F72656420617320768D
:1017C0006563746F7273206F66206E756D626572EB
:1017D000732C207468656E20746861742070726F59
:1017E0006772616D206D6967687420626520676F3C
:1017F0006F642E204D6967687420676574203935E1
:1018000025206F66207768617420697427732066CD
:101810006163656420776974682E20427574207452
:101820006865206F74686572203525206D6967686A
:101830007420626520737475666620746861742014
:10184000726571756972657320736F6D652072655D
:10185000666C656374696F6E20616E642064656593
:101860007065722074686F756768742061626F7547
:101870007420746865206E6174757265206F6620CF
:101880007468652070726F626C656D2E204E6F7784
:1018900020696620796F757220636F6E636C757353
:1018A000696F6E73206172652065787072657373FD
:1018B0006564206173206D65616E696E676C657328
:1018C0007320766563746F727320696E20736F6D19
:1018D0006520686967682064696D656E73696F6EFD
:1018E000616C20766563746F722073706163652C20
:1018F0002074686572652773206E6F207761792088
:10190000796F752063616E207468696E6B20616207
:101910006F757420746861742C20616E64206E6F22
:101920002077617920666F72207468652070726F0D
:101930006772616D2E20536F207768656E657665DE
:10194000722049207365652061206E756D62657235
:1019500020696E2061206C6561726E696E6720700F
:10196000726F6772616D2C204920736179207468F1
:101970006174206D6967687420626520757365669F
:10198000756C206E6F772C206275742069742773D4
:1019900020616E20696E74656C6C65637475616C32
:1019A00020646561642D656E642E20546865207323
:1019B000696D706C6573742077617920746F207025
:1019C000757420697420697320696620796F7520A9
:1019D00073656520313220617320746865207375EA
:1019E0006D206F6620736F6D657468696E672C205B
:1019F000796F75277665206C6F73742061206C6F2A
:101A000074206F6620696E666F726D6174696F6EA7
:101A10002E2042656361757365206974206D696766
:101A200068742068617665206265656E20283320C1
:101A30002B203929206F72202834202B2038292090
:101A40006F72202835202B20372920616E64207387
:101A50006F206F6E2E205768656E657665722079EF
:101A60006F75207365652061206E756D6265722CDF
:101A700020796F752073686F756C642073617920AD
:101A800027686F77207361642E272049742773209D
:101A9000746865206D6F7374206F70617175652057
:101AA0007468696E6720696E2074686520776F724C
:101AB0006C642E20546861742773207768792069DC
:101AC00074277320736F2075736566756C2E2042C2
:101AD00065636175736520696620796F7527726526
:101AE00020636F756E74696E67207468696E6773C2
:101AF0002C20796F7520646F6E2774206361726586
:101B00002069662074686579277265206465616460
:101B10002070656F706C65206F722062726F6B65EC
:101B20006E20706C61746573202D203620646561B1
:101B300064207468696E677320616E6420746861E4
:101B400074207361797320697420616C6C2E20207D
:101B50002050656F706C65206861766520726561E4
:101B6000736F6E732077687920636F6D707574651D
:101B7000727320646F6E2774207265616C6C7920BB
:101B80007468696E6B2E20546865792772652061D0
:101B90006C6C2073696C6C792E2054686520616EC2
:101BA0007377657220697320776520686176656E4A
:101BB00027742070726F6772616D6D656420746840
:101BC000656D2072696768742E2042757420736F8A
:101BD0006D652070656F706C652077696C6C207323
:101BE00061792074686174207468657920646F6E0F
:101BF0002774206B6E6F7720746865206D65616E49
:101C0000696E67206F6620776861742074686579F3
:101C100027726520646F696E672E204D65616E695D
:101C20006E6720697320736F6D657468696E6720D5
:101C300074686520636F6D70757465722063616E82
:101C4000277420686176652C20736F207468657333
:101C50006520617265207265616C6C7920646966CB
:101C6000666572656E74207068696C6F736F7068FA
:101C70006572732E20412068756D616E69737420E2
:101C800073617973207468657920646F6E2774209E
:101C90006576656E206B6E6F772074686174207452
:101CA0006865792065786973742E20546865792099
:101CB00063616E2774206861766520676F616C735D
:101CC0002E2059657420616E6F74686572206F6E86
:101CD000652077696C6C2073617920746865792060
:101CE000646F6E2774206861766520636F6E73631E
:101CF000696F75736E6573732C2077686174657690
:101D0000657220746861742069732028616E642094
:101D100049276C6C20636F6D6520746F2074686157
:101D200074292E20412073656E7369626C65207082
:101D30006572736F6E2073617973207468657920A2
:101D40006A75737420646F6E2774206861766520ED
:101D50006D75636820636F6D6D6F6E2073656E7354
:101D6000652E20546861742773207768617420772A
:101D7000652063616E206669782E2048657265274C
:101D8000732061206C6974746C65206578616D7076
:101D90006C652E204173206661722061732049209A
:101DA0006B6E6F772C206E6F20636F6D707574652E
:101DB00072206B6E6F7773207468617420796F7511
:101DC0002063616E20757365206120737472696E83
:101DD0006720746F2070756C6C20616E64206F6278
:101DE0006A6563742C20627574206E6F7420746F42
:101DF00020707573682069742E20596F7520707279
:101E00006F6261626C792073686F756C646E2774A1
:101E10002065617420737472696E6720616E64203E
:101E2000696620796F7520746965206120626F781A
:101E300020776974682069742C20796F7520736825
:101E40006F756C64206861766520707574207468A5
:101E50006520737475666620696E206974206265FA
:101E6000666F72652E20492061646465642069662E
:101E700020796F7520737465616C206120737472B2
:101E8000696E672C2069742773206F776E657220E6
:101E90006D6967687420626520616E6E6F79656434
:101EA0002E204275742074686520706F696E7420EE
:101EB00069732C20746865726520617265206120E9
:101EC00077686F6C65206C6F74206F66207468692A
:101ED0006E677320796F75206B6E6F772061626F0C
:101EE000757420737472696E672E2054686572650C
:101EF0002773206265656E206F6E6C79206F6E654A
:101F0000206C617267652070726F6A6563742074FB
:101F10006F20646F20736F6D657468696E672061F0
:101F2000626F757420746861742C20746861742702
:101F300073207468652066616D6F757320437963E3
:101F40002070726F6A656374206F6620446F7567D6
:101F50006C6173204C656E617420696E20417573ED
:101F600074696E2E204865277320636F6D696E67F4
:101F700020616C6F6E672C20627574206966207911
:101F80006F75206C6F6F6B206174204379632C2018
:101F900069742773207374696C6C2063616E277495
:101FA00020646F20616E7920657874656E73697640
:101FB0006520616D6F756E74206F6620352D7965B3
:101FC0006172206F6C64207479706520636F6D6D31
:101FD0006F6E2073656E736520726561736F6E69D5
:101FE0006E672E20496E20706172746963756C6132
:101FF0007220697420646F65736E2774206B6E6F36
:1020000077206D7563682061626F757420737061ED
:1020100063652E204B6E6F77732061206C6F742088
:1020200061626F75742074696D652E2054686572E5
:1020300065277320616C736F207468652074686510
:102040006F7279206F6620667265652077696C6CA7
:102050002E2049276C6C20736B6970207468617442
:102060002E202020536F206C657427732074616CC0
:102070006B2061626F757420636F6E7363696F7537
:10208000736E65737320666F722061206D696E7563
:1020900074652E20492063616E2774206469736320
:1020A000757373206974206D7563682C2062757474
:1020B0002049206A757374207075742061206269EC
:1020C00067206573736179206F6E206974206F6E6D
:1020D000206D792077656220706167652E205B5DD9
:1020E00020496620796F7520646F6E2774206C69B3
:1020F0006B6520736F6D657468696E672061626FD0
:1021000075742069742C204920776F756C64206C7D
:102110006F766520656D61696C2061626F757420F2
:10212000776865726520796F7520616772656520D3
:10213000616E6420646973616772656520626563BE
:10214000617573652049276D20747279696E672007
:10215000746F206D616B6520697420736F207065EA
:10216000726665637420746861742065766572793F
:10217000626F64792077696C6C2061677265652095
:10218000776974682065766572797468696E672E00
:10219000204174206C656173742049276D20676F3E
:1021A000696E6720746F207370656E6420612066AD
:1021B0006577206D6F7265207765656B73206F6E34
:1021C0002069742E204275742077686174207468C9
:1021D000652063686170746572206D61696E7461F9
:1021E000696E732C20616D6F6E67206F7468657205
:1021F000207468696E67732C206973207468617439
:102200002074686520726561736F6E20636F6E73F2
:1022100063696F75736E65737320686173206261A3
:1022200066666C656420736F206D616E79207065E1
:102230006F706C652C20657370656369616C6C7977
:1022400020706879736963697374732C20697320D3
:10225000766572792073696D706C653A2074686573
:1022600072652069736E277420616E7920737563BF
:1022700068207468696E672E20436F6E7363696FA0
:1022800075736E657373206973206120776F726454
:1022900020746861742077652075736520617320F0
:1022A0006120737569746361736520776F72642E42
:1022B0002049742773206120776F7264207765202E
:1022C0007573652061732061206E616D6520666F96
:1022D00072206120646F7A656E207665727920685D
:1022E0006172642070726F626C656D732061626FE1
:1022F000757420686F772074686520627261696EFA
:10230000206F7220746865206D696E6420776F722B
:102310006B732C2077686963682061726520717522
:1023200069746520646966666572656E742066729C
:102330006F6D206F6E6520616E6F746865722E2000
:10234000496E20666163742C20696620796F752060
:10235000676F20746F207363686F6F6C2C207768D1
:1023600069636820796F7527766520616C6C2070D1
:10237000726F6261626C7920646F6E652C20646F8D
:1023800020796F752072656D656D62657220616E72
:1023900079626F647920676976696E672061206C65
:1023A0006974746C6520636C6173732077686572FF
:1023B0006520796F752074616C6B2061626F757434
:1023C0002077686174206973207468696E6B696E28
:1023D0006720616E6420686F7720646F6573206981
:1023E0007420776F726B27204173205365796D6F6E
:1023F000757220506170706572742068617320700E
:102400006F696E746564206F75742E2E2E206F7246
:102410002077686174206973206C6561726E696EE3
:10242000672E20596F752070726F6261626C79201F
:102430006865617264206F6E65206F662074686FD6
:102440007365272020204861766520796F752068A4
:102450006561726420746865207468656F727920A4
:102460007468617420746F206C6561726E20736F84
:102470006D657468696E6720796F752073686F7514
:102480006C6420646F20697420696E206C697474B8
:102490006C65206269747320616E64206E6F7420B5
:1024A0007374617920757020616C6C206E69676847
:1024B0007420776F726B696E67206F6E2069742766
:1024C0002049662074686174207765726520747293
:1024D00075652C20746865726520776F756C642053
:1024E0006265206E6F20636F6D7075746572206712
:1024F000616D657327205B6C61756768732C206163
:1025000070706C617573655D2049207669736974BC
:102510006564206D79206C616220746865206F7439
:10252000686572206E6967687420616E6420492056
:102530007761732073686F636B656420746F2073B9
:102540006565206E6F626F647920696E20697427FB
:10255000204974206F6363757272656420746F2004
:102560006D652074686174206974206D61792062E2
:1025700065206E6561722074686520656E64206FE9
:1025800066206974732075736566756C206C696666
:10259000652720536F20636F6E7363696F75736E69
:1025A0006573732069732061207375697463617347
:1025B0006520776F72642E204F6E65206F662074E1
:1025C0006865206D6F737420696D706F7274616ED1
:1025D00074207468696E6773206973206B65657019
:1025E000696E6720736F6D65207265636F726473C7
:1025F000206F66207768617420796F752776652073
:10260000646F6E6520726563656E746C7920736F9C
:1026100020696620736F6D657468696E6720676FE7
:1026200065732077726F6E672C20796F75206361F8
:102630006E207468696E6B2061626F7574207768B4
:10264000696368206F6620746865207468696E67C6
:102650007320796F7520646964206D6967687420E0
:1026600068617665206265656E2077726F6E672E91
:1026700020546861742773207468652063726564F0
:1026800069742061737369676E6D656E7420707212
:102690006F626C656D207468617420492062656C9E
:1026A000696576652077696C6C206265206E65636C
:1026B00065737361727920666F722067656E6574E9
:1026C00069632070726F6772616D6D696E672073E8
:1026D0006F6D6564617920746F20776F726B2077FE
:1026E000656C6C2E204D616B696E67206465736349
:1026F00072697074696F6E73206F662074686F738F
:1027000065206576656E74732E20202054686520E0
:1027100072657374206F66206D79206C65637475C3
:1027200072652077696C6C20656D70686173697A79
:102730006520686F7720646F20796F7520646573FA
:102740006372696265207768617420686170706582
:102750006E65642E20596F75206E65656420736FF9
:102760006D652077617920746F2072657072657372
:10277000656E742069742C20736F6D65206B696EB3
:1027800064206F6620646174612073747275637471
:102790007572652E2049276C6C207265636F6D6DB4
:1027A000656E642066697665206F72207369782093
:1027B0006F66207468656D2E2020204D7920746826
:1027C0006573697320697320746861742074686527
:1027D0002074776F206D61696E20726561736F6E12
:1027E0007320776879204149206861736E277420CF
:1027F0006D6164652070726F6772657373205B69C9
:102800007320746861745D20283129205B5D20701D
:10281000656F706C6520686176656E2774207472D0
:1028200069656420746F206F7267616E697A6520D4
:10283000636F6D6D6F6E2073656E7365206B6E6F69
:10284000776C656467652E20427574207468652016
:10285000726561736F6E207468657920636F756C43
:10286000646E2774206973207468617420746865CD
:1028700079206469646E2774206B6E6F7720686FAF
:102880007720746F20726570726573656E7420694D
:10289000742E2050656F706C652061726520616CCC
:1028A000776179732061726775696E672C20736830
:1028B0006F756C6420492075736520612072656CAA
:1028C0006174696F6E616C206461746162617365CB
:1028D000272053686F756C6420492072657072659B
:1028E00073656E7420697420696E20746865206E4B
:1028F000657572616C206E6574272053686F756C06
:1029000064204920726570726573656E7420697405
:1029100020617320612066757A7A79206C6F67690F
:102920006320736574272053686F756C6420492099
:10293000726570726573656E7420697320617320AF
:10294000612062756E6368206F66206178696F6DC3
:102950007320696E206D617468656D61746963616F
:102960006C206C6F676963272054686520616E7303
:1029700077657220746F20616C6C206F66207468BC
:102980006F736520697320276E6F272E20596F752E
:102990002073686F756C642075736520616C6C20A2
:1029A0006F66207468656D2E20557365206E6575A1
:1029B00072616C206E657420666F72207468696E37
:1029C0006773207468617420646570656E64206F3D
:1029D0006E20612077686F6C65206C6F74206F6665
:1029E00020736D616C6C20696E7075747320696EF4
:1029F0002061206D6F6465726174656C792061641B
:102A00006469746976652C20627574206E6F742019
:102A10007665727920696E746572657374696E6724
:102A2000207761792E2E2E206A7573742077656960
:102A3000676874696E67207468696E67732E2055C5
:102A40007365206C6F67696320666F7220736F6DAA
:102A5000657468696E672074686174206465706568
:102A60006E6473206F6E20612066657720766572D4
:102A70007920696D706F7274616E7420696E666C16
:102A800075656E6365732E20496620796F752063C6
:102A900068616E6765207468652076616C75652075
:102AA0006F66206F6E65206F66207468656D2C20E0
:102AB0007468652077686F6C65207468696E67203C
:102AC000776F6E277420776F726B2E2049662074A3
:102AD000686174277320746865206B696E64206F69
:102AE00066207468696E6720796F75276C6C206D3D
:102AF000616B65206F7574206F66206D69676874FF
:102B000027732C20616E647320616E64206F727372
:102B100020616E6420736F206F6E2E20202049206C
:102B2000677565737320492073686F756C646E27D1
:102B300074207265616420746865206F74686572C2
:102B40002074656E27204D616B696E6720616E642D
:102B5000207573696E67206D6F64656C73206F6696
:102B600020796F757273656C662C206C696B6520BB
:102B700072657665616C696E672074686520636F45
:102B800075727365206F6620796F75722061626956
:102B90006C69747920746F20736F6C766520612086
:102BA00070726F626C656D2E20596F75206D69674C
:102BB0006874207361792077656C6C2C206D617965
:102BC00062652049206E65656420746F2074616BB6
:102BD00065206120636F7572736520696E2074686B
:102BE00069732E204F72206966204920646F6E271A
:102BF0007420676574206265747465722061742046
:102C0000746869732C206D7920667269656E6473CF
:102C10002077696C6C2068617465206D652E205288
:102C200065616C6C7920696620492064696420675D
:102C300065742062657474657220617420746869BB
:102C4000732C20492764206A7573742062652061A3
:102C5000206E657264206F6620736F6D6520736FE0
:102C6000727420616E64206D7920667269656E648D
:102C70007320776F756C642068617465206D6520C2
:102C80006576656E206D6F72652E20416E642073CF
:102C90006F206F6E2E2048656172696E6720636FCA
:102CA0006E766572736174696F6E7320696E2079D8
:102CB0006F7572206D696E642E204D616B696E6751
:102CC000206E657720676F616C732E41646A75733F
:102CD00074696E6720796F7572206C6576656C20FB
:102CE0006F662077616B6566756C6E6573732C20FB
:102CF00077686174657665722074686174206D65AB
:102D0000616E732E2020204261636B20746F206CF3
:102D10006561726E696E672E20526563656E742000
:102D2000646973636F76657269657320696E206C80
:102D30006561726E696E6720736B696C6C73206875
:102D400061732072657665616C65642061207665CB
:102D5000727920737472616E676520666163742096
:102D60002D20737570706F736520796F7520776F84
:102D7000726B20766572792068617264206F6E20B4
:102D8000736F6D657468696E6720616E6420746826
:102D9000656E20796F75277265207465737465643C
:102DA000206C61746572207468617420646179209C
:102DB0006F6E207468652073616D65207468696E3C
:102DC000672E204974277320696E74657265737469
:102DD000696E672C20796F7520776F6E277420627B
:102DE00065206D756368206265747465722E204974
:102DF0006620796F75277265207465737465642029
:102E0000746865206E657874206461792C20796F10
:102E100075206D61792062652061206C6F7420627D
:102E200065747465722E20496620796F7527726506
:102E300020746573746564207468652074686972B1
:102E400064206461792C20796F75206D617920622E
:102E50006520636F6E736964657261626C7920626C
:102E60006574746572207468616E20796F7520775F
:102E7000657265206F6E20746865207365636F6E80
:102E8000642064617920776974686F757420686163
:102E900076696E6720646F6E65207468652074685B
:102EA000696E6720696E206265747765656E2E2095
:102EB000477565737320776861742773207468653C
:102EC000206C61726765737420666163746F722031
:102ED000696E20696E666C75656E63696E672074D5
:102EE0006F207768617420657874656E74207468EB
:102EF00061742773207472756527204974277320C5
:102F00007768657468657220796F7520676F7420C3
:102F10003820686F757273206F6620736C656570FA
:102F2000206F7220362E204861766520796F7520DB
:102F300065766572206865617264206F66207375BE
:102F400063682061207468696E67272049206E6578
:102F5000766572206865617264206F6620697420EE
:102F6000756E74696C206C617374207765656B2075
:102F70007768656E206120736C656570207265737B
:102F800065617263686572206E616D656420526F61
:102F90006265727420537469636B676F6C6420742C
:102FA0006F6C64206D652074686174207468697347
:102FB00020686173206265656E20646973636F7653
:102FC0006572656420696E207365766572616C2038
:102FD000706C616365732E20496E207363686F6F38
:102FE0006C207768656E207468657920746561630C
:102FF0006820796F752061626F7574207468696EDE
:103000006B696E67206F72206C6561726E696E67A6
:103010002E2E2E616E64207768617427732073638F
:10302000686F6F6C20666F72272049742773206E5B
:103030006F7420746F206C6561726E2061626F75B1
:103040007420496E7569742063756C74757265209F
:103050006F7220456779707469616E2063756C7456
:10306000757265206F7220616C6765627261206F96
:10307000722067656F677261706879206F72207760
:103080006861746576657227205768617420796F6E
:1030900075277265207265616C6C7920696E20738A
:1030A00063686F6F6C20666F7220697320746F2085
:1030B0006C6561726E2061626F7574207468696EF0
:1030C0006B696E6720616E64206C6561726E696EFB
:1030D000672E2041732050617070657274206861A2
:1030E0007320706F696E746564206F7574206D61F4
:1030F0006E792074696D65732C207765206B6E6F17
:103100007720736F206C6974746C652061626F75D1
:1031100074206974202D206F722074686520746596
:1031200061636865727320646F206174206C6561EF
:103130007374202D20746861742069742773206172
:10314000207461626F6F207375626A6563742E20EC
:10315000596F7520646F6E27742074616C6B2061E9
:10316000626F75742069742E20546861742773200F
:103170006265636175736520776520646F6E27747F
:10318000206861766520676F6F64207468656F7270
:10319000696573206F66207468696E67732E2041BD
:1031A0006E7977617920696620796F752072656123
:1031B00064206368617074657220453420796F758E
:1031C000276C6C20736565207468617420492074D5
:1031D00068696E6B204920616D206F6E2074686590
:1031E00020747261636B2E2E2E20453520676F652B
:1031F0007320746F206D6F72652064657461696CF3
:103200002E20202049206861766520612074686541
:103210006F7279206F6620686F7720746F20676502
:10322000742061206D616368696E6520746F20642D
:103230006F206D616E79206F6620746865207468F8
:10324000696E6773207468617420676F20696E749B
:103250006F20746869732073756974636173652086
:103260006F6620636F6E7363696F75736E657373DA
:103270002E2054686572652077696C6C20737469C0
:103280006C6C2062652070656F706C652077686F6C
:1032900020736179207965732C2062757420796FB1
:1032A0007520686176656E277420676F7474656E2B
:1032B0002061742074686520756E69666965642C88
:1032C0002063656E7472616C2C20736F6C61722068
:1032D000737069726974206F72206D616769632011
:1032E0006F6620636F6E7363696F75736E6573735A
:1032F0002074686174206578706C61696E732061F8
:103300006C6C2074686F7365206F746865722074CC
:1033100068696E67732E204D7920616E73776572D0
:1033200020697320676F206261636B20746F207463
:103330006865204D6964646C652041676573206F22
:10334000722073746F7020626F74686572696E6743
:10335000206D652C2049276D20627573792E202001
:103360002054686973206973206120646961677201
:10337000616D206F66207468652073797374656D64
:10338000204920656E6465642075702077697468D3
:103390002C207768696368206861732066697665A8
:1033A000206C6179657273206F66207468696E673E
:1033B0007320696E636C7564696E672074686561FB
:1033C0007465727320776869636820617265207024
:1033D0006C6163657320776865726520796F75200D
:1033E00073696D756C61746520696E206F6E652000
:1033F000776179206F7220616E6F746865722077D3
:1034000068617420796F75207468696E6B206D69CE
:103410006768742068617070656E20696620796FD6
:1034200075207765726520746F20646F20736F6DEF
:10343000657468696E672E2048657265206F6E201E
:1034400074686520736964652077686572652079A2
:103450006F752063616E2774207365652069742E13
:103460002E2E2042757420736F6D652070656F700D
:103470006C652077696C6C207361792062757420AB
:10348000636F6E7363696F75736E6573732E2E2E23
:1034900069736E2774207468617420746865206392
:1034A000656E7472616C207468696E6720746861FF
:1034B00074277320696E20636F6E74726F6C2E2098
:1034C00054686174277320616E6F7468657220643C
:1034D000697361737465722E205468657265206922
:1034E000736E277420616E792063656E7472616CEF
:1034F000207468696E6720696E20636F6E74726FE6
:103500006C2E2054686520616E746572696F72203C
:103510006879706F7468616C616D757320636F6E2C
:1035200074726F6C73207768617420686170706565
:103530006E7320696620796F7527726520746F6FCE
:1035400020636F6C64206F7220746F6F20686F74DB
:103550002E20416E642074686520706F73746572EC
:10356000696F72206879706F7468616C616D7573D2
:1035700020646F657320746865206F70706F736965
:1035800074652E20426F7468206F662074686F73B4
:1035900065206C6974746C6520706965636573205F
:1035A0006F6620627261696E2C207768696368209B
:1035B00061726520766572792074696E792C206855
:1035C0006176652061626F757420313020686575A1
:1035D000726973746963732E204C696B6520696628
:1035E00020796F7527726520746F6F20686F742063
:1035F000796F752077696C6C207374726574636879
:10360000206F757420616E6420796F75276C6C2053
:103610007374617274207377656174696E672E20AC
:10362000496620796F7527726520736D6172742CFD
:1036300020796F75276C6C20676F20746F20616E26
:10364000206169722D636F6E646974696F6E656461
:10365000206D6F7669652C207573696E67207468BC
:1036600065206869676865722C206D6F72652072CD
:1036700065666C656374697665206C6576656C73E8
:10368000206F6620746865206D696E642E20536F0C
:1036900020776861742049276D20736179696E67AE
:1036A0002069732074686174207768617420636F87
:1036B0006E74726F6C73207768617420796F7520F7
:1036C000646F206973206E6F742063656E7472611D
:1036D0006C6C7920636F6E74726F6C6C65642E20F5
:1036E000496620736F6D65206665726F63696F75DB
:1036F0007320616E696D616C20636F6D6573206FFF
:1037000076657220686572652C2074686174277311
:1037100020676F696E6720746F20696E74657272BE
:10372000757074206D6520616E642049276C6C2073
:103730007265616374207769746820736F6D6520AA
:103740007072696D697469766520616C61726D2053
:1037500073797374656D206F72206F746865722E53
:10376000205468657265206172652061626F7574AE
:10377000203130206F662074686F73652E20546886
:10378000652068756D616E20627261696E20697373
:10379000206120776F6E64657266756C206B6C7546
:1037A0006765207468617420686173206275696C54
:1037B00074206C6F7473206F66206469666665722E
:1037C000656E74206B696E6473206F6620636F6E24
:1037D00074726F6C2073797374656D732E20596FDA
:1037E000752073686966742066726F6D206F6E65F0
:1037F00020746F20616E6F746865722C206275741E
:1038000020736F6D65206F6620796F757220636F0E
:103810006D6D6F6E2073656E7365207361797320B3
:103820007768617420796F752063616E20736869B1
:10383000667420746F2E2049662074686520616C60
:1038400061726D2069736E2774206C6F75642065DA
:103850006E6F7567682C206D6179626520796F7570
:10386000276C6C207468696E6B2077656C6C2074B3
:103870006869732069732061207265616C20656DD1
:10388000657267656E63792E204966204920646FF2
:103890006E277420676574207468697320646F6E86
:1038A000652C2049276C6C206C6F7365206D792026
:1038B0006A6F6220616E64207768617465766572F4
:1038C00020796F7527726520776F72726965642041
:1038D00061626F75742E202020416E7977617920A6
:1038E00074686520776179207468697320626F6FEE
:1038F0006B2073746172747320697320746865201F
:10390000696465612074686174207468652062650B
:1039100073742077617920746F206C6F6F6B2061F6
:103920007420746865206D696E642C206174206C4D
:1039300065617374207768656E20796F7520737484
:103940006172742C206973206A75737420746869BD
:103950006E6B206F6620697420617320612062693C
:103960006720636C6F7564206F66206469666665A6
:1039700072656E742070726F636573736573207403
:103980006861742061726520636F6E6E6563746533
:10399000642E2045616368206F66207468656D2021
:1039A00068617320736F6D652066756E6374696FEF
:1039B0006E2C2065616368206F66207468656D20D9
:1039C000646570656E6473206F6E20612066657734
:1039D000206F74686572732E20496620796F752098
:1039E0006C6F6F6B2061742074686520627261690E
:1039F0006E2C20796F75276C6C2073656520746858
:103A00006174207468657265206172652061626FFF
:103A100075742034303020627261696E2063656E87
:103A2000746572732E205468657265277320612057
:103A30006C6F7420746861742077652063616E27F1
:103A400074207365652062656361757365207468B1
:103A5000657265206172652066616D696C69657368
:103A6000206F662063656C6C7320746861742061DC
:103A7000726520636F6D6D6F6E20746F206D616E67
:103A80007920627261696E2063656E74657273205D
:103A90007468617420617265206163746976617411
:103AA000656420627920736570617261746520625B
:103AB00075737365732E20496620796F75206C6F5E
:103AC0006F6B20696E2074686520627261696E2C6C
:103AD00020796F75276C6C2073656520736576653A
:103AE00072616C2068756E647265642064697374B9
:103AF000696E6374206C61726765206275737365AB
:103B00007320616E6420696E206F6E6C7920612075
:103B100066657720636173657320646F2077652025
:103B20006B6E6F7720776861742074686F7365209F
:103B3000646F2E2042757420656163682062726133
:103B4000696E2063656E7465722074797069636153
:103B50006C6C7920636F6E6E6563747320746F2074
:103B60006F6E652C2074776F206F72207468697295
:103B7000747920646966666572656E74206F746816
:103B8000657220627261696E2063656E746572731E
:103B90002C20616E642068617320616C6D6F73749A
:103BA000206E6F20636F6E6E656374696F6E732035
:103BB000776974682074686520726573742E205369
:103BC0006F20697427732061206269672C20636FFE
:103BD0006D706C6963617465642C20686967686CDA
:103BE000792065766F6C76656420617263686974AC
:103BF0006563747572652E20486F776576657220EF
:103C0000696E2074686520706F70756C6172206DCC
:103C1000696E6420746865726520617265207665DE
:103C2000727920706F70756C6172207468656F7244
:103C3000696573206C696B6520746865206D696EB9
:103C4000642069732074776F207061727473202D03
:103C5000206C6F67696320616E6420696E7475699A
:103C600074696F6E202D206F7220726561736F6EA4
:103C700020616E6420656D6F74696F6E202D206FFA
:103C800072206C65667420627261696E207665725E
:103C900073757320726967687420627261696E2E31
:103CA00020546861742773206120766572792070D2
:103CB0006F70756C6172206F6E652E204275742076
:103CC00074686572652773207265616C6C79206E0B
:103CD0006F20626173697320746F2069742E2049AC
:103CE0007427732074727565207468617420746819
:103CF0006572652773206D6F7265206C616E6775E4
:103D000061676520696E20746865206C6566742043
:103D1000627261696E20696E206D6F7374207065C8
:103D20006F706C652C2062757420746865726520F4
:103D3000617265206368696C6472656E207769746E
:103D4000682061206365727461696E206B696E64BE
:103D5000206F66206570696C657073792077686F75
:103D6000206861766520746F206C6F736520612018
:103D700068656D697370686572652E2049206B6E89
:103D80006F77206120392D79656172206F6C642016
:103D900077686F206C6F73742068697320656E7428
:103DA00069726520726967687420627261696E2049
:103DB0007768656E20686520776173203320312F26
:103DC00032207965617273206F6C642E20486527FC
:103DD000732061207375706572696F72206163680A
:103DE000696576657220696E2068697320636C610D
:103DF00073732E2048652063616E27742073656598
:103E0000206F6E206F6E652073696465206F662079
:103E10006869732076697375616C206669656C6486
:103E200020616E6420686973206C65667420686127
:103E30006E642069736E2774207665727920676FCF
:103E40006F642C2062757420686527732063686135
:103E5000726D696E6720616E6420736F6369616261
:103E60006C6520616E64206D616B6573206772659F
:103E700061742064726177696E67732E20486527CC
:103E8000732066696E652E20536F206F6E652073F8
:103E9000686F756C64206B6E6F7720746861742036
:103EA0006265666F726520796F752062656C696501
:103EB00076652070656F706C652E2020204F6E65D2
:103EC000207468696E67204920656D706861736948
:103ED0007A652061206C6F7420696E207468697344
:103EE00020626F6F6B206973207468697320696446
:103EF0006561206F66206D756C7469706C652072E9
:103F00006570726573656E746174696F6E2E204999
:103F10006620796F7520756E6465727374616E6466
:103F200020736F6D657468696E672076657279209D
:103F3000707265636973656C7920696E206F6E6558
:103F4000207761792C20736179207768617420640F
:103F50006F65732074686520776F726420756E6476
:103F600065727374616E64206D65616E2C20776874
:103F7000617420646F6573206D65616E696E672082
:103F80006D65616E2720497427732061206469661E
:103F9000666963756C7420776F7264206265636113
:103FA00075736520746865726527732061206B697D
:103FB0006E64206F66207068696C6F736F706869DB
:103FC00063616C2074726F75626C652077697468C8
:103FD0002069742E204865726527732077686174A4
:103FE0002049207468696E6B20756E646572737405
:103FF000616E64696E672069732E205B5D204D6F72
:104000007374206F6620796F752061726520746FFC
:104010006F20796F756E6720746F2072656D656DA6
:1040200062657220746865206E6577206D617468C2
:1040300020776865726520796F75207765726520D5
:10404000746F6C642061626F75742074686520659C
:104050006D7074792073657420616E64207468617A
:104060007420746865206E756D626572206F6E6570
:1040700020697320746865207365742074686174A6
:1040800020636F6E7461696E73206F6E6C7920743B
:10409000686520656D7074792073657420616E6445
:1040A000207374756666206C696B65207468617432
:1040B0002E205468617420746861742077617320C5
:1040C0007468652072696768742077617920746FFD
:1040D00020646566696E65206E756D626572732E0B
:1040E000204F6620636F75727365206E756D626513
:1040F00072732061726520616C736F2077617973D0
:10410000206F662065787072657373696E672074BE
:1041100068652073697A65206F66207468696E67C8
:104120007320616E642074686520696D706F7274AD
:10413000616E6365206F66207468696E67732E20F8
:10414000596F752075736520697420696E20616CE4
:104150006C20646966666572656E74207761797338
:104160002E20536F20696620796F7520756E646507
:10417000727374616E6420736F6D657468696E67C5
:1041800020696E206F6E6C79206F6E652077617983
:104190002C207468656E204920636C61696D2079FC
:1041A0006F7520646F6E277420756E64657273740A
:1041B000616E6420697420617420616C6C20696E8A
:1041C0002074686520666F6C6C6F77696E6720730A
:1041D000656E73653A20796F75206B6E6F77206915
:1041E0007420627920726F74652E204D617962654A
:1041F00020796F75206861766520612073656E7423
:10420000656E63652E2048656E72696B2056616E1F
:10421000204C6F6F6E206861642061206368696C58
:104220006420696E20736F6D652073746F727920DE
:10423000696E206120313974682063656E7475720F
:1042400079206368696C6472656E277320626F6F92
:104250006B2E2054686973206368696C6420686100
:1042600064206C6561726E6564207468617420748A
:104270006865204E696C6520697320746865206CE0
:104280006F6E6765737420726976657220696E203F
:1042900074686520776F726C642E2048697320748F
:1042A0006561636865722073616964207768617411
:1042B000277320746865206C6F6E67657374207255
:1042C0006976657220696E2074686520776F726CFC
:1042D0006420616E6420686520636F756C646E276E
:1042E0007420616E737765722069742E205468653E
:1042F0006E207368652070726F6D707465642068DD
:10430000696D2027746865204E696C652069732784
:1043100020616E64206F757420697420636F6D6511
:10432000732E20536F20796F7520776F756C642022
:10433000736179207468617420746869732063689C
:10434000696C6420686173206D656D6F72697A6550
:1043500064206F72206C6561726E656420627920E2
:10436000726F746520736F6D657468696E672C2059
:1043700062757420686520646F65736E277420759C
:104380006E6465727374616E642069742E20576860
:10439000617427732074686520706F696E742720BC
:1043A000496620796F75206861766520736576654A
:1043B00072616C20726570726573656E7461746988
:1043C0006F6E73206F662069742C206C696B65209A
:1043D000696620796F75207468696E6B206F66203E
:1043E000746865204E696C65206173206120726974
:1043F00076657220616E64206D6179626520796FE7
:104400007520686176652061206D656E74616C2031
:10441000696D616765206F662074686973207269D1
:1044200076657220676F696E67206D7563682066B8
:10443000757274686572207468616E20736F6D6543
:10444000206F746865722072697665722C20616EC7
:104450006420796F75206D6967687420686176657E
:104460002061206F7074696320696D616765206FDA
:1044700066207377696D6D696E6720696E20616E65
:1044800064207265616C697A696E6720796F75273F
:104490007265206E6576657220676F696E6720743D
:1044A0006F2067657420746F2074686520656E6482
:1044B00020616E6420796F7527726520676F696E61
:1044C0006720746F206469652E20496D616765738C
:1044D000206C696B65207468617420617265207658
:1044E00065727920676F6F6420666F722068656CF3
:1044F00070696E6720796F752072656D656D626594
:10450000722073747566662E20536F206561636830
:10451000206F6620796F752070726F6261626C79AE
:1045200020686173206120646F7A656E206469661B
:10453000666572656E74207761797320746F20727E
:104540006570726573656E7420612072697665723C
:104550002E2054686572652061726520736F6D65E9
:10456000206F70746963206F6E65732C20746869A6
:104570006E677320796F752075736520612072698D
:104580007665722C2074686572652773207468657F
:1045900020726976657220617320616E206F62738C
:1045A0007461636C65207468617420796F75206E26
:1045B00065656420612074756E6E656C206F722075
:1045C00062726964676520746F2067657420616337
:1045D000726F7373205B5D2E2054686520706F6965
:1045E0006E74206973207468617420696620796F25
:1045F0007520686176652031302064696666657271
:10460000656E74206D65616E696E6773206F7220D0
:10461000726570726573656E746174696F6E732014
:104620006F66207468652072697665722C207468E4
:10463000656E207768656E20796F75206865617298
:1046400020736F6D65626F64792074616C6B696E45
:10465000672061626F757420697420796F752077A7
:104660006F6E27742067657420737475636B2E20DA
:10467000596F75276C6C2070726F6261626C792063
:1046800067657420737475636B2C20627574206980
:104690006E203330206D696C6C697365636F6E6476
:1046A00073206F72206C65737320796F75276C6C43
:1046B00020736179204927766520676F74207468BC
:1046C000652077726F6E6720726570726573656EB4
:1046D000746174696F6E20616E6420796F752073E8
:1046E00063616E207468726F75676820352D313094
:1046F000206F66207468656D20616E6420616C6C4B
:10470000206F6620612073756464656E2C20796F5C
:1047100075206B6E6F772077686174207468657997
:104720002772652074616C6B696E672061626F75BA
:10473000742E20546869732069732077687920701B
:1047400068696C6F736F706865727320616E642046
:1047500076657279206C69746572616C2070656F22
:10476000706C652068617665206861642074726F82
:1047700075626C65207769746820776F7264732046
:104780006C696B65206D65616E696E6720616E6432
:1047900020756E6465727374616E64696E67206201
:1047A000656361757365206F662074686973206A3C
:1047B0006F6B653A20696620796F7520756E646548
:1047C000727374616E6420736F6D657468696E676F
:1047D00020696E206A757374206F6E652077617929
:1047E0002C207468656E20796F7520646F6E277455
:1047F0002066756E6374696F6E616C6C7920756E7E
:104800006465727374616E642069742061742061E0
:104810006C6C2E2020205468726F7567686F7574F9
:10482000207468697320626F6F6B2049207573650F
:10483000207468652069646561206F6620737569FE
:10484000746361736520776F72642C206F662073C8
:104850006179696E6720746861742E2E2E206E6FE8
:104860007720746869732069736E27742071756985
:104870007465207468652073616D65207468696E65
:10488000672C2062757420736F6D6574696D657334
:1048900020776520646F6E277420756E646572736F
:1048A00074616E6420736F6D657468696E672062F1
:1048B0006563617573652077652066616C73656CEF
:1048C0007920617373756D652074686174207468F4
:1048D000657265277320616E2027697427207468CC
:1048E00065726520726174686572207468616E20FB
:1048F0006120636F6C6C656374696F6E206F662CEA
:10490000206F722061206E6574776F726B206F6606
:1049100020696E74657272656C6174656420707272
:104920006F6365737365732E204974277320686104
:10493000726420746F207075742074686F736520C2
:10494000696E206120646566696E6974696F6E2C9A
:1049500020657370656369616C6C792061206C6F90
:10496000676963616C206F6E652E20536F20756ED2
:104970006465727374616E64696E67206D65616EE3
:104980007320686176696E67206D616E792077614A
:10499000797320746F206465616C20776974682076
:1049A0007468696E67732E20492063616E277420D6
:1049B00072656D656D6265722077686174206B69E0
:1049C0006E64206F66206372617A7920736561720C
:1049D000636820666F756E6420746869732E204961
:1049E0007427732066726F6D2041726973746F74DF
:1049F0006C652773204D65746170687973696373A2
:104A00002E204920776173206C6F6F6B696E672071
:104A1000666F7220736F6D657468696E6720746F5E
:104A20002073656520776865746865722068652005
:104A3000686164207468697320696465612E204927
:104A40002077696C6C20726561642069742E202760
:104A500054686520657373656E6365206F662061B9
:104A600020686F7573652069732061737369676E61
:104A7000656420696E2073756368206120666F72BB
:104A80006D756C61207468617420686173206120A9
:104A90007368656C74657220616761696E737420F8
:104AA0006465737472756374696F6E2062792077C0
:104AB000696E642C207261696E20616E6420686585
:104AC00061742E2042757420612070687973696367
:104AD00069737420776F756C6420646573637269A1
:104AE00062652069742061732073746F6E65732C26
:104AF00020627269636B7320616E642074696D62F9
:104B00006572732E2720596F752073656520746850
:104B10006520646966666572656E636520746865A4
:104B2000206669727374206F6E652069732061203E
:104B300066756E6374696F6E616C20646566696E1C
:104B40006974696F6E202D2074686520686F7573B5
:104B50006520697320746F206B65657020746865CB
:104B6000207261696E206F6666206D652E20546824
:104B700065207365636F6E64206F6E6520697320B6
:104B800061207374727563747572616C20646573EF
:104B90006372697074696F6E202D206974277320A9
:104BA000736F6D657468696E6720737570706F726E
:104BB00074656420627920736F6D657468696E67CF
:104BC00020656C7365206173206120636572746178
:104BD000696E207374727563747572652E204172EC
:104BE0006973746F746C6520736179732C2027620C
:104BF0007574207468657265277320612074686914
:104C0000726420706F737369626C6520646573638E
:104C100072697074696F6E20776869636820776F56
:104C2000756C6420736179207468617420697420E4
:104C3000776173207468617420666F726D20696E8D
:104C40002074686174206D6174657269616C20778D
:104C5000697468207468617420707572706F736510
:104C6000206F7220656E642E2057686963682C205F
:104C70007468656E2C20697320656E7469746C6548
:104C80006420746F20626520726567617264656478
:104C9000206173207468652067656E75696E652094
:104CA0007068797369636973742720546865206F2D
:104CB0006E652077686F20636F6E66696E6573201E
:104CC00068696D73656C6620746F20746865206D0B
:104CD0006174657269616C206F7220746865206F01
:104CE0006E652077686F2072657374726963747380
:104CF0002068696D73656C6620746F207468652028
:104D0000666F726D756C61626C6520657373656E3C
:104D100063652727205468617427732074686520B1
:104D200066756E6374696F6E2C20492067756573B4
:104D3000732E20274973206974206E6F742072616E
:104D40007468657220746865206F6E652077686F7F
:104D500020636F6E7461696E7320626F746820697E
:104D60006E20612073696E676C6520666F726D7569
:104D70006C612727202020536F2068657265277398
:104D800020616E206578616D706C65206F66206DA6
:104D9000756C7469706C6520726570726573656E90
:104DA000746174696F6E2C206E6F7420696E20744C
:104DB00065726D73206F6620646966666572656EE4
:104DC00074206461746120737472756374757265A4
:104DD000732C2062757420796F75206D6967687413
:104DE00020757365207468652073616D652064614A
:104DF00074612073747275637475726520696E20B6
:104E0000646966666572656E74207265616C6D7347
:104E1000206F6620636F6E6365726E2E204A6F6826
:104E20006E2067617665204D617279207468652017
:104E3000626F6F6B2E2049206469736375737365AD
:104E4000642074686973206578616D706C65206991
:104E50006E206D79206F6C6420626F6F6B2C205414
:104E6000686520536F6369657479206F66204D69AA
:104E70006E642E2049276D206465636964696E67DE
:104E800020686F77206D756368206F662074686195
:104E900074206F6C642073656374696F6E20746F27
:104EA00020636F707920616E6420686F77206D7564
:104EB000636820746F207772697465206E65772E41
:104EC000205768656E6576657220796F7520736509
:104ED0006520736F6D657468696E672068617070B6
:104EE000656E2C20796F752063616E207468696E21
:104EF0006B206F662069742068617320707572651D
:104F00006C7920706879736963616C2C20617320FF
:104F100041726973746F746C6520736169642E20CB
:104F20004A6F686E2067617665204D6172792074E2
:104F3000686520626F6F6B2E2046697273742069FA
:104F400074277320696E204A6F686E27732068612A
:104F50006E647320616E6420796F75206D69676877
:104F60007420696D6167696E65206120706879736E
:104F70006963616C207472616E736665722073631D
:104F800072697074207768657265206974206D6F2E
:104F900076657320746F204D617279277320686184
:104FA0006E64732E205468657265277320616E6F7E
:104FB00074686572206F6E65207768696368204940
:104FC000276D207468696E6B696E67206F66206359
:104FD000616C6C696E672027646F6D696E696F6EB6
:104FE000272E2044696420796F75206E6F74696381
:104FF00065207468617420776865726576657220D3
:10500000796F7520676F20696E2074686520776FEF
:10501000726C642C20776861746576657220796F94
:1050200075207365652C20796F752063616E277418
:1050300020686176652069742062656361757365B7
:105040002069742062656C6F6E677320746F2073C3
:105050006F6D656F6E652E204974277320766572BB
:105060007920696D706F7274616E742E20416C6D61
:105070006F73742065766572797468696E672062F3
:10508000656C6F6E677320746F20736F6D656F6EE4
:10509000652C20696E636C7564696E672074686541
:1050A0002061697220696E20736F6D65207363697A
:1050B000656E63652066696374696F6E2073746FD3
:1050C000726965732E20536F20776861742773208F
:1050D00068617070656E65642069732C2069742046
:1050E0006C6F6F6B73206C696B65207468652063EF
:1050F0006F6E74726F6C206F662074686520626FCB
:105100006F6B2068617320706173736564206672D1
:105110006F6D204A6F686E20746F204D6172792C1C
:105120002062757420776520646F6E2774206B6E23
:105130006F772077686574686572206865277320CB
:105140006C6F616E6564206F72206D61796265209D
:10515000697420776173206865727320616C6C20BC
:10516000616C6F6E672C20616E6420686527732008
:10517000676976696E67206974206261636B2E20AF
:10518000417320736F6F6E20617320796F75206893
:1051900065617220746861742C207065726861703A
:1051A0007320646966666572656E742070617274DE
:1051B00073206F6620796F7572206D696E6420614F
:1051C0007265206C6F6F6B696E6720666F7220640A
:1051D0006966666572656E7420616E737765727359
:1051E00020746F207265736F6C76652074686973C4
:1051F00020616D626967756974792E202020416C89
:10520000736F2074686572652773206265656E2010
:1052100061206368616E676520696E20746865202F
:105220006D656D6F7279206F66204A6F686E2061C0
:105230006E64204D617279206265636175736520CB
:10524000756E6C6573732068652773206C696B6578
:10525000206D652C2068652070726F6261626C79C8
:105260002072656D656D626572732077686F206866
:105270006520676176652074686520626F6F6B20BA
:10528000746F2E20416E79776179204920636F6EAB
:10529000636C756465207468617420636861707400
:1052A00065722073686F77696E67206120646F7A1A
:1052B000656E20646966666572656E74206B696EE2
:1052C0006473206F66206461746120737472756307
:1052D00074757265207468617420796F7520636FCE
:1052E000756C642075736520666F722072657072CC
:1052F0006573656E74696E67207468696E67732E76
:105300002041206C6F74206F66207468657365207F
:10531000646174612073747275637475726573204F
:10532000646570656E64206F6E2065616368206FD0
:10533000746865722C20736F20796F752074616CAE
:105340006B2061626F75742076657279206C6F775F
:10535000206C6576656C206E657572616C206E657B
:1053600074732C206F72206576656E206C6F776584
:1053700072206C6576656C20636F6E6E6563746910
:105380006F6E73206265747765656E207468696EF0
:1053900067732E204920646F6E27742077616E74C6
:1053A00020746F2074616C6B2061626F757420745F
:1053B00068696E677320492063616C6C204B2D6CAB
:1053C000696E652073656D616E746963206E6574C6
:1053D000732C2077686963682049207468696E6B54
:1053E000206172652061637475616C6C7920616203
:1053F0006F757420746865207269636865737420C2
:10540000726570726573656E746174696F6E732016
:10541000666F722070726F626C656D7320796F7544
:1054200020646F6E277420756E6465727374616E8C
:1054300064207965742E205468617427732077681E
:1054400061742072656C6174696F6E616C20646157
:1054500074616261736573206861766520696E208E
:105460007468656D2E205468656E20746865206BC5
:10547000696E64206F66206672616D65206172726C
:1054800061797320616E64207472616E732D66722F
:10549000616D657320616E642073637269707473EB
:1054A000207468617420492074616C6B65642061AC
:1054B000626F757420696E2054686520536F63694C
:1054C000657479206F66204D696E642E202020530C
:1054D0006F20746865206D6F72616C206F6620614B
:1054E0006C6C20746869732069732074686174201F
:1054F0007768656E20796F75206861766520612018
:105500006E65772070726F626C656D20616E6420CD
:10551000796F7520736179207768617427732074BF
:10552000686520626573742077617920746F2072DA
:105530006570726573656E7420746869732C20736E
:10554000686F756C642049207573652061206E65F5
:105550007572616C206E6574206F722061207265B7
:105560006C6174696F6E616C2064617461626173F7
:10557000652C2074686520616E737765722069738D
:1055800020696620796F75277265206A75737420AB
:10559000747279696E6720746F2067657420736F09
:1055A0006D657468696E6720646F6E6520717569DA
:1055B000636B20616E6420697420646F65736E276D
:1055C00074206861766520746F206265207665724C
:1055D0007920676F6F64206F72207265736F7572C8
:1055E000636566756C2C207468656E2049276C6C49
:1055F0002073756767657374206120776179207403
:105600006F207069636B206F6E652E204275742069
:10561000696620796F75277265206C6F6F6B696E94
:105620006720666F7220736F6D657468696E67209E
:10563000696E20746865206675747572652074687B
:1056400061742773206C696B6520612062616279E7
:10565000206D616368696E652074686174277320CA
:10566000676F696E6720746F206B65657020676572
:105670007474696E6720736D61727465722C207426
:1056800068656E20796F7527642062657474657231
:10569000206E6F742068617665206974206C656186
:1056A000726E2062792073746174697374696361C6
:1056B0006C206173736F63696174696F6E73206FBF
:1056C00072206E657572616C206E657473206F72E6
:1056D0002077686174657665722E20596F75207326
:1056E000686F756C642070726F6261626C79207390
:1056F00074617274206974206F66662077697468BB
:105700002066697665206F7220736978206F662045
:105710007468657365207468696E677320616E6470
:1057200020666967757265206F757420736F6D658B
:1057300020776179206F66206E65676F7469617488
:10574000696E6720616E64206D616E6167696E6766
:105750002074686174207468652064696666657287
:10576000656E7420726570726573656E74617469BC
:105770006F6E73206769766520796F7520616C7430
:1057800065726E6174652077617973206F6620752C
:1057900073696E67207468652073616D65206B693D
:1057A0006E64206F66206B6E6F776C656467652E24
:1057B000202020205468656E20736F6D65776865C2
:1057C000726520696E206D7920776562207061674F
:1057D0006520796F75276C6C2066696E642074682B
:1057E0006973206469616772616D2C2077686963F1
:1057F000682049276D20766572792070726F756414
:10580000206F662C20616C74686F756768206974FE
:105810002773206265656E2061726F756E642073F8
:10582000696E636520313939332E205468697320DD
:1058300069732061206C6974746C652064696167A8
:1058400072616D2074686174207375676765737425
:105850007320776879206974277320736F6D65747E
:10586000696D65732062657474657220746F20754C
:105870007365206E657572616C206E657473206F40
:10588000722066757A7A79206C6F6769632C206163
:105890006E6420776879206974277320736F6D6553
:1058A00074696D65732062657474657220746F200D
:1058B000757365206C6F676963616C2072656173D5
:1058C0006F6E696E672E202020546869732069739B
:1058D000206A75737420612068616E647920746831
:1058E000656F72792E20596F75206C6F6F6B206118
:1058F0007420746869732070726F626C656D2E20FD
:105900004D79206661766F72697465206578616D86
:10591000706C6520697320796F75207365652074DC
:1059200068657265277320736F6D652070726F7084
:1059300065727479206F6620612073697475617473
:10594000696F6E20616E6420796F752061736B20C2
:105950007768617420646F65732069742064657072
:10596000656E64206F6E2E20446F6573206974200D
:10597000646570656E64206F6E2061206C61726773
:1059800065206E756D626572206F6620736D616C47
:105990006C20636175736573206F72206120736D75
:1059A000616C6C206E756D626572206F66206C6133
:1059B000726765206361757365732E205768617423
:1059C000206B656570732074686973206368616912
:1059D00072206F66662074686520666C6F6F722730
:1059E000204974277320666F7572206C6567732E6B
:1059F000205468656E20796F752063616E20646F36
:105A0000206C6F6769632E20596F752063616E206B
:105A10007361792069662074686174206C65672001
:105A200077657265206D697373696E6720616E6456
:105A300020697420676F742061206C6974746C65D0
:105A400020666F7263652C20697420776F756C64B3
:105A50002074696C742074686174207761792E20D9
:105A60004966207468652066726F6E742074776F63
:105A7000206C6567732077657265206D6973736943
:105A80006E672C207468656E20697420776F756C62
:105A9000646E2774206E65656420616E7920666F80
:105AA0007263652C20697420776F756C64206A7549
:105AB00073742066616C6C2E204E657572616C206B
:105AC0006E65747320776F6E277420646F20796F12
:105AD0007520616E7920676F6F6420776974682024
:105AE000746861742E204F7220696620746865792D
:105AF00020646F2C2074686579276C6C2077617343
:105B000074652061206C6F74206F66207265736FFE
:105B100075726365732E204F6E20746865206F74F4
:105B20006865722068616E642C2077686174206BF0
:105B3000656570732074686973206A61636B65744E
:105B4000206F6E20746865207461626C6527205731
:105B5000656C6C2C20697427732070726F626162AF
:105B60006C7920352D3130206D696C6C696F6E2039
:105B70006C6974746C65206C696E656E2066696210
:105B800065727320746F756368696E6720746865E9
