:1000000083018A110A120428831383160A30990087
:10001000243098008312903098000130A100023003
:100020008A0021030022A00000308A0020080C1E54
:1000300017289900A10F0F280130A10003308A0072
:1000400021030023A00000308A0020080C1E26286F
:100050009900A10F1E280130A10004308A0021035D
:100060000024A00000308A0020080C1E35289900CA
:10007000A10F2D280130A10005308A0021030025A1
:10008000A00000308A0020080C1E44289900A10F0F
:100090003C280130A10006308A0021030026A00080
:1000A00000308A0020080C1E53289900A10F4B280D
:1000B0000130A10007308A0021030027A000003092
:1000C0008A0020080C1E62289900A10F5A280130CE
:1000D000A10008308A0021030020A00000308A001F
:1000E00020080C1E71289900A10F69280130A10079
:1000F00009308A0021030021A00000308A00200876
:100100000C1E80289900A10F78280130A1000A3028
:100110008A0021030022A00000308A0020080C1E63
:100120008F289900A10F87280130A1000B308A0089
:1001300021030023A00000308A0020080C1E9E2806
:100140009900A10F96280130A1000C308A002103EC
:100150000024A00000308A0020080C1EAD28990061
:10016000A10FA5280130A1000D308A002103002530
:10017000A00000308A0020080C1EBC289900A10FA6
:10018000B4280130A1000E308A0021030026A0000F
:1001900000308A0020080C1ECB289900A10FC3282C
:1001A0000130A1000F308A0021030027A000003099
:1001B0008A0020080C1EDA289900A10FD2280130ED
:1001C000A10010308A0021030020A00000308A0026
:1001D00020080C1EE9289900A10FE1280130A10098
:1001E00011308A0021030021A00000308A0020087D
:0C01F0000C1EF8289900A10FF02800292F
:100200000130A10012308A0021030022A000013039
:100210008A0020080C1E0A299900A10F022901302A
:10022000A10013308A0021030023A00001308A00BE
:1002300020080C1E19299900A10F11290130A100D5
:1002400014308A0021030024A00001308A00200815
:100250000C1E28299900A10F20290130A10015307A
:100260008A0021030025A00001308A0020080C1E0E
:1002700037299900A10F2F290130A10016308A00DB
:1002800021030026A00001308A0020080C1E462908
:100290009900A10F3E290130A10017308A002103E7
:1002A0000027A00001308A0020080C1E5529990063
:1002B000A10F4D290130A10018308A002103002030
:1002C000A00001308A0020080C1E64299900A10FAB
:1002D0005C290130A10019308A0021030021A0000F
:1002E00001308A0020080C1E73299900A10F6B2988
:1002F0000130A1001A308A0021030022A000013041
:100300008A0020080C1E82299900A10F7A29013049
:10031000A1001B308A0021030023A00001308A00C5
:1003200020080C1E91299900A10F89290130A100F4
:100330001C308A0021030024A00001308A0020081C
:100340000C1EA0299900A10F98290130A1001D3091
:100350008A0021030025A00001308A0020080C1E1D
:0A036000AF299900A10FA729B429C5
:1004000082074D3461347234763469346E3420346A
:100410004D3469346E3473346B3479342034203481
:1004200020345434723461346E347334633472342F
:100430006934703474342034503472346F34673417
:10044000723461346D3473342C34203445346D345B
:100450006F34743469346F346E34733420346134DF
:100460006E346434203443346F346D346D346F34FF
:100470006E342034533465346E3473346534503400
:1004800072346F346734723461346D3473342034B1
:1004900020342034203420345734683461347434A8
:1004A0002034493427346D34203467346F34693450
:1004B0006E346734203474346F34203474346134CF
:1004C0006C346B342034613462346F34753474347A
:1004D00020346934663420344934203464346F3431
:1004E0006E34273474342034773461347334743484
:1004F0006534203461346C346C34203474346834A2
:1005000065342034743469346D34653420346F3488
:100510006E34203461346E346534633464346F3443
:100520007434653473342034693473342034733450
:100530006F346D34653420346E3465347734203450
:100540006934643465346134733420346134623422
:100550006F3475347434203468346F347734203415
:1005600074346F3420346D3461346B34653420342A
:100570006D3461346334683469346E346534733493
:1005800020346D346F347234653420347234653401
:1005900073346F347534723463346534663475344F
:1005A0006C34203461346E346434203476346534F1
:1005B000723473346134743469346C3465342E3479
:1005C00020345434683465347334653420347734DB
:1005D00069346C346C3420346234653420346934CA
:1005E0006E3420346134203462346F346F346B34B1
:1005F0002034633461346C346C34653464342034B6
:100600008207543468346534203445346D346F3493
:10061000743469346F346E3420344D34613463344F
:10062000683469346E3465342E34203459346F3470
:10063000753427346C346C342034663469346E3449
:100640006434203473346F346D346534203465344D
:10065000613472346C3479342034633468346134F6
:100660007034743465347234733420346F346634C7
:1006700020347434683461347434203462346F3418
:100680006F346B342C3420347734683469346334F9
:1006900068342034733468346F3475346C346434A3
:1006A000203462346534203464346F346E346534FD
:1006B00020347434683469347334203473347534BA
:1006C0006D346D34653472342034493420346834E8
:1006D0006F34703465342C3420345B346F346E34B2
:1006E00020346D34793420347734653462342034E6
:1006F00070346134673465345D342E3420342034F2
:1007000020342034203420345B34533469346E3444
:1007100063346534203474346834653420346D3483
:1007200069346434203431343934373430347334F8
:100730005D342C342034413449342C342034693431
:100740006E3420346D347934203476346934653431
:1007500077342C34203468346134733420346E346C
:100760006F34743420346D3461346434653420342F
:100770006434723461346D34613474346934633494
:100780002034703472346F346734723465347334A7
:100790007334203469346E342034743468346534EE
:1007A00020346434693472346534633474346934A5
:1007B0006F346E3420346F346634203470347234C5
:1007C0006F346734723461346D347334203474346C
:1007D0006834613474342034683461347634653478
:1007E00020347734683461347434203479346F348D
:1007F00075342034633461346C346C3420342734E1
:100800008207673465346E346534723461346C3415
:10081000203469346E34743465346C346C34693427
:10082000673465346E3463346534273420346F3470
:1008300072342034273463346F346D346D346F3444
:100840006E342034733465346E3473346534273435
:1008500020346F3472342034613420346C346F347B
:10086000743420346F346634203472346534733415
:100870006F347534723463346534663475346C3473
:100880006E34653473347334203466346F347234A8
:100890002034683461346E3464346C3469346E34BA
:1008A00067342034703472346F3462346C3465349D
:1008B0006D347334203474346834613474342034C7
:1008C0007434683465342034703472346F3467346F
:1008D000723461346D346D34653472342034643470
:1008E000693464346E3427347434203468346134A9
:1008F00076346534203469346E3420346D34693490
:100900006E34643420345B345D342E3420345434FB
:1009100068346134743427347334203461342034BF
:100920007134753461347234743465347234203403
:10093000633465346E3474347534723479342E34DF
:10094000203459346F3475342034633461346E3458
:100950002034613473346B34203477346834613438
:1009600074342034683461347034703465346E34D7
:10097000653464342E342034203420342034203440
:1009800020344334653472347434613469346E34E1
:100990006C34793420346C346F34743473342034D0
:1009A0006F34663420347434683469346E34673498
:1009B00073342034683461347034703465346E3488
:1009C00065346434203474346834613474342034CD
:1009D00079346F347534203463346F3475346C3447
:1009E00064342034633461346C346C3420344134E6
:1009F00049342E3420344F347034743469346334C1
:100A0000820761346C342034633468346134723466
:100A10006134633474346534723420347234653430
:100A200063346F3467346E346934743469346F34CA
:100A30006E342C3420346D3461346334683469345A
:100A40006E34653473342034723465346134643404
:100A500069346E34673420346E346F3474342D341A
:100A600074346F346F342D346234613464346C34D4
:100A7000793420347034723469346E3474346534AB
:100A80006434203474346534783474342C34203431
:100A900061347234653420347034723465347434A3
:100AA00074347934203467346F346F3464342E34C2
:100AB0002034543468346534793420346F346E34DF
:100AC0006C34793420346D3461346B3465342034C3
:100AD000613420346D3469347334743461346B346C
:100AE0006534203465347634653472347934203496
:100AF00066346534773420346C3469346E3465344C
:100B000073342E34203442347534743420347434C5
:100B100068346F347334653420346134723465342E
:100B200020346E346F347434203475347334693443
:100B30006E3467342034763465347234793420343A
:100B400064346934663466346534723465346E34C2
:100B50007434203474346534633468346E346934E6
:100B600071347534653473342034743468346134CA
:100B70006E34203477346534723465342034613413
:100B80007634613469346C34613462346C34653485
:100B900020346234653466346F34723465342E34F4
:100BA0002034543468346534203463346F346D3405
:100BB0007034753474346534723420346934733469
:100BC000203461342034743468346F3475347334B1
:100BD00061346E3464342034743469346D34653473
:100BE000733420346634613473347434653472344D
:100BF0002C3420346F34723420346D346F347234BA
:100C0000820765342E3420344D346F347334743499
:100C10002034703465346F3470346C34653420346F
:100C200069346E34203441344934203461347234B0
:100C3000653420346534693474346834653472340E
:100C4000203477346F3472346B3469346E346734E3
:100C500020346F346E34203474347234793469340F
:100C60006E346734203474346F3420347234653415
:100C7000703472346534733465346E3474342034B3
:100C80006B346E346F3477346C3465346434673469
:100C90006534203469346E342034743468346534F7
:100CA000203466346F3472346D3420346F346634DB
:100CB00020346D3461347434683465346D34613497
:100CC00074346934633461346C3420346C346F347C
:100CD0006734693463342C342034773468346934AD
:100CE0006334683420347234653476346534613466
:100CF0006C3473342034613420346C346F34743485
:100D000020346F3466342034703472346F3462347B
:100D10006C3465346D3473342C342034623475345F
:100D20007434203464346F34653473346E3427344F
:100D3000743420346734693476346534203475343F
:100D40007334203467346F346F3464342034733434
:100D50006F346C347534743469346F346E34733476
:100D60002E3420345434683465342034723465347D
:100D7000613473346F346E34203449342034643435
:100D80006F346E34273474342034633461347234F5
:100D90006534203466346F34723420346C346F34EC
:100DA00067346934633420346934733420347434E0
:100DB00068346134743420344934203474346834F1
:100DC00069346E346B3420347434683465342034C0
:100DD0006B3469346E34643420346F3466342034B8
:100DE00072346534613473346F346E3469346E3404
:100DF000673420347434683461347434203470348B
:100E0000820765346F3470346C3465342034663452
:100E100069346E3464342034753473346534663424
:100E200075346C34203469346E3420347234653453
:100E300061346C3420346C34693466346534203465
:100E400069347334203472346534613473346F34EC
:100E50006E3469346E34673420346234793420342B
:100E600061346E3461346C346F34673479342E34C9
:100E70002034573468346134743420344934203495
:100E80006D34653461346E34203462347934203406
:100E900072346534613473346F346E3469346E3453
:100EA0006734203462347934203461346E346134F0
:100EB0006C346F34673479342034693473343A34A1
:100EC00020346F346634203463346F3475347234B4
:100ED00073346534203469346634203479346F34A3
:100EE00075342034733465346534203461342034EF
:100EF000703472346F3462346C3465346D34203441
:100F0000653478346134633474346C347934203427
:100F10006C3469346B34653420346F346E3465342A
:100F2000203479346F347534273476346534203482
:100F30007334653465346E34203462346534663419
:100F40006F34723465342C3420347434683465342E
:100F50006E34203479346F34753420346334613422
:100F60006E3420346A3475347334743420347234FB
:100F700065346D3465346D346234653472342034D4
:100F8000743468346534203473346F346C3475349D
:100F9000743469346F346E342E34203442347534F2
:100FA0007434203469346E342034723465346134DE
:100FB0006C3420346C3469346634653420347434D1
:100FC000683461347434203461346C346D346F347B
:100FD0007334743420346E3465347634653472344A
:100FE0002034683461347034703465346E34733452
:100FF0002E342034543468346534723465342034EB
:101000008207613472346534203461346C3477344F
:10101000613479347334203473346F346D3465340F
:1010200020347434683469346E3467347334203453
:1010300064346934663466346534723465346E34CD
:1010400074342E34203453346F34203479346F3474
:10105000753420346C346F346F346B342034613425
:101060007434203474346834693473342034703404
:1010700072346F3462346C3465346D3420346F34C0
:101080007234203473346934743475346134743494
:1010900069346F346E34203461346E3464342034F7
:1010A0007334613479342C342034773468346134C7
:1010B0007434203477346F3472346B346534643470
:1010C0002734203457346834613474342034643421
:1010D0006F34203449342034723465346D346534CF
:1010E0006D346234653472342034613462346F3468
:1010F00075347434203473346F346C34763469341A
:101100006E346734203461342034733469346D3480
:1011100069346C34613472342034703472346F3416
:1011200062346C3465346D34203469346E34203468
:1011300074346834653420347034613473347434F6
:101140002734203454346834613474342034773490
:101150006F347234643420342734733469346D341A
:1011600069346C3461347234273420346D3465341E
:1011700061346E34733420347434683461347434BC
:10118000203479346F347534273472346534203424
:101190006C346F346F346B3469346E34673420349C
:1011A00069346E34203479346F34753472342034B9
:1011B0007234653463346F3472346434733420347D
:1011C00066346F34723420346134203463346134D3
:1011D00073346534203474346834613474342034A6
:1011E000683461347334203473346F346D3465344F
:1011F0002034663465346134743475347234653443
:101200008207733420346F34723420347034723473
:101210006F347034653472347434693465347334C3
:1012200020346F3472342034663475346E34633451
:10123000743469346F346E3461346C3469347434AA
:10124000793420347434683461347434273473341A
:1012500020347434683465342034733461346D342C
:101260006534203461347334203474346834693420
:1012700073342034703472346F3462346C346534B7
:101280006D342C34203461346E34643420346F3443
:1012900074346834653472342034663465346134AF
:1012A000743475347234653473342034743468346F
:1012B00061347434203461347234653420346434DD
:1012C0006934663466346534723465346E3474342B
:1012D0002E3420345434683465346E3420347934F8
:1012E0006F34753420346834613476346534203496
:1012F00074346F342034613473346B342C342034C0
:101300007734683469346334683420346F34663435
:10131000203474346834653473346534203466346E
:101320006534613474347534723465347334203404
:10133000613472346534203469346D3470346F3400
:101340007234743461346E34743427342034493444
:101350006634203474346834653479342734723414
:10136000653420346E346F347434203469346D3411
:1013700070346F347234743461346E3474342C3499
:1013800020347434683465346E34203477346834EF
:101390006F342034633461347234653473342E34E2
:1013A0002034493466342034693474342734733437
:1013B0002034643469346634663465347234653498
:1013C0006E347434203469346E34203469346D34AE
:1013D00070346F347234743461346E347434203445
:1013E00066346534613474347534723465347334FE
:1013F0002C3420347434683465346E3420347934B9
:1014000082076F3475342034773461346E34743429
:10141000203474346F3420346734653474342034A9
:10142000613420347334753462342D3467346F344E
:1014300061346C342C342034773468346934633448
:101440006834203473346134793473342C34203468
:1014500068346F3477342034633461346E3420342C
:10146000493420346334683461346E34673465340D
:1014700020347434683469347334203470347234F2
:101480006F3462346C3465346D34203473346F34AB
:1014900020347434683461347434203469347434DE
:1014A0002034773469346C346C34203462346534DD
:1014B000743474346534723420346634693474346A
:1014C0002034743468346134743420346F346E34AE
:1014D00065342E34203453346F34203469347434FA
:1014E00020347334653465346D347334203474348B
:1014F0006F3420346D34653420347434683461348E
:10150000743420346D346F347334743420346F3455
:10151000663420347734683461347434203477345A
:1015200065342034633461346C346C3420342734B3
:10153000703472346F3462346C3465346D342034FA
:1015400073346F346C34763469346E3467342734D2
:101550002034693473342034663469346734753424
:10156000723469346E34673420346F3475347434B3
:10157000203468346F347734203474346F3420343A
:1015800066346934743420347434683465342034F7
:10159000703472346534733465346E34743420348A
:1015A0006334613473346534203474346F342034DC
:1015B00073346934743475346134743469346F3419
:1015C0006E34733420347734683469346334683467
:1015D000203479346F3475342734763465342034CC
:1015E0007334653465346E34203462346534663463
:1015F0006F34723465342C34203477346834693471
:1016000082076334683420346134723465346E3454
:10161000273474342034743468346534203473349B
:1016200061346D3465342E3420344D346134743477
:10163000683465346D3461347434693463346134CE
:101640006C3420346C346F34673469346334203440
:101650006934733420346E346F34203467346F341B
:101660006F34643420346134743420347434683416
:10167000693473342E342034203420342034203420
:101680002034493474342734733420347634653448
:1016900072347934203468346134723464342034E0
:1016A00074346F3420347234653470347234653479
:1016B000733465346E34743420346D34653474346A
:1016C00061342D346B346E346F3477346C3465345C
:1016D0006434673465342034613462346F34753473
:1016E0007434203477346834693463346834203493
:1016F00066346534613474347534723465347334EB
:1017000020346F34663420347434683469346E3471
:10171000673473342034613472346534203469346E
:101720006D3470346F347234743461346E347434A4
:101730002034623465346334613475347334653411
:101740002034693474342734733420346834613479
:1017500072346434203474346F3420346534783413
:1017600070347234653473347334203477346834AD
:1017700061347434203479346F34753420346D34EA
:10178000653461346E342034623479342034693401
:101790006D3470346F347234743461346E34743434
:1017A0002E3420345734683461347434203469342E
:1017B0007334203469346D3470346F34723474345B
:1017C00061346E3474342734203449347434203412
:1017D0006D34693467346834743420346234653469
:1017E000203473346F346D34653474346834693440
:1017F0006E34673420346C3469346B3465342C3483
:1018000082072034273469347434203477346934BF
:101810006C346C342034723465346434753463341D
:101820006534203479346F34753472342034613443
:101830006D346F3475346E34743420346F346634E0
:101840002034733465346134723463346834203442
:10185000743469346D34653427342E3420344D3477
:101860006F347334743420346C346F3467346934B7
:101870006334203469347334203464346F346E3408
:101880006534203469346E34203473346F346D34ED
:101890006534203461347734663475346C342034E4
:1018A0007434683469346E3467342034633461349A
:1018B0006C346C3465346434203474346834653486
:1018C00020346634693472347334743420346F34A1
:1018D0007234643465347234203470347234653454
:1018E000643469346334613474346534203463346B
:1018F00061346C34633475346C34753473342C3423
:10190000203469346634203479346F3475342734A4
:101910006C346C34203470346134723464346F3419
:101920006E3420347434683465342034653478344B
:101930007034723465347334733469346F346E3494
:101940002C34203477346834693463346834203478
:10195000683461347334203474346834653420342A
:1019600076346934723474347534653420347434A4
:1019700068346134743420347434683465347234B7
:10198000653427347334203473346F346D346534E4
:10199000203467346F346F346434203474346834E2
:1019A00065346F34723465346D347334203461348B
:1019B00062346F34753474342034693474342C34A4
:1019C00020346234753474342034693474342034EF
:1019D00068346134733420347434683465342034AA
:1019E000743472346F34753462346C34653420343A
:1019F0007434683461347434203469347434203479
:101A00008207633461346E34273474342034743480
:101A100061346C346B342034613462346F34753427
:101A20007434203469347434733420346F3477342C
:101A30006E342034643465346434753463347434FF
:101A40006934763465342034703472346F346334DE
:101A5000653473347334653473342E342034543421
:101A60006834613474342734733420347734683400
:101A700061347434203477346534203474346834F9
:101A800069346E346B3420347734683465346E34A2
:101A9000203479346F3475342034733461347934BC
:101AA0002C3420344934273476346534203462347D
:101AB000653465346E34203477346F3472346B346B
:101AC00069346E34673420346F346E3420347434A7
:101AD000683469347334203466346F34723420349B
:101AE0003134353420346D3469346E3475347434A3
:101AF00065347334203461346E34643420344934B2
:101B0000203468346134763465346E342734743468
:101B1000203467346F347434743465346E34203454
:101B200061346E34793477346834653472346534B2
:101B30002C342034773465346C346C342034743471
:101B40006834613474342734733420346E346F3421
:101B50007434203474346834653420346D346F3414
:101B600073347434203469346D3470346F347234A7
:101B7000743461346E34743420346B3469346E34AC
:101B8000643420346F3466342034733465346C34F8
:101B900066342D346D346F346E34693474346F347C
:101BA000723469346E34673420347334753470346D
:101BB0006534723476346934733469346E3467341E
:101BC00020347434683465347234653420346334BA
:101BD0006F3475346C3464342034623465342E349C
:101BE0002034423475347434203449342734763404
:101BF000653420346E346534763465347234203480
:101C000082077334653465346E3420347434683438
:101C10006134743420346834613470347034653421
:101C20006E3469346E3467342E3420344E346F345D
:101C30007734203479346F3475342034633461342C
:101C40006E34203473346F347234743420346F340F
:101C500066342034733469346D3475346C346134D3
:101C60007434653420346934743420346234793403
:101C70002034613473347334693467346E346934B6
:101C80006E3467342034733463346F3472346534A3
:101C90007334203474346F34203468346F347734C0
:101CA00020346C346F346E346734203479346F34BC
:101CB00075342734763465342034733465346134B4
:101CC000723463346834653464342034703461347D
:101CD0007234743420346F3466342034743468348D
:101CE00065342034743472346534653420346F3490
:101CF0007234203473346F346D3465347434683422
:101D000069346E3467342C34203475347334693458
:101D10006E3467342034743468346534203461346C
:101D20006C34703468346134203462346534743413
:101D300061342034683465347534723469347334F2
:101D4000743469346334203466346F34723420342C
:101D500063346F346E34743472346F346C346C3476
:101D600069346E34673420347334653461347234CA
:101D70006334683465347334203427345B345D3421
:101D8000203469346E3463346934643465346E34B9
:101D9000743461346C346C3479342C3420347434BD
:101DA00068346134743420347734613473342034CB
:101DB00069346E34763465346E3474346534643426
:101DC00020346234793420344134723474346834C9
:101DD000753472342034533461346D347534653461
:101DE0006C34203469346E3420347434683465348F
:101DF000203463346834653463346B34653472344E
:101E0000820773342034703472346F346734723420
:101E100061346D342C34203461346E3464342034B5
:101E20007234653469346E34763465346E347434A7
:101E30006534643420346234793420344A346F3465
:101E400068346E3420344D34633443346134723436
:101E500074346834793420346234653463346134E2
:101E60007534733465342034533461346D347534CF
:101E700065346C342034683461346434203465341F
:101E8000783470346C34613469346E34653464345D
:101E9000203469347434203473346F342034623421
:101EA000613464346C3479342E342034203420345A
:101EB0002034203420344E34653475347234613427
:101EC0006C3420346E346534743473342C342034E0
:101ED00079346F34753420346D3469346734683440
:101EE000743420347434683469346E346B342C3474
:101EF0002034683461347634653420347434683482
:101F0000613474342034663475347A347A347934F4
:101F100020347134753461346C34693474347934F8
:101F20002034743468346134743420346934663451
:101F30002034743477346F34203474346834693422
:101F40006E346734733420346134723465346E34E3
:101F50002734743420346534783461346334743411
:101F60006C347934203474346834653420347334F8
:101F700061346D3465342C342034773465346C34FA
:101F80006C342034693474342034773469346C34DC
:101F90006C3420347234653463346F3467346E3497
:101FA00069347A34653420346934743420346134CB
:101FB0006E3479347734613479342E3420345334A8
:101FC0006F3420347434683465347934273472348F
:101FD00065342034663469346E3465342E342034EC
:101FE00042347534743420347434683465342034A5
:101FF000743472346F34753462346C346534203424
:102000008207773469347434683420346E3465342C
:102010007534723461346C3420346E346534743405
:102020007334203469347334203474346834613444
:102030007434203474346834653479342734723419
:102040006534203463346F346D3470346C346534EB
:10205000743465346C347934203469346E346334C8
:1020600061347034613462346C34653420346F34DC
:102070006634203461346E347934203472346534FB
:1020800066346C3465346334743469346F346E345C
:102090002E34203449346634203470346134723440
:1020A000743420346F346634203479346F347534AA
:1020B000723420346D3461346334683469346E347E
:1020C00065342C3420346C3469346B3465342034FA
:1020D00074346834653420344F34433452342034FB
:1020E00070346134723474342C3420347534733465
:1020F000653473342034613420346E34653475347F
:10210000723461346C3420346E3465347434203469
:1021100074346F34203464346934733474346934FF
:102120006E346734753469347334683420346234FF
:10213000653474347734653465346E3420346134F6
:1021400020345034203461346E34643420346134AB
:102150002034623472346F346B3465346E3420341E
:1021600052342C3420347434683465347234653419
:102170002734733420346E346F3420347734613430
:1021800079342034743468346534203472346534DE
:102190007334743420346F346634203474346834C7
:1021A00065342034703472346F346734723461347F
:1021B0006D342034633461346E3420346B346E34C7
:1021C0006F34773420342D34203469347434273418
:1021D000733420347634653472347934203468347E
:1021E00061347234643420342D34203474346F34C8
:1021F0002034643469347334613473347334653433
:1022000082076D3462346C3465342034743468343D
:1022100065342034683475346734653420346E3462
:1022200075346D3462346534723420346F346634FE
:1022300020346C346934743474346C346534203430
:102240006E3475346D3462346534723473342034D2
:10225000683469346434643465346E3420346934E9
:102260006E34203474346834653420346E3465340C
:102270007534723461346C3420346E3465347434A3
:102280002034703472346F346734723461346D3496
:10229000203461346E3464342034663469346734F5
:1022A00075347234653420346F34753474342034AA
:1022B000773468346134743420347734613473345F
:1022C0002034743468346534203469346D347034A7
:1022D0006F347234743461346E3474342034663440
:1022E0006534613474347534723465342034743434
:1022F000683461347434203461346C346C346F3439
:10230000773465346434203469347434203474345C
:102310006F3420346D3461346B3465342034693467
:1023200074347334203464346934733474346934E9
:102330006E346334743469346F346E342E34203424
:1023400049346E3420347034723469346E346334FA
:10235000693470346C3465342C34203479346F34FF
:102360007534203463346F3475346C346434203401
:1023700064346F34203474346834613474342C34ED
:102380002034623475347434203449342034643455
:102390006F346E342734743420346B346E346F34BD
:1023A000773420346F346634203461346E347934B9
:1023B00062346F3464347934203469346E34633475
:1023C0006F34723470346F347234613474346934FD
:1023D0006E34673420346E3465347534723461344D
:1023E0006C3420346E346534743473342034773470
:1023F00069347434683420346F3474346834653428
:102400008207723420346B3469346E34643473342C
:1024100020346F346634203472346534613473345C
:102420006F346E3469346E346734203477346934F1
:1024300074346834203461346E3479342034733425
:10244000753463346834203469346E3474346534DC
:10245000723466346134633465342E34203420346D
:102460002034203420342034473465346E346534CD
:10247000743469346334203461346C3467346F34B9
:1024800072346934743468346D3473342034613494
:1024900072346534203476346534723479342034BF
:1024A00070346F34703475346C34613472342E345B
:1024B000203449342034633461346E342734743426
:1024C00020346634693467347534723465342034AA
:1024D0006F3475347434203477346834793420346C
:1024E00062346534633461347534733465342C3448
:1024F000203469346E34203461346C346D346F347C
:1025000073347434203461346C346C342034723459
:1025100065347334703465346334743473342C34F8
:10252000203474346834653479342034613472343E
:102530006534203477346F34723473346534203426
:102540007434683461346E342034743468346534DF
:1025500020347434723461346434693474346934CA
:102560006F346E3461346C342034613472347434BA
:102570006934663469346334693461346C342034CA
:1025800069346E34743465346C346C346934673453
:1025900065346E346334653420346834653475349E
:1025A000723469347334743469346334203473346A
:1025B000653461347234633468342E3420345734D3
:1025C0006834613474342034673465346E3465346F
:1025D000743469346334203461346C3467346F3458
:1025E00072346934743468346D3473342034643430
:1025F0006F34203469347334203475347334653463
:1026000082072034743468346534203463346F3482
:102610006D347034753474346534723473342034EA
:10262000743465346E342034743468346F347534E3
:10263000733461346E3464342034743469346D34EA
:1026400065347334203466346134733474346534DF
:102650007234203474346F3420346D3461346B340C
:10266000653420346C346F347434733420346F34F4
:10267000663420347434683469346E3467347334A7
:10268000203474346F3420347434723479342E34FA
:1026900020345434683465346E34203479346F34E3
:1026A00075342034683461347634653420346134D0
:1026B000203463346F346D34703465347434693469
:1026C000743469346F346E34203473346F3420348E
:1026D0007434683461347434203474346834653448
:1026E00020346F346E346534733420347434683479
:1026F0006134743420347334753463346334653432
:10270000653464342034623465347434743465342C
:102710007234203469346E34203473346F346C3442
:10272000763469346E346734203473346F346D34E6
:1027300065342034703472346F3462346C346534F0
:102740006D342C3420346F34723420346634613468
:1027500073347434653472342C34203472346534F8
:1027600070346C34613463346534203474346834C8
:10277000653420346F346E346534733420347434EB
:10278000683461347434203474346F346F346B348F
:1027900020346C346F346E346734653472342E34C4
:1027A000203448346F347734653476346534723489
:1027B0002C34203469346E342034723465346134FE
:1027C0006C3420346C3469346634653420344934D4
:1027D00020347434683469346E346B342034743487
:1027E0006834613474342734733420347434683476
:1027F00065342034773472346F346E346734203467
:1028000082077434683469346E3467342E3420346B
:1028100041346E3464342034653476346F346C342F
:102820007534743469346F346E34203469347434DC
:10283000733465346C346634203469347334203432
:1028400073346334723465347734793420346134CA
:1028500062346F34753474342034743468346934B9
:1028600073342E342034543468346534203469345D
:102870006D3470346F347234743461346E34743443
:1028800020347434683469346E34673420346934E5
:10289000733420346E346F347434203474346F34B1
:1028A0002034723465346D3465346D34623465348B
:1028B00072342034773468346134743420346C34A6
:1028C00065346434203474346F3420347334753494
:1028D0006334633465347334733420342D342034DA
:1028E0006F3472342034683461346C34663420348C
:1028F0006F3466342034743468346534203474346E
:10290000683469346E346734203479346F34753404
:102910002034733468346F3475346C346434203448
:10292000723465346D3465346D34623465347234B8
:102930002034693473342034773468346134743427
:10294000203477346F3472346B34653464342E340D
:10295000203454346834653420346F34743468342B
:10296000653472342034683461346C346634203415
:1029700069347334203477346834613474342034E7
:1029800061347234653420347434683465342034EE
:1029900031343034303420346D346F347334743423
:1029A000203463346F346D346D346F346E342034BE
:1029B0006D3469347334743461346B346534733416
:1029C0002E3420345734683465346E34203449341E
:1029D0002034773461347334203474347234613485
:1029E00069346E3469346E346734203466346F343D
:1029F0007234203461342034503468342E344434FA
:102A000082072E34203469346E3420346D346134BE
:102A10007434683465346D346134743469346334C7
:102A200073342C342034653476346534723479341C
:102A30006F346E346534203475346E3464346534E8
:102A40007234733474346F346F34643420347434B7
:102A5000683461347434203469346E34203474340E
:102A60006834653420346D346134743468346534CA
:102A70006D3461347434693463347334203477349E
:102A80006F3472346C3464342E34203449346634F8
:102A9000203479346F3475342034683465346134CB
:102AA00072342034613420347434683465346F34C3
:102AB000723465346D342C342034743468346534A5
:102AC0006E34203479346F347534203461346C348E
:102AD00073346F342034773461346E34743420347A
:102AE00074346F3420346B346E346F347734203464
:102AF00074346834653420343134303420346D34E7
:102B00006F347334743420346C3469346B3465340A
:102B10006C3479342034773461347934733420342C
:102B20007434683461347434203469347434203437
:102B300077346F346E342734743420346134703415
:102B400070346C3479342E3420344F34663420346D
:102B500063346F34753472347334653420346134C3
:102B600020347434683465346F34723465346D34B1
:102B7000203469347334203461346C3477346134F4
:102B800079347334203474347234753465342034B9
:102B900069346634203474346834653420346334E2
:102BA0006F346E3464346934743469346F346E3421
:102BB00073342034613472346534203474347234A4
:102BC000753465342C3420346234753474342034D4
:102BD000693466342034743468346934733420348E
:102BE000773461347334203474347234753465341A
:102BF000203466346F3472342034613420346334CA
:102C000082076F346D34703461346334743420342B
:102C10007334653474342C34203469347334203480
:102C200069347434203461346C3473346F34203438
:102C30007434723475346534203466346F347234CD
:102C40002034613420346C346F34633461346C3438
:102C50006C347934203463346F346D3470346134BF
:102C60006334743420347334653474342C34203435
:102C700061346E34643420346934663420346E3404
:102C80006F34743420347734683465347234653486
:102C90002034693473342034743468346534203417
:102CA00063346F3475346E34743465347234203464
:102CB0006534783461346D3470346C346534203468
:102CC00074346834613474342034733468346F3449
:102CD000773473342034773468347934203474345E
:102CE00068346134743420346B3469346E34643441
:102CF00020346F3466342034723465346134733474
:102D00006F346E3469346E34673420346234723414
:102D1000653461346B347334203464346F34773405
:102D20006E342E34203420342034203420342034A7
:102D300057346834613474342034653476346F34F5
:102D40006C347534743469346F346E3420346134C7
:102D50006E3464342034673465346E3465347434CE
:102D600069346334203461346C3467346F347234C2
:102D70006934743468346D347334203464346F349B
:102D80006E3427347434203464346F3420342D345A
:102D9000743465346C346C3420346D3465342034D0
:102DA000693466342034493427346D342034773420
:102DB00072346F346E3467342D3420346934733494
:102DC00020346B34653465347034203461346E34AF
:102DD000793420347234653463346F34723464343B
:102DE00020346F34663420347734683479342034B6
:102DF00061346C346C342034743468346F3473341C
:102E000082076534203470346F346F347234203468
:102E10006C346F34733465347234733420346434F6
:102E20006934653464342E342034493466342034B3
:102E300069347434203477346534723465346E34D4
:102E400027347434203466346F347234203461345F
:102E5000203461346C346D346F3473347434203402
:102E6000723465346C346934673469346F34753462
:102E700073342C34203473347534703465347234C4
:102E8000733474346934743469346F34753473341E
:102E9000203477346F347234733468346934703466
:102EA00020346F346634203469346D3469347434BA
:102EB0006134743469346E34673420346734653473
:102EC0006E34653474346934633473342034773445
:102ED0006834693463346834203474346F346F3444
:102EE0006B34203436343034303420346D3469342B
:102EF0006C346C3469346F346E3420347934653416
:102F00006134723473342C342034773465346C3447
:102F10006C342C3420345B345D342034343430341D
:102F2000303420346D3469346C346C3469346F342B
:102F30006E342034793465346134723473342C3413
:102F4000203474346F34203467346534743420345E
:102F500074346F34203475347334203466347234EE
:102F60006F346D34203466346934733468342E34ED
:102F70002E342E34203459346F3475342034633475
:102F80006F3475346C346434203473346134793480
:102F90002C34203462346F3479342C342034693446
:102FA000663420345B34773465345D3420346834DF
:102FB0006134643420346B346534703474342034B8
:102FC00073346F346D346534203472346534633453
:102FD0006F3472346434733420346F346634203484
:102FE00077346834613474342034773465346E3423
:102FF00074342034773472346F346E346734203450
:10300000820761346E346434203473347034653430
:103010006E3474342034613462346F3475347434F3
:1030200020347434683465342034733461346D343E
:103030006534203461346D346F3475346E347434D7
:1030400020346F346634203465346E346534723421
:103050006734793420346F346E3420346C34653402
:10306000613472346E3469346E34673420346834B9
:103070006F347734203474346F34203461347634D0
:103080006F34693464342034623475346734733493
:103090002C3420346D346134793462346534203416
:1030A00069347434203477346F3475346C34643458
:1030B00020346834613476346534203474346134B7
:1030C0006B3465346E3420346F346E346C34793440
:1030D0002034353420346D3469346C346C346934C4
:1030E0006F346E342034793465346134723473341F
:1030F000203469346E347334743465346134643428
:1031000020346F346634203434343034303427344F
:103110002034573468346F3420346B346E346F3459
:103120007734733427342034423475347434203483
:10313000493420347434683469346E346B34203448
:10314000703465346F3470346C34653420347734C3
:1031500068346F3420346C346F346F346B34203403
:10316000613474342034673465346E3465347434B7
:1031700069346334203461346C3467346F347234AE
:103180006934743468346D347334203461346E348B
:103190006434203464346F346E342734743420340F
:1031A0006E346F3474346934633465342034743469
:1031B0006834613474342034743468346534793458
:1031C000203464346F346E342734743420347334D0
:1031D0006F346C3476346534203461346E34793431
:1031E0002034703472346F3462346C3465346D342E
:1031F0007334203474346834613474342034723459
:10320000820765347134753469347234653420341E
:1032100064346534653470342034743468346F3405
:1032200075346734683474342034733468346F34DC
:1032300075346C3464342E342E342E3420344934B6
:10324000203463346F3475346C3464342034673420
:103250006F3420346F346E34203461346C346C3409
:1032600020346434613479342734203420342034D9
:1032700020342034203454346834653420346F349E
:10328000743468346534723420345B3470346F3491
:1032900069346E3474345D342C34203466346934CB
:1032A0006E3461346C346C3479342C3420346934A9
:1032B000733420346F346E3465342034743468349D
:1032C000613474342034773469346C346C34203491
:1032D00069347234723469347434613474346534EA
:1032E00020346D346F347234653420347034653476
:1032F0006F3470346C3465342E34203449342034C7
:1033000064346F346E342734743420346C3469344C
:103310006B34653420345B347434683465345D3424
:10332000203475347334653420346F34663420347B
:103330007334743461347434693473347434693478
:10334000633461346C3420346D34653474346834DF
:103350006F3464347334203466346F347234203400
:103360006C346534613472346E3469346E3467346D
:10337000203474346F3420346434693473347434D6
:1033800069346E3467347534693473346834203486
:103390006234653474347734653465346E34203483
:1033A00061346D3462346934673475346F34753424
:1033B0007334203477346F3472346434733420348B
:1033C00069346E3420346C3461346E34673475344F
:1033D00061346734653420346F34723420346C3493
:1033E0006534613472346E3469346E346734203439
:1033F0006234653468346134763469346F347234DD
:103400008207203462347934203463346834613480
:103410006E34673469346E346734203470347234F7
:103420006F3462346134623469346C3469347434B6
:10343000693465347334203461346E346434203438
:1034400073346F34203466346F34723474346834B7
:103450002E34203454346834653420347234653466
:10346000613473346F346E342034693473342034EF
:1034700074346834613474342034613467346134B2
:1034800069346E342C342034693466342034743416
:103490006834653420346B346E346F3477346C3474
:1034A0006534643467346534203479346F3475346A
:1034B0002034733474346F34723465342034693496
:1034C00073342034733474346F3472346534643438
:1034D0002034613473342034763465346334743486
:1034E0006F347234733420346F34663420346E3465
:1034F00075346D3462346534723473342C34203452
:103500007434683465346E3420347434683461340F
:1035100074342034703472346F34673472346134EC
:103520006D3420346D346934673468347434203435
:1035300062346534203467346F346F3464342E342D
:1035400020344D346934673468347434203467343B
:1035500065347434203439343534253420346F34B0
:1035600066342034773468346134743420346934F8
:1035700074342734733420346634613463346534EE
:103580006434203477346934743468342E3420340D
:1035900042347534743420347434683465342034DF
:1035A0006F347434683465347234203435342534DF
:1035B00020346D34693467346834743420346234B0
:1035C000653420347334743475346634663420348E
:1035D0007434683461347434203472346534713432
:1035E00075346934723465347334203473346F3411
:1035F0006D34653420347234653466346C3465342B
:1036000082076334743469346F346E342034613427
:103610006E34643420346434653465347034653415
:1036200072342034743468346F34753467346834D9
:1036300074342034613462346F347534743420341B
:1036400074346834653420346E34613474347534C1
:103650007234653420346F34663420347434683402
:1036600065342034703472346F3462346C346534B1
:103670006D342E3420344E346F3477342034693432
:103680006634203479346F347534723420346334C2
:103690006F346E3463346C347534733469346F341E
:1036A0006E347334203461347234653420346534BC
:1036B00078347034723465347334733465346434FC
:1036C00020346134733420346D34653461346E34A5
:1036D00069346E3467346C34653473347334203435
:1036E00076346534633474346F3472347334203414
:1036F00069346E34203473346F346D34653420345F
:1037000068346934673468342034643469346D341F
:1037100065346E34733469346F346E3461346C34B0
:10372000203476346534633474346F347234203426
:10373000733470346134633465342C34203474341D
:1037400068346534723465342734733420346E340D
:103750006F342034773461347934203479346F34E1
:1037600075342034633461346E34203474346834F6
:1037700069346E346B342034613462346F347534A0
:103780007434203474346834613474342C34203408
:1037900061346E34643420346E346F3420347734C2
:1037A00061347934203466346F34723420347434A4
:1037B000683465342034703472346F346734723452
:1037C00061346D342E34203453346F3420347734E4
:1037D000683465346E34653476346534723420343C
:1037E00049342034733465346534203461342034F2
:1037F0006E3475346D346234653472342034693417
:1038000082076E342034613420346C346534613482
:1038100072346E3469346E346734203470347234E8
:103820006F346734723461346D342C34203449344D
:10383000203473346134793420347434683461341E
:10384000743420346D34693467346834743420340B
:1038500062346534203475347334653466347534B9
:103860006C3420346E346F3477342C34203462342A
:103870007534743420346934743427347334203408
:1038800061346E34203469346E34743465346C348D
:103890006C34653463347434753461346C3420347E
:1038A00064346534613464342D3465346E34643486
:1038B0002E342034543468346534203473346934FD
:1038C0006D3470346C34653473347434203477342C
:1038D00061347934203474346F3420347034753466
:1038E00074342034693474342034693473342034AB
:1038F00069346634203479346F3475342034733449
:1039000065346534203431343234203461347334D6
:1039100020347434683465342034733475346D3431
:1039200020346F346634203473346F346D3465342E
:103930007434683469346E3467342C342034793408
:103940006F34753427347634653420346C346F34F6
:10395000733474342034613420346C346F347434F0
:1039600020346F346634203469346E3466346F34F6
:1039700072346D346134743469346F346E342E347F
:1039800020344234653463346134753473346534BF
:1039900020346934743420346D34693467346834C5
:1039A00074342034683461347634653420346234BD
:1039B000653465346E3420342834333420342B3469
:1039C00020343934293420346F347234203428348C
:1039D000343420342B3420343834293420346F34B8
:1039E000723420342834353420342B3420343734A6
:1039F0002934203461346E346434203473346F34A9
:103A0000820720346F346E342E34203457346834B7
:103A100065346E34653476346534723420347934E8
:103A20006F34753420347334653465342034613434
:103A300020346E3475346D346234653472342C3411
:103A4000203479346F3475342034733468346F34EF
:103A500075346C34643420347334613479342034F4
:103A6000273468346F3477342034733461346434E9
:103A70002E342734203449347434273473342034BA
:103A800074346834653420346D346F347334743472
:103A900020346F34703461347134753465342034BB
:103AA0007434683469346E346734203469346E3465
:103AB0002034743468346534203477346F3472348D
:103AC0006C3464342E3420345434683461347434A7
:103AD00027347334203477346834793420346934AB
:103AE000743427347334203473346F342034753491
:103AF00073346534663475346C342E342034423477
:103B00006534633461347534733465342034693416
:103B10006634203479346F34753427347234653424
:103B2000203463346F3475346E34743469346E34D5
:103B3000673420347434683469346E3467347334D1
:103B40002C34203479346F347534203464346F3439
:103B50006E34273474342034633461347234653401
:103B600020346934663420347434683465347934EC
:103B700027347234653420346434653461346434F9
:103B80002034703465346F3470346C3465342034D0
:103B90006F3472342034623472346F346B34653471
:103BA0006E34203470346C3461347434653473345E
:103BB00020342D3420343634203464346534613478
:103BC000643420347434683469346E346734733444
:103BD000203461346E346434203474346834613495
:103BE0007434203473346134793473342034693458
:103BF0007434203461346C346C342E3420342034EA
:02400E00723FFF
:00000001FF
