:020000040000fa
:08000000407f04000100000034
:020000040000fa
:1002000000000000000000000000000000000000ee
:1002100000000000000000000000000000000000de
:1002200000000000000000000000000000000000ce
:1002300000000000000000000000000000000000be
:020000040002f8
:10fe8000af88200080792200000188000000000077
:10fe900000002800b010880000402000c01088003a
:10fea000f0002000f01088000480200031000700de
:10feb000114cb1003c003a0012c7b300d2108800c8
:10fec000b2c4b300d21088008006eb00048020008a
:10fed00046002000270007000603e900fdff3a0066
:10fee0000c4080001340800093018800160620001b
:10fef000200007000603e900fdff3a000d00e000c6
:10ff000003003200e2c4b300d2108800eeff3700d5
:10ff1000000ebb00100424000060fe000a00070071
:10ff2000448020001f00080003000000345ebb0076
:10ff30003456bb0034cebb000c86e8001000240011
:10ff400001000700deff3700003b8800500520005d
:10ff5000303b8800a00a2000303b880061e7a80001
:10ff60000000000000000000000000000000000091
:10ff700000000600ea0320000b0020001802ae007b
:10ff800004003700e1108000015a78008dc640005f
:10ff9000000006000060fe008b05e900f7ff3a0054
:10ffa0000a05e900f4ff3a001622ef00b0ff37001f
:0cffb0004d650000736100006a21000034
:020000040000fa
:0200000401f009
:04000000f7ff000006
:020000040000fa
:0200000401f009
:04000400ff7f00007a
:020000040000fa
:0200000401f009
:040008007fff000076
:020000040000fa
:0200000401f009
:04001400ffff0000ea
:020000040000fa
:10000800e67f0100e67f0100e67f0100e67f010050
:10001800e67f0100e67f0100e67f0100e67f010040
:10002800e67f0100e67f0100e67f0100e67f010030
:10003800e67f0100e67f0100e67f0100e67f010020
:10004800e67f0100e67f0100e67f0100e67f010010
:10005800e67f0100e67f0100e67f0100e67f010000
:10006800e67f0100e67f0100e67f0100e67f0100f0
:10007800e67f0100e67f0100e67f0100e67f0100e0
:10008800e67f0100e67f0100e67f0100e67f0100d0
:10009800e67f0100e67f0100e67f0100e67f0100c0
:1000a800e67f0100e67f0100e67f0100e67f0100b0
:1000b800e67f0100e67f0100e67f0100e67f0100a0
:1000c800e67f0100e67f0100e67f0100e67f010090
:1000d800e67f0100e67f0100e67f0100e67f010080
:1000e800e67f0100e67f0100e67f0100e67f010070
:0800f800e67f0100e67f010034
:020000040000fa
:10010800e67f0100e67f0100e67f0100e67f01004f
:10011800e67f0100e67f0100e67f0100e67f01003f
:10012800e67f0100e67f0100e67f0100e67f01002f
:10013800e67f0100e67f0100e67f0100e67f01001f
:10014800e67f0100e67f0100e67f0100e67f01000f
:10015800e67f0100e67f0100e67f0100e67f0100ff
:10016800e67f0100e67f0100e67f0100e67f0100ef
:10017800e67f0100e67f0100e67f0100e67f0100df
:10018800e67f0100e67f0100e67f0100e67f0100cf
:10019800e67f0100e67f0100e67f0100e67f0100bf
:1001a800e67f0100e67f0100e67f0100e67f0100af
:1001b800e67f0100e67f0100e67f0100e67f01009f
:1001c800e67f0100e67f0100e67f0100e67f01008f
:1001d800e67f0100e67f0100e67f0100e67f01007f
:1001e800e67f0100e67f0100e67f0100e67f01006f
:0801f800e67f0100e67f010033
:020000040000fa
:020000040002f8
:10ffbc00000800008a0000000000000000000000a3
:020000040000fa
:020000040002f8
:04ffcc000000fe0033
:00000001FF
