:020000040000fa
:08000000401f04000000000095
:020000040000fa
:1002000000000000000000000000000000000000ee
:1002100000000000000000000000000000000000de
:1002200000000000000000000000000000000000ce
:1002300000000000000000000000000000000000be
:103e8000cf882000609f20000001880000002800eb
:103e9000601088000040200070108800f0002000b2
:103ea000a01088000480200034000700114cb100ed
:103eb0003f003a0002c7b30082108800b2c4b300ca
:103ec000821088008006eb0004802000460020005d
:103ed0002a0007000603e900fdff3a000c408000bd
:103ee000134080009301880016062000230007007d
:103ef0000603e900fdff3a000d00e0000300320078
:103f0000e2c4b30082108800eeff3700000ebb0051
:103f1000100424000060fe000a0007004480200016
:103f20001f00080003000000345ebb003456bb00d5
:103f300034cebb000c86e80010002400010007000e
:103f4000deff3700003b880050052000303b880032
:103f5000a00a2000303b880061e7a80000000000b4
:103f6000000000001027090000000000000006000b
:103f700041e7a9008060a9000000fe005a0020006f
:103f80000b0020000e02ae000400370091108000ec
:103f9000015a78008dc64000000006000060fe0057
:103fa0008b05e900f7ff3a000a05e900f4ff3a0043
:083fb0000c22ef00aeff370008
:020000040000fa
:103fb800000800008c000000000000000000000065
:020000040000fa
:0200000401f009
:04000000f2ff00000b
:020000040000fa
:0200000401f009
:04000400ff7f00007a
:020000040000fa
:0200000401f009
:040008007fff000076
:020000040000fa
:0200000401f009
:04001400ffff0000ea
:020000040000fa
:10000800e41f0000e41f0000b81f0000e41f000008
:10001800e41f0000e41f0000e41f0000e41f0000cc
:10002800e41f0000e41f0000e41f0000e41f0000bc
:10003800e41f0000e41f0000e41f0000e41f0000ac
:10004800e41f0000e41f0000e41f0000e41f00009c
:10005800e41f0000e41f0000e41f0000e41f00008c
:10006800e41f0000e41f0000e41f0000e41f00007c
:10007800e41f0000e41f0000e41f0000e41f00006c
:10008800e41f0000e41f0000e41f0000e41f00005c
:10009800e41f0000e41f0000e41f0000e41f00004c
:1000a800e41f0000e41f0000e41f0000e41f00003c
:1000b800e41f0000e41f0000e41f0000e41f00002c
:1000c800e41f0000e41f0000e41f0000e41f00001c
:1000d800e41f0000e41f0000e41f0000e41f00000c
:1000e800e41f0000e41f0000e41f0000e41f0000fc
:0800f800e41f0000e41f0000fa
:020000040000fa
:10010800e41f0000e41f0000b81f0000e41f000007
:10011800e41f0000e41f0000e41f0000e41f0000cb
:10012800e41f0000e41f0000e41f0000e41f0000bb
:10013800e41f0000e41f0000e41f0000e41f0000ab
:10014800e41f0000e41f0000e41f0000e41f00009b
:10015800e41f0000e41f0000e41f0000e41f00008b
:10016800e41f0000e41f0000e41f0000e41f00007b
:10017800e41f0000e41f0000e41f0000e41f00006b
:10018800e41f0000e41f0000e41f0000e41f00005b
:10019800e41f0000e41f0000e41f0000e41f00004b
:1001a800e41f0000e41f0000e41f0000e41f00003b
:1001b800e41f0000e41f0000e41f0000e41f00002b
:1001c800e41f0000e41f0000e41f0000e41f00001b
:1001d800e41f0000e41f0000e41f0000e41f00000b
:1001e800e41f0000e41f0000e41f0000e41f0000fb
:0801f800e41f0000e41f0000f9
:020000040000fa
:043fc8000000fe00f7
:00000001FF
