:020000040000fa
:08000000403f04000000000075
:020000040000fa
:1002000000000000000000000000000000000000ee
:1002100000000000000000000000000000000000de
:1002200000000000000000000000000000000000ce
:1002300000000000000000000000000000000000be
:107e8000cf88200080ff2000000188000000000053
:107e90007007a80000002800601088000040200043
:107ea0007010880050002000a0108800048020007e
:107eb0002f000700114cb1003a003a0032c7b3005e
:107ec00082108800b2c4b300821088008006eb00e4
:107ed0000480200046002000250007000603e9007a
:107ee000fdff3a000c4080001340800093018800a1
:107ef000160620001e0007000603e900fdff3a00f9
:107f00000d00e00003003200e2c4b30082108800dc
:107f1000eeff3700000ebb00100424000060fe00de
:107f20000a000700448020001f0008000300000032
:107f3000345ebb003456bb0034cebb000c86e80078
:107f40001000240001000700deff3700003b88001e
:107f500050052000303b8800a00a2000303b8800fc
:107f600061e7a8000000000000000000000006001b
:107f70004a0020000b0020000e02ae000400370073
:107f800091108000015a78008dc640000000060064
:107f90000060fe008b05e900f7ff3a000a05e900e2
:0c7fa000f4ff3a000c22ef00b1ff3700a4
:020000040000fa
:0200000401f009
:04000000fff9000004
:020000040000fa
:0200000401f009
:04000400ff7f00007a
:020000040000fa
:0200000401f009
:040008007f7f0000f6
:020000040000fa
:0200000401f009
:04001400ffff0000ea
:020000040000fa
:10000800de3f0000de3f0000de3f0000de3f000074
:10001800de3f0000de3f0000de3f0000de3f000064
:10002800de3f0000de3f0000de3f0000de3f000054
:10003800de3f0000de3f0000de3f0000de3f000044
:10004800de3f0000de3f0000de3f0000de3f000034
:10005800de3f0000de3f0000de3f0000de3f000024
:10006800de3f0000de3f0000de3f0000de3f000014
:10007800de3f0000de3f0000de3f0000de3f000004
:10008800de3f0000de3f0000de3f0000de3f0000f4
:10009800de3f0000de3f0000de3f0000de3f0000e4
:1000a800de3f0000de3f0000de3f0000de3f0000d4
:1000b800de3f0000de3f0000de3f0000de3f0000c4
:1000c800de3f0000de3f0000de3f0000de3f0000b4
:1000d800de3f0000de3f0000de3f0000de3f0000a4
:1000e800de3f0000de3f0000de3f0000de3f000094
:0800f800de3f0000de3f0000c6
:020000040000fa
:10010800de3f0000de3f0000de3f0000de3f000073
:10011800de3f0000de3f0000de3f0000de3f000063
:10012800de3f0000de3f0000de3f0000de3f000053
:10013800de3f0000de3f0000de3f0000de3f000043
:10014800de3f0000de3f0000de3f0000de3f000033
:10015800de3f0000de3f0000de3f0000de3f000023
:10016800de3f0000de3f0000de3f0000de3f000013
:10017800de3f0000de3f0000de3f0000de3f000003
:10018800de3f0000de3f0000de3f0000de3f0000f3
:10019800de3f0000de3f0000de3f0000de3f0000e3
:1001a800de3f0000de3f0000de3f0000de3f0000d3
:1001b800de3f0000de3f0000de3f0000de3f0000c3
:1001c800de3f0000de3f0000de3f0000de3f0000b3
:1001d800de3f0000de3f0000de3f0000de3f0000a3
:1001e800de3f0000de3f0000de3f0000de3f000093
:0801f800de3f0000de3f0000c5
:020000040000fa
:107fac00000800008c000000000000000000000031
:020000040000fa
:047fbc000000fe00c3
:00000001FF
