:020000040000FA
:10000000A0EF7FF0FFFFFFFFFACF01F0FBCF02F080
:10001000E9CF03F0EACF04F0E1CF05F0E2CF06F03C
:10002000D9CF07F0DACF08F0F3CF09F0F4CF0AF018
:10003000F6CF0BF0F7CF0CF0F8CF0DF0F5CF0EF0B8
:10004000F294CE0ED65E000ED75A502E05D0030E77
:10005000506E0101B34BB42B0EC0F5FF0DC0F8FF7D
:100060000CC0F7FF0BC0F6FF0AC0F4FF09C0F3FF96
:1000700008C0DAFF07C0D9FF06C0E2FF05C0E1FFF4
:1000800004C0EAFF03C0E9FF02C0FBFF01C0FAFFA2
:10009000110047EF48F0CBEC49F00001E56F00019B
:1000A000519E000151920001519C000151980001A4
:1000B000519A000151960001E551630AD8A402D07B
:1000C000000151800001E551E30AD8A402D00001EB
:1000D00051900001E551640AD8A402D00001518476
:1000E0000001E551E40AD8A402D0000151940001B6
:1000F000E5510F0AD8B4CBEC48F00001E5515E0A97
:10010000D8A403D0010E32EC46F00001E5514A0AB2
:10011000D8A403D0000E32EC46F00001E5514C0AA1
:10012000D8A402D00001518E0001E5514D0AD8A497
:1001300002D0000151820001E551440AD8B405D033
:100140000001E551400AD8A402D00001518C000101
:10015000E551690AD8A402D0000151880001E55197
:100160004E0AD8A402D00001518A0001E5514F0A7D
:10017000D8A402D0000151860001E551450AD8A457
:1001800025EF0FF00001F405D8B425EF0FF00001C2
:10019000518825EF0FF033EC50F0010E0001F46FA1
:1001A0001200000151A81200020E0001F46F000EAF
:1001B0000001F56F83EC4EF0020E18EC50F01200C7
:1001C000FA0E116E400E106E000E126E000E84ECD0
:1001D0003DF0000E0001E66FD7D00201020E0001D3
:1001E000776F02018C0E0001766FFE0E0001796FB1
:1001F0003E0E0001786F0001E6C07AF000017B6BD3
:1002000005EC4BF00001E6510101E55DD8B00DD0E1
:100210000201020E106E02018C0E0F6EFE0E126EA7
:10022000230E116E44EC4DF098D00001E651230DE1
:100230000201000EF324D96E0201020EF420DA6EE0
:10024000DF500001CB6F0001CBA17BD00201020E79
:10025000106E02018C0E0F6E0001E651230D040E8C
:10026000F326000EF422000E0001CB6F020ECC6FBD
:10027000F3500001CB27F4500001CC23CBC011F088
:10028000CCC012F0000E146E080E136E73EC4AF020
:100290000201020E106E02018C0E0F6EF80E126E2D
:1002A000BD0E116E44EC4DF00201020E106E020103
:1002B0008C0E0F6E0001E651230D0C0EF326000E7E
:1002C000F422000E0001CB6F020ECC6FF350000140
:1002D000CB27F4500001CC23CBC011F0CCC012F0DE
:1002E000000E146E030E136E73EC4AF00001E6511B
:1002F000230D0201000EF324D96E0201020EF42038
:10030000DA6EDF500001CB6F0001CBB905D0FE0ED5
:100310000001D46FD60E04D0FE0E0001D46FDE0EA5
:100320000001D36F0201020E106E02018C0E0F6EDF
:100330000001D4C012F00001D3C011F044EC4DF024
:100340000CD00201020E106E02018C0E0F6EFC0E1C
:10035000126EAA0E116E44EC4DF00201020E116EE7
:1003600002018C0E106E0001F5510001E619D8A4AF
:1003700002D0010E01D0000E126E0001E651020FF4
:1003800084EC3DF00001E62B030E0001E66525D765
:10039000FD0E116E530E106E0001F551040AD8A423
:1003A00002D0010E01D0000E126E070E84EC3DF05B
:1003B000030E0001F46F1200000151A804D0000EDA
:1003C0000001F46F1200000151AE16D00001F5518A
:1003D000D8B402D00001F507040E0001F55DD8B0D5
:1003E00007D00001F5510101E55DD8A0E5C1F5F0A8
:1003F000020E0001F46F1200000151A219D0050E87
:100400000001F55DD8B002D00001F52B040E00010B
:10041000F55DD8B009D00001F5510101E55DD8B016
:1004200003D0040E0001F56F020E0001F46F1200FC
:10043000000151AA09D0040E0001F46F000E000162
:10044000F56F83EC4EF01200000151AC1200040E67
:100450000001F55DD8B050D00001F551230D020127
:10046000000EF324D96E0201020EF420DA6EDF5082
:100470000001CB6F0001CBA111D00001F551230D7C
:100480000201000EF324D96E0201020EF420DA6E8E
:10049000000EDF6E020E0001F46F12000001F55134
:1004A000230D0201000EF324D96E0201020EF42086
:1004B000DA6E000EDF6E0001F551230D0201000E11
:1004C000F3240101B16F0201020EF4200101B26FA9
:1004D000F60E0001B36F7A0E0001B26F080E000134
:1004E000B46FF5C0B5F0020E0001B66F010E000149
:1004F000B76FD7EC4CF012000001F551040AD8A4F4
:100500001200000E0001F46F12000101010E000143
:10051000826F0101B50E0001816F01010001B2C1BE
:1005200084F001010001B1C183F0B4EC3FF0020E90
:100530000001F46F83EC4EF01200FA0E116EF90E0A
:10054000106E000E126E000E84EC3DF0FC0E116E6B
:10055000C90E106E0001F551D8A402D0010E01D0D1
:10056000000E126E020E84EC3DF0FC0E116EBA0EFF
:10057000106E0001F505D8A402D0010E01D0000EC6
:10058000126E030E84EC3DF0FA0E116E6A0E106EC0
:100590000001F551020AD8A402D0010E01D0000ECC
:1005A000126E040E84EC3DF0FD0E116EAA0E106E5C
:1005B0000001F551030AD8A402D0010E01D0000EAB
:1005C000126E050E84EC3DF0FD0E116E530E106E92
:1005D0000001F551040AD8A402D0010E01D0000E8A
:1005E000126E070E84EC3DF0050E0001F46F120050
:1005F000040E0F6E040E53EC4EF0000151AC4DD0C2
:100600000001F56706D00F0E0001F46F83EC4EF089
:1006100044D00001F505D8A409D0090E0001F46FFB
:10062000000E0001F56F83EC4EF037D00001F5515C
:10063000020AD8A41CD00201020E1E6E0201AC0EEA
:100640001D6E02EC48F0F60E0001B36F760E00014D
:10065000B26F1F0E0001B46FF5C0B5F0040E0001BB
:10066000B66F000E0001B76FD7EC4CF016D000014A
:10067000F551030AD8A409D00D0E0001F46F000E45
:100680000001F56F83EC4EF008D00001F551040A2B
:10069000D8A403D0000E0001F46F000151A804D0CB
:1006A000020E0001F46F1200000151A61200020EAA
:1006B0000001F46F000E0001F56F83EC4EF01200A4
:1006C0009FEC36F0070E0001F46F120011EC45F0BC
:1006D000000151AC7BD0FD0E0001776F7A0E000156
:1006E000766F0001EF511F0D000E0001CB6F030E5E
:1006F000CC6FF3500001CB27F4500001CC23CBC0CA
:1007000078F0CCC079F03AEC4CF00001EF511F0DBD
:100710000301000EF324D96E0301030EF420DA6EF8
:10072000DF50D8B412000001EF511F0D000E000180
:10073000CB6F030ECC6FF3500001CB27F4500001B8
:10074000CC23CBC0D9FFCCC0DAFF11EEB5F01F0E21
:10075000DECFE6FFE82EFCD70101C1A930D00001B1
:10076000F051D8B428D00001EF511F0D000E000148
:10077000CB6F030ECC6FF3500001CB27F450000178
:10078000CC23CBC01FF0CCC020F00201020E226EA1
:100790000201AC0E216ED6EC4AF00001EBC0A9F0CC
:1007A0000001EAC0A8F00001E9C0A7F0000E0001B6
:1007B000AA6F31EC1EF0060E0001F46F04D0F2C0F7
:1007C000F4F0F3C0F5F083EC4EF01200000151A8F4
:1007D00005D0F1C0F4F083EC4EF01200000151A2FC
:1007E00012D00001EBC0A9F00001EAC0A8F000019E
:1007F000E9C0A7F0020E0001AA6F31EC1EF0060E50
:100800000001F46F1200000151AE12D00001EBC0E4
:10081000A9F00001EAC0A8F00001E9C0A7F0030EAA
:100820000001AA6F31EC1EF0060E0001F46F1200F9
:100830000001E55105EC4EF00001E66F0001E651C4
:10084000D8B412000001EBC0A9F00001EAC0A8F082
:100850000001E9C0A7F0E6C0AAF031EC1EF0060ED8
:100860000001F46F1200F90E116E6E0E106E000E84
:10087000126E000E84EC3DF00101E951D8B410D0A5
:10088000F90E116EBC0E106E0001F551D8A402D005
:10089000010E01D0000E126E020E84EC3DF00FD05E
:1008A000F90E116E360E106E0001F551D8A402D06B
:1008B000010E01D0000E126E020E84EC3DF0FD0E12
:1008C000116E530E106E0001F505D8A402D0010E72
:1008D00001D0000E126E070E84EC3DF00A0E0001EE
:1008E000F46F1200010E0F6E090E53EC4EF0000172
:1008F00051AC1CD00001F56719D00101E951D8B401
:100900000CD0000E0101E96FE9C116F0400E18ECA1
:100910004FF0090E0001F46F09D00B0E0001F46FC7
:10092000010E0001F56F83EC4EF01200000151B88A
:1009300007D0000151AC12000001F505D8A4120047
:10094000040E0001F46F83EC4EF01200F80E116EED
:10095000DE0E106E000E126E000E84EC3DF0F90EED
:10096000116E520E106E000E126E010E84EC3DF0F0
:10097000F90E116EA30E106E000E126E020E84ECB4
:100980003DF0FA0E116E550E106E000E126E040E32
:1009900084EC3DF0FB0E116E580E106E0001F55107
:1009A000D8A402D0010E01D0000E126E060E84EC07
:1009B0003DF0FB0E116EEE0E106E0001F505D8A491
:1009C00002D0010E01D0000E126E070E84EC3DF035
:1009D0000C0E0001F46F1200010E0F6E0B0E53ECA3
:1009E0004EF0000151AC13D00001F56710D0010E9C
:1009F0000101E96FE9C116F0400E18EC4FF0090E45
:100A00000001F46F000E0001F56F83EC4EF0000161
:100A100051B807D0000151AC12000001F505D8A46F
:100A20001200090E0001F46F000E0001F56F83EC57
:100A30004EF01200FB0E116E1F0E106E000E126EA5
:100A4000000E84EC3DF0FB0E116E5E0E106E000188
:100A5000F551D8A402D0010E01D0000E126E020E84
:100A600084EC3DF0FB0E116EF40E106E0001F505E6
:100A7000D8A402D0010E01D0000E126E030E84EC39
:100A80003DF00E0E0001F46F1200010E0F6E0D0E00
:100A900053EC4EF0000151AC09D00001F56706D0CF
:100AA000000E0001F46F000E03EC50F0000151B88D
:100AB00007D0000151AC12000001F505D8A41200C6
:100AC000040E0001F46F83EC4EF01200FB0E116E69
:100AD000CA0E106E000E126E000E84EC3DF0FC0E7D
:100AE000116EE70E106E0001F551D8A402D0010E70
:100AF00001D0000E126E020E84EC3DF0FD0E116E60
:100B0000600E106E0001F505D8A402D0010E01D0D0
:100B1000000E126E030E84EC3DF0FD0E116E460EBB
:100B2000106E0001F551020AD8A402D0010E01D0C6
:100B3000000E126E040E84EC3DF0FD0E116E920E4E
:100B4000106E0001F551030AD8A402D0010E01D0A5
:100B5000000E126E050E84EC3DF00001F551040A02
:100B6000D8A40AD0FA0E116EBD0E106E010E126ED0
:100B7000070E84EC3DF018D00001F551050AD8A409
:100B80000AD0FA0E116EA90E106E010E126E070E2B
:100B900084EC3DF009D0FD0E116E530E106E000E68
:100BA000126E070E84EC3DF0100E0001F46F12007F
:100BB000050E0F6E0F0E53EC4EF0000151AC4FD0EE
:100BC0000001F56706D0170E0001F46F83EC4EF0BC
:100BD00046D00001F505D8A409D0150E0001F46F28
:100BE000000E0001F56F83EC4EF039D00001F55195
:100BF000020AD8A409D0190E0001F46F000E0001FA
:100C0000F56F83EC4EF02BD00001F551030AD8A408
:100C100009D0130E0001F46F000E0001F56F83EC94
:100C20004EF01DD00001F551040AD8A409D0040EDD
:100C30000001F46F000E0001F56F83EC4EF00FD051
:100C40000001F551050AD8A40AD0A2EC44F0040E24
:100C50000001F46F000E0001F56F83EC4EF000010F
:100C600051A81200040E0001F46F000E0001F56F90
:100C700083EC4EF01200FA0E116E2B0E106E000E69
:100C8000126E000E84EC3DF00201020E106E0201A5
:100C90008C0E0F6EFD0E126E1F0E116E3AEC4EF0A2
:100CA0000101E3B105D0FE0E0001D66F8D0E04D018
:100CB000FE0E0001D66F630E0001D56F0201020E19
:100CC000106E02018C0E0F6E0001D6C012F00001F2
:100CD000D5C011F044EC4DF00201020E116E02017C
:100CE0008C0E106E0001F551D8A402D0010E01D077
:100CF000000E126E020E84EC3DF00201020E106E28
:100D000002018C0E0F6EFD0E126E2C0E116E3AEC5F
:100D10004EF00101E3B305D0FE0E0001D86FA70E1F
:100D200004D0FE0E0001D86F550E0001D76F0201EE
:100D3000020E106E02018C0E0F6E0001D8C012F070
:100D40000001D7C011F044EC4DF00201020E116E0B
:100D500002018C0E106E0001F505D8A402D0010E20
:100D600001D0000E126E030E84EC3DF00201020E63
:100D7000106E02018C0E0F6EFD0E126E390E116E8A
:100D80003AEC4EF00201020E106E02018C0E0F6E54
:100D9000E3C1CBF00001D890CB330001D890CB3326
:100DA000030E0001CB170001CB51020D000EF324FE
:100DB000F66EF20EF420F76EF86A000EF8220900C3
:100DC000F5CF11F00A00F5CF12F044EC4DF002011E
:100DD000020E116E02018C0E106E0001F551020A16
:100DE000D8A402D0010E01D0000E126E040E84ECC5
:100DF0003DF0FD0E116E530E106E0001F551030A09
:100E0000D8A402D0010E01D0000E126E070E84ECA1
:100E10003DF0180E0001F46F1200030E0F6E170E56
:100E200053EC4EF0000151AC41D00001F5670BD0FE
:100E3000010E0101E31B170E0001F46F0101E351E4
:100E4000FCEC4FF033D00001F505D8A40BD0020E16
:100E50000101E31B170E0001F46F0101E351FCECEB
:100E60004FF024D00001F551020AD8A412D001019C
:100E7000E3A704D0F30E0101E31703D0040E010130
:100E8000E327170E0001F46F0101E351FCEC4FF072
:100E90000DD00001F551030AD8A408D00F0E0001AF
:100EA000F46F000E0001F56F83EC4EF0000151A8C5
:100EB00009D00F0E0001F46F000E0001F56F83ECF6
:100EC0004EF01200000151AA09D0150E0001F46F76
:100ED000000E0001F56F83EC4EF01200000151A6E8
:100EE0001200130E0001F46F000E0001F56F83EC89
:100EF0004EF01200FA0E116E160E106E000E126EEB
:100F0000000E84EC3DF00201020E106E02018C0E08
:100F10000F6EFD0E126ED60E116E3AEC4EF00201FF
:100F2000020E106E02018C0E0F6EE2C1CBF0030EAA
:100F30000001CB170001CB51020D100EF324F66E09
:100F4000F20EF420F76EF86A000EF8220900F5CFD1
:100F500011F00A00F5CF12F044EC4DF00201020E40
:100F6000116E02018C0E106E0001F551D8A402D052
:100F7000010E01D0000E126E020E84EC3DF0020153
:100F8000020E106E02018C0E0F6EFD0E126EE00E40
:100F9000116E3AEC4EF00201020E106E02018C0E40
:100FA0000F6EE2C1CBF00001D890CB330001D89096
:100FB000CB33030E0001CB170001CB51020D180EED
:100FC000F324F66EF20EF420F76EF86A000EF822A3
:100FD0000900F5CF11F00A00F5CF12F044EC4DF006
:100FE0000201020E116E02018C0E106E0001F50559
:100FF000D8A402D0010E01D0000E126E030E84ECB4
:101000003DF00201020E106E02018C0E0F6EFD0EFD
:10101000126ECC0E116E3AEC4EF00201020E106E02
:1010200002018C0E0F6E0101010E126E0101D40E31
:10103000116E000E146E080E136E73EC4AF002016E
:10104000020E116E02018C0E106E0001F551020AA3
:10105000D8A402D0010E01D0000E126E040E84EC52
:101060003DF00201020E106E02018C0E0F6EFD0E9D
:10107000126EC20E116E3AEC4EF00101E66705D019
:10108000FE0E0001DA6F230E04D0FE0E0001DA6FAF
:10109000080E0001D96F0201020E106E02018C0EC3
:1010A0000F6E0001DAC012F00001D9C011F044EC5B
:1010B0004DF00201020E116E02018C0E106E000145
:1010C000F551030AD8A402D0010E01D0000E126E11
:1010D000050E84EC3DF0FD0E116E530E106E0001F6
:1010E000F551040AD8A402D0010E01D0000E126EF0
:1010F000070E84EC3DF0160E0001F46F1200040E92
:101100000F6E150E53EC4EF0000151AC6BD0000188
:10111000F56714D0E2C1CBF0FC0E0001CB17010142
:10112000E229030B0001CB110101E26F150E000152
:10113000F46F0101E25111EC50F054D00001F505BB
:10114000D8A415D0E2C1CBF0F30E0001CB170101FA
:10115000E251040F0C0B0001CB110101E26F150EDF
:101160000001F46F0101E25111EC50F03BD000019D
:10117000F551020AD8A41DD00201020E1E6E020112
:10118000AC0E1D6E02EC48F0F60E0001B36F820E3D
:101190000001B26F110E0001B46F000E0001B56FB7
:1011A000150E0001B66F000E0001B76FD7EC4CF0C2
:1011B00019D00001F551030AD8A407D0010E01018E
:1011C000E61B150E0001F46F0DD00001F551040A65
:1011D000D8A408D00F0E0001F46F010E0001F56FC6
:1011E00083EC4EF0000151A809D00F0E0001F46FFE
:1011F000010E0001F56F83EC4EF01200000151AAC0
:1012000009D0190E0001F46F000E0001F56F83EC98
:101210004EF01200000151A61200170E0001F46FEB
:10122000000E0001F56F83EC4EF01200FA0E116E05
:10123000010E106E000E126E000E84EC3DF00201E5
:10124000020E0001776F02018C0E0001766FFC0E1A
:101250000001796F550E0001786F010E0101E5253F
:1012600000017A6F00017B6B000E7B2305EC4BF0D5
:101270000201020E116E02018C0E106E0001F5517A
:10128000D8A402D0010E01D0000E126E020E84EC22
:101290003DF00101E46705D0FE0E0001DC6FF90EA0
:1012A00004D0FE0E0001DC6FCE0E0001DB6F0201E8
:1012B000020E0001776F02018C0E0001766FFC0EAA
:1012C0000001796F770E0001786F0001DCC07BF0C0
:1012D0000001DBC07AF005EC4BF00201020E116E4A
:1012E00002018C0E106E0001F505D8A402D0010E8B
:1012F00001D0000E126E030E84EC3DF00101E86790
:1013000005D0FE0E0001DE6FEA0E04D0FE0E0001D5
:10131000DE6FCA0E0001DD6F0201020E0001776F61
:1013200002018C0E0001766FFC0E0001796F880EB1
:101330000001786F0001DEC07BF00001DDC07AF0B3
:1013400005EC4BF00201020E116E02018C0E106EC4
:101350000001F551020AD8A402D0010E01D0000EFE
:10136000126E040E84EC3DF00201020E0001776F54
:1013700002018C0E0001766FFC0E0001796F660E83
:101380000001786FCDC6CBF026EECCF0DF50000127
:10139000CB150001CC6FA0C4CDF024EE9FF0DF5040
:1013A0000001CD150001CE6F0001CE510001CC250A
:1013B00000017A6F00017B6B00017B3705EC4BF07D
:1013C0000201020E116E02018C0E106E0001F55129
:1013D000030AD8A402D0010E01D0000E126E050E31
:1013E00084EC3DF0FD0E116E530E106E0001F551B0
:1013F000040AD8A402D0010E01D0000E126E070E0E
:1014000084EC3DF01A0E0001F46F1200040E0F6E12
:10141000190E53EC4EF0000151AC64D00001F56799
:1014200015D00101E52B010121EEE5F0030EDF648B
:1014300003D0000E0101E56F190E0001F46FE4C145
:1014400012F00101E5513EEC4FF04CD00001F505E2
:10145000D8A40DD0010E0101E41B190E0001F46F98
:10146000E4C112F00101E5513EEC4FF03BD0000128
:10147000F551020AD8A41BD0010E0101E81B190E78
:101480000001F46FA0C4CBF024EE9FF0DF50000108
:10149000CB15126ECDC6CCF026EECCF0DF5000019D
:1014A000CC15136E0101E85167EC4DF01BD0000123
:1014B000F551030AD8A409D01C0E0001F46F000EE8
:1014C0000001F56F83EC4EF00DD00001F551040AD8
:1014D000D8A408D00F0E0001F46F020E0001F56FC2
:1014E00083EC4EF0000151A809D00F0E0001F46FFB
:1014F000020E0001F56F83EC4EF01200000151AABC
:1015000009D0130E0001F46F000E0001F56F83EC9B
:101510004EF01200000151A61200150E0001F46FEA
:10152000000E0001F56F83EC4EF01200FB0E116E01
:101530000C0E106E000E126E000E84EC3DF0000ECC
:101540000001E66F28D10001E66705D0FD0E00011D
:10155000E06FF40E04D0FD0E0001E06FEA0E000112
:10156000DF6F0201020E106E02018C0E0F6E000181
:10157000E0C012F00001DFC011F03AEC4EF00001C3
:10158000E6C00FF0106A020E126E2D0E116E2BECDB
:101590004FF01F0E0F26000E1022800E0F24D96E62
:1015A000040E1020DA6EDF50D8A407D0FE0E000122
:1015B000E26FE20E0001E16F28D00001E6C00FF0FB
:1015C000106A020E126E2D0E116E2BEC4FF0200ED3
:1015D0000F26000E1022800E0F24D96E040E10204C
:1015E000DA6EDF50D8A405D0FE0E0001E46F230EA2
:1015F00004D0FE0E0001E46F460E0001E36F00010F
:10160000E4C0E2F00001E3C0E1F00201020E106E5E
:1016100002018C0E0F6E0001E2C012F00001E1C069
:1016200011F044EC4DF00201020E116E02018C0E1D
:10163000106E0001E651020D0001F5510001CB6F63
:10164000CC6BF4500001CC1903E1F3500001CB192D
:10165000D8A402D0010E01D0000E126E0001E65196
:10166000020DF350020F84EC3DF00001E6C00FF0D4
:10167000106A020E126E2D0E116E2BEC4FF01F0E23
:101680000F26000E1022800E0F24D96E040E10209B
:10169000DA6EDF50D8B453D00001E6C00FF0106A04
:1016A000020E126E2D0E116E2BEC4FF0800E00010B
:1016B000CB6F040ECC6F0F500001CB2710500001F0
:1016C000CC23CBC0CFF0CCC0D0F00001E6C00FF0EF
:1016D000106A020E126E2D0E116E2BEC4FF0080EDA
:1016E0000F26000E1022800E0001CB6F040ECC6F6F
:1016F0000F500001CB2710500001CC23CBC0D1F0FC
:10170000CCC0D2F00201020E0001776F02018C0EF4
:101710000001766FFB0E0001796F450E0001786FB6
:101720000001D0C07BF00001CFC07AF00001D2C030
:101730007DF00001D1C07CF005EC4BF00CD0020133
:10174000020E106E02018C0E0F6EFB0E126E320E28
:10175000116E3AEC4EF00201020E116E02018C0E77
:10176000106E0001E651020D010EF326000EF42268
:101770000001F551F318F410D8A402D0010E01D0E5
:10178000000E126E0001E651020DF350030F84ECBF
:101790003DF00001E62B010E0001E665D4D6FD0EFA
:1017A000116E530E106E0001F551040AD8A402D038
:1017B000010E01D0000E126E070E84EC3DF01D0EDE
:1017C0000001F46F1200040E0F6E1C0E53EC4EF06D
:1017D000000151AC9FD00001F56710D024EE9FF0BE
:1017E000DF50D8B497D0A0C4E8FF010AE8CFA0F436
:1017F0001E0E0001F46F83EC4EF08CD00001F55109
:10180000020AD8A410D026EECCF0DF50D8B482D093
:10181000CDC6E8FF010AE8CFCDF61E0E0001F46F39
:1018200083EC4EF077D00001F505D8B405D0000167
:10183000F551030AD8A464D00001D890F531000115
:10184000E66F0001E6C00FF0106A020E126E2D0E58
:10185000116E2BEC4FF0800E0F24D96E040E102069
:10186000DA6EDF50D8B430D00001E6C00FF0106A55
:10187000020E126E2D0E116E2BEC4FF0800E0F2407
:10188000156E040E1020166E000E186E000E176EE8
:10189000020E1A6E2D0E196E99EC4EF00101010E1A
:1018A000166E0101B50E156E000E186E000E176E45
:1018B000000E1A6E1F0E196E99EC4EF01E0E0001EE
:1018C000F46F83EC4EF026D00201020E1E6E020170
:1018D000AC0E1D6E02EC48F0F60E0001B36F7E0EEA
:1018E0000001B26F1E0E0001B46FF5C0B5F01C0E02
:1018F0000001B66F000E0001B76FD7EC4CF00AD0B4
:101900000001F551040AD8A405D0190E0001F46FA6
:1019100083EC4EF0000151A81200190E0001F46F83
:1019200083EC4EF012000001F505D8A40BD00101A4
:10193000010E0001AF6F0101B50E0001AE6F000E88
:101940005CEC40F00001F551030AD8A40BD0010172
:10195000010E0001AF6F0101B50E0001AE6F010E67
:101960005CEC40F0A0C4CBF024EE9FF0DF5000010F
:10197000CB15126ECDC6CCF026EECCF0DF500001B8
:10198000CC15136E0101E85167EC4DF01C0E0001FF
:10199000F46F1200F90E116EEC0E106E000E126E46
:1019A000000E84EC3DF00201020E106E02018C0E5E
:1019B0000F6EFC0E126E440E116E3AEC4EF00201E8
:1019C000020E106E02019C0E0F6E0101E051020D1D
:1019D000080EF324F66EF20EF420F76EF86A000E8D
:1019E000F8220900F5CF11F00A00F5CF12F03AEC19
:1019F0004EF00201020E116E02018C0E106E0001FB
:101A0000F551D8A402D0010E01D0000E126E020EC4
:101A100084EC3DF00201020E106E02018C0E0F6E7E
:101A2000FC0E126E330E116E3AEC4EF00201020EF5
:101A3000106E02019C0E0F6E0101E151020D080EA5
:101A4000F324F66EF20EF420F76EF86A000EF82218
:101A50000900F5CF11F00A00F5CF12F03AEC4EF084
:101A60000201020E116E02018C0E106E0001F505CE
:101A7000D8A402D0010E01D0000E126E030E84EC29
:101A80003DF00201020E106E02018C0E0F6EFC0E74
:101A9000126E220E116E3AEC4EF00201020E106E22
:101AA00002019C0E0F6E0101E751020D200EF3247E
:101AB000F66EF20EF420F76EF86A000EF8220900B6
:101AC000F5CF11F00A00F5CF12F03AEC4EF002011A
:101AD000020E116E02018C0E106E0001F551020A09
:101AE000D8A402D0010E01D0000E126E040E84ECB8
:101AF0003DF0FD0E116E530E106E0001F551030AFC
:101B0000D8A402D0010E01D0000E126E070E84EC94
:101B10003DF0140E0001F46F1200030E0F6E130E51
:101B200053EC4EF0000151AC47D00001F5670FD0E7
:101B30000101E02B030E0101E017130E0001F46F09
:101B4000E1C112F00101E05150EC4FF035D000013D
:101B5000F505D8A40FD00101E12B030E0101E11717
:101B6000130E0001F46FE1C112F00101E05150ECDD
:101B70004FF022D00001F551020AD8A413D0010180
:101B8000E72B010121EEE7F0020EDF6403D0000E27
:101B90000101E76F130E0001F46F0101E7510AEC38
:101BA00050F00AD00001F551030AD8A405D00F0E59
:101BB0000001F46F83EC4EF0000151A809D00F0E24
:101BC0000001F46F030E0001F56F83EC4EF012007C
:101BD000000151AA09D0170E0001F46F000E000198
:101BE000F56F83EC4EF01200000151A61200190EA1
:101BF0000001F46F000E0001F56F83EC4EF012004F
:101C0000FA0E116ED10E106E000E126E000E84ECE4
:101C10003DF0FB0E116E5E0E106E0001F551D8A462
:101C200002D0010E01D0000E126E020E84EC3DF0C7
:101C3000FB0E116EF40E106E0001F505D8A402D053
:101C4000010E01D0000E126E030E84EC3DF0120E58
:101C50000001F46F1200010E0F6E110E53EC4EF0E6
:101C6000000151AC66D00001F56757D00001EF517B
:101C70001F0D0301000EF324D96E0301030EF4209F
:101C8000DA6EDF50D8B445D00101010E166E0101A5
:101C9000D40E156E0001EF511F0D000E0001CB6F29
:101CA000030ECC6FF3500001CB27F4500001CC237E
:101CB000CBC017F0CCC018F0000E1A6E0C0E196EC7
:101CC000B9EC4BF033EC50F0010E03EC50F0010195
:101CD000E3510109FCEC4FF0010E126E010E3EECD7
:101CE0004FF00101010E0001AF6F0101D40E0001A0
:101CF000AE6FACEC43F00009D8B48DEC4BF00101B1
:101D0000E351FCEC4FF0E4C112F00101E5513EEC6F
:101D10004FF0000E0001F46F0CD00001F505D8A4BF
:101D200008D0150E0001F46F020E0001F56F83EC70
:101D30004EF0000151A81200150E0001F46F020EC2
:101D40000001F56F83EC4EF01200000E0001E66F0B
:101D50002FD00001E651010D500EF324F66EF60E61
:101D6000F420F76EF86A000EF8220800F5CFCBF0E9
:101D70000001EF511F0D000E0001CC6F030ECD6F5F
:101D8000F3500001CC27F4500001CD230001E651AF
:101D9000010DF3500001CC25D96EF4500001CD2186
:101DA000DA6EDF500001CB19D8A406D00001E62B73
:101DB0000A0E0001E665CDD70001E6510B0AD8B442
:101DC00020D033EC50F0000E0001F46F0001EF5111
:101DD0001F0D000E0001CB6F030ECC6FF3500001FE
:101DE000CB27F4500001CC23CBC0AEF0CCC0AFF079
:101DF0008EEC33F00009D8B41200010E0001EE6F32
:101E00001200040E0001F46F010E0001F56F83EC67
:101E10004EF01200000151A81200000E0001F46FF4
:101E20001200000151A804D0000E0001F46F12004E
:101E3000AFC10FF0B0C110F0AFEC4EF00009D8B454
:101E40001200000E0001F46F12000001F451000AAC
:101E5000D8B4CBEF00F0010AD8B4D1EF00F0030AF8
:101E6000D8B4E0EF00F0010AD8B4DCEF01F0070AC3
:101E7000D8B49DEF02F0010AD8B4F8EF02F0030ADB
:101E8000D8B460EF03F0010AD8B466EF03F00F0A8C
:101E9000D8B485EF02F0010AD8B433EF04F0030A96
:101EA000D8B472EF04F0010AD8B4A6EF04F0070A20
:101EB000D8B4ECEF04F0010AD8B41AEF05F0030A25
:101EC000D8B445EF05F0010AD8B466EF05F01F0A53
:101ED000D8B4D8EF05F0010AD8B492D6030AD8B422
:101EE000BAD6010AD8B456D5070AD8B416D6010A0C
:101EF000D8B47AEF07F0030AD8B47FEF08F0010AEC
:101F0000D8B43BEF06F00F0AD8B40DEF07F0010A82
:101F1000D8B416EF09F0030AD8B406EF0AF0010AA4
:101F2000D8B478D7070AD8B496EF0AF0010AD8B423
:101F30004AD4030AD8B4F7D4010AD8B406D73F0A62
:101F4000D8A412006ED716EF19F000016F51250AC0
:101F5000D8B43AD020EE02F03750D9263850DA22E1
:101F6000DE50DD10D8B418D020EE02F03750D9265C
:101F70003850DA22DECF3DF0DDCF3EF002D816EF4A
:101F800019F00500FA6E3D50FD6E3E50FE6EFF6A80
:101F9000FA5000016F51120037C0D9FF38C0DAFF84
:101FA000DECF3DF0DDCF3EF03DC0D9FF3EC0DAFFD1
:101FB00000016FC0DFFF37C0D9FF38C0DAFFDE2A6B
:101FC000000EDD2216EF19F0000E00016E6F000EFC
:101FD00000016D6F000E0001756F000E0001746F3F
:101FE0000DD00001748708D00001748105D0000174
:101FF000758702D000017485394A3A2A39C0F6FF44
:102000003AC0F7FFF86A0800F550200AD8B4ECD7B8
:10201000030AD8B4ECD70E0AD8B4E3D71D0AD8B453
:10202000E9D7000174A702D00001749539C0F6FF0A
:102030003AC0F7FFF86A0800F550B7EC4FF0D8A0A7
:1020400039D0000E00016E6F000E00016D6F6DC083
:102050000FF06EC010F0000E126E0A0E116E2BEC17
:102060004FF00FC06DF010C06EF0D00E3D6EFF0E41
:102070003E6E39C0F6FF3AC0F7FFF86A0800F55027
:102080003F6E406A3D503F263E5040223F50000187
:102090006D27405000016E23394A3A2A39C0F6FFB5
:1020A0003AC0F7FFF86A0800F550B7EC4FF0D8A037
:1020B00023D0CDD739C0F6FF3AC0F7FFF86A080041
:1020C000F5502A0AD8A418D03BC0D9FF3CC0DAFF8B
:1020D000DFCF3DF0020EDE26DFCF3EF0000EDD2228
:1020E0003DC0D9FF3EC0DAFF0001DECF6DF0000138
:1020F000DDCF6EF0394A3A2A39C0F6FF3AC0F7FF11
:10210000F86A0800F5502E0AD8A458D00001758D41
:10211000394A3A2A39C0F6FF3AC0F7FFF86A080090
:10212000F5502A0AD8A419D03BC0D9FF3CC0DAFF29
:10213000DFCF3DF0020EDE26DFCF3EF0000EDD22C7
:102140003DC0D9FF3EC0DAFF0001DECF6BF00001D9
:10215000DDCF6CF0394A3A2AD5D1000E00016C6F00
:10216000000E00016B6F1ED06BC00FF06CC010F042
:10217000000E126E0A0E116E2BEC4FF039C0F6FFF6
:102180003AC0F7FFF86A0800F5500F26000E10223B
:10219000D00E0F2400016B6FFF0E102000016C6F3A
:1021A000394A3A2A39C0F6FF3AC0F7FFF86A080000
:1021B000F550B7EC4FF0D8A0A5D1D6D7000E00014E
:1021C0006C6F000E00016B6F9DD1000174899AD174
:1021D0000001748DC4D10001748B0001748FBFD1D4
:1021E0003BC0D9FF3CC0DAFFDFCF3DF0020EDE2658
:1021F000DFCF3EF0000EDD223DC0D9FF3EC0DAFF4A
:102200000001DECF70F00001DDCF71F000017151EF
:102210007011D8A406D0FE0E0001716F4E0E0001A1
:10222000706F000E0001736F000E0001726F03D01B
:102230000001724B732B000170C03DF0000171C0B2
:102240003EF0000172513D26000173513E223DC017
:10225000F6FF3EC0F7FF000EF86E0F0EF76403D0D6
:102260000800F55005D0F6CFE1FFF7CFE2FFE750C9
:102270000009D8A4DDD700016C516B11D8B40ED081
:102280000001725100016B5D0001735100016C5936
:10229000D8B004D06BC072F06CC073F000016D5107
:1022A0000001725D00016E5100017359D8B00AD06F
:1022B000000120EE72F0DE5000016D5FDD50000184
:1022C0006E5B06D0000E00016E6F000E00016D6F98
:1022D000000174A736D0A0D020EE02F03750D926E6
:1022E0003850DA22DE50DD10D8B416D020EE02F0DD
:1022F0003750D9263850DA22DECF3DF0DDCF3EF020
:1023000001D81FD00500FA6E3D50FD6E3E50FE6EA6
:10231000FF6AFA50200E120037C0D9FF38C0DAFF2A
:10232000DECF3DF0DDCF3EF03DC0D9FF3EC0DAFF4D
:10233000200EDF6E37C0D9FF38C0DAFFDE2A000E6C
:10234000DD2200016D07D8A06E0700016D29D8B409
:102350006E29D8B461D0C0D720EE02F03750D9260C
:102360003850DA22DE50DD10D8B42CD020EE02F046
:102370003750D9263850DA22DECF3DF0DDCF3EF09F
:1023800001D81CD00500FA6E3D50FD6E3E50FE6E29
:10239000FF6AFA50000170C0F6FF000171C0F7FF3C
:1023A000000EF86E0F0EF76403D00800F55005D04C
:1023B000F6CFE1FFF7CFE2FFE75012000001704BCC
:1023C000712B2AD0000170C0F6FF000171C0F7FF29
:1023D000000EF86E37C0D9FF38C0DAFFDECF3DF00F
:1023E000DDCF3EF03DC0D9FF3EC0DAFF0F0EF764EF
:1023F00003D00800F55005D0F6CFE1FFF7CFE2FF9C
:10240000E750DF6E0001704B712B37C0D9FF38C029
:10241000DAFFDE2A000EDD2200017207D8A0730762
:1024200000017229D8B47329D8A496D7000174B7D3
:1024300037D016EF19F020EE02F03750D926385079
:10244000DA22DE50DD10D8B416D020EE02F037507C
:10245000D9263850DA22DECF3DF0DDCF3EF001D86C
:102460001FD00500FA6E3D50FD6E3E50FE6EFF6AB5
:10247000FA50200E120037C0D9FF38C0DAFFDECF85
:102480003DF0DDCF3EF03DC0D9FF3EC0DAFF200E6B
:10249000DF6E37C0D9FF38C0DAFFDE2A000EDD223A
:1024A00000016D07D8A06E0700016D29D8B46E2910
:1024B000D8B416EF19F0BFD73BC0D9FF3CC0DAFF44
:1024C000DFCF3DF0020EDE26DFCF3EF0000EDD2234
:1024D0003DC0D9FF3EC0DAFFDF5000016F6F000141
:1024E000000E0001716F00016F0E0001706F000E91
:1024F0000001736F010E0001726FBDD6C00E0001A6
:1025000074132DD039C0F6FF3AC0F7FF394A3A2A82
:10251000F86A08000001F5CF6FF000016F51000A62
:10252000D8B425EF19F0580AD8B455D63B0AD8B418
:10253000C3D7070AD8B413D00D0AD8B410D0050AEF
:10254000D8B443D6030AD8B443D61C0AD8B448D664
:10255000060AD8B4D3D70D0AD8B43FD6C0D7C00E18
:10256000000174153D6E000E000175153E6E3E5063
:102570003D10D8A464D0000174A91DD03BC0D9FF80
:102580003CC0DAFFDFCF3DF0040EDE26DFCF3EF0A9
:10259000000EDD223DC0D9FF3EC0DAFF0001DECFD4
:1025A00070F00001DECF71F00001DECF72F00001AB
:1025B000DECF73F01FD03BC0D9FF3CC0DAFFDFCFC6
:1025C0003DF0020EDE26DFCF3EF0000EDD223DC0E4
:1025D000D9FF3EC0DAFF0001DECF70F00001DDCF91
:1025E00071F00001000E000171BFFF0E0001726F5B
:1025F0000001736F00017351800A800F0BE1000E20
:102600000001725D07E1000E0001715D03E1000E43
:102610000001705DD8B051D0030E000174130001A9
:10262000731F0001721F0001711F0001706D000E09
:102630000001712300017223000173233ED00001C9
:1026400074A91DD03BC0D9FF3CC0DAFFDFCF3DF0FD
:10265000040EDE26DFCF3EF0000EDD223DC0D9FFA6
:102660003EC0DAFF0001DECF70F00001DECF71F076
:102670000001DECF72F00001DECF73F01ED03BC050
:10268000D9FF3CC0DAFFDFCF3DF0020EDE26DFCF00
:102690003EF0000EDD223DC0D9FF3EC0DAFFDECFA6
:1026A0003FF0DDCF40F000013FC070F0000140C0BE
:1026B00071F00001726B0001736B00016C516B11C2
:1026C000D8A486D000017351701171117211D8A471
:1026D0007FD000016B4B6C2B7BD0010E00016F6F24
:1026E00000016F510A0AD8B482D000016F51040D65
:1026F000A30EF324F66EF10EF420F76EF86A000EC6
:10270000F8220900F5500001705D0900F550000144
:1027100071590900F550000172590900F550000186
:102720007359D8A064D000016F2BDAD7010E0001D5
:102730006F6F00016F51080AD8B459D000016F5172
:10274000040DCB0EF324F66EF10EF420F76EF86A4A
:10275000000EF8220900F5500001705D0900F550E7
:10276000000171590900F550000172590900F55036
:1027700000017359D8A03BD000016F2BDAD7010EAE
:1027800000016F6F00016F510C0AD8B430D0000106
:102790006F51040D730EF324F66EF10EF420F76EF4
:1027A000F86A000EF8220900F5500001705D09007A
:1027B000F550000171590900F550000172590900E6
:1027C000F55000017359D8A012D000016F2BDAD751
:1027D00000017451C00B000AD8B47FD7400AD8B4A6
:1027E000CED7C00AD8B4A2D7400AD8B476D7800EC4
:1027F00000016FBF7F0E3D6E00016B5100016F5DE8
:1028000000016C51800A3D58D8B003D06BC06FF006
:1028100018D000016C51800A3D6E00016F5100011B
:102820006B5D800E00016FBF7F0E3D58D8B009D0A0
:1028300000016F5100016B6F00016C6B00016BBFF9
:102840006C0700016E516D11D8B410D0030E000159
:1028500074153D6E000E000175153E6E3E503D1024
:10286000D8B404D000016D07D8A06E07000175AD83
:102870001DD000016C51800A3D6E00016D510001B8
:102880006B5D00016E51800A3D58D8B009D000013F
:102890006B5100016D5F00016C5100016E5B06D051
:1028A000000E00016E6F000E00016D6FC40E3D6ED4
:1028B000080E3E6E000174C03FF0000175C040F08C
:1028C0003D503F163E5040164050080A400ED8B4C6
:1028D0003F18D8A40AD000016E516D11D8B431D080
:1028E00000016D07D8A06E072CD0C00E3D6E080EFB
:1028F0003E6E000174C03FF0000175C040F03D50D5
:102900003F163E5040164050080A800ED8B43F187B
:10291000D8A417D000016E51800A800F030ED8B4DE
:102920006D5DD8A008D00001FE0E00016D27FF0EDE
:1029300000016E2306D0000E00016E6F000E000134
:102940006D6F800E00016FBF7F0E3D6E00016D51F7
:1029500000016F5D00016E51800A3D58D8B00BD068
:1029600000016F5100016D5F000E00016FBFFF0E8F
:1029700000016E5B06D0000E00016E6F000E0001BC
:102980006D6F000174A549D1030E000174153D6EF1
:10299000000E000175153E6E3E503D10D8B42ED08D
:1029A00020EE02F03750D9263850DA22DE50DD1002
:1029B000D8B416D020EE02F03750D9263850DA229B
:1029C000DECF3DF0DDCF3EF001D8E7D00500FA6E56
:1029D0003D50FD6E3E50FE6EFF6AFA502D0E120005
:1029E00037C0D9FF38C0DAFFDECF3DF0DDCF3EF093
:1029F0003DC0D9FF3EC0DAFF2D0E30D0000174A1DA
:102A00002FD020EE02F03750D9263850DA22DE508F
:102A1000DD10D8B416D020EE02F03750D926385049
:102A2000DA22DECF3DF0DDCF3EF001D8B6D0050092
:102A3000FA6E3D50FD6E3E50FE6EFF6AFA50200E5B
:102A4000120037C0D9FF38C0DAFFDECF3DF0DDCF4E
:102A50003EF03DC0D9FF3EC0DAFF200EDF6E96D0BB
:102A6000C00E3D6E080E3E6E000174C03FF00001C6
:102A700075C040F03D503F163E5040164050080A89
:102A8000800ED8B43F18D8A488D020EE02F037507A
:102A9000D9263850DA22DE50DD10D8B416D020EE18
:102AA00002F03750D9263850DA22DECF3DF0DDCFA4
:102AB0003EF001D81FD00500FA6E3D50FD6E3E502D
:102AC000FE6EFF6AFA50300E120037C0D9FF38C0D0
:102AD000DAFFDECF3DF0DDCF3EF03DC0D9FF3EC096
:102AE000DAFF300EDF6E37C0D9FF38C0DAFFDE2ADA
:102AF000000EDD2220EE02F03750D9263850DA22BF
:102B0000DE50DD10D8B425D0000174BB05D0000E16
:102B10000001626F780E04D0000E0001626F580E43
:102B20000001616F20EE02F03750D9263850DA22CA
:102B3000DECF3DF0DDCF3EF001D82FD00500FA6E9C
:102B40003D50FD6E3E50FE6EFF6AFA50000161512D
:102B50001200000174BB05D0000E0001646F780EF6
:102B600004D0000E0001646F580E0001636F37C07F
:102B7000D9FF38C0DAFFDECF3DF0DDCF3EF03DC0FB
:102B8000D9FF3EC0DAFF000163C0DFFF37C0D9FFC5
:102B900038C0DAFFDE2A000EDD22000100016E518E
:102BA0006D11D8B4EFD220EE02F03750D92638504C
:102BB000DA22DE50DD10D8B416D020EE02F0375005
:102BC000D9263850DA22DECF3DF0DDCF3EF001D8F5
:102BD0001FD00500FA6E3D50FD6E3E50FE6EFF6A3E
:102BE000FA50300E120037C0D9FF38C0DAFFDECFFE
:102BF0003DF0DDCF3EF03DC0D9FF3EC0DAFF300EE4
:102C0000DF6E37C0D9FF38C0DAFFDE2A000EDD22C2
:102C100000016D07D8A06E07C1D700016E516D117C
:102C2000D8B441D0000174B73ED020EE02F0375046
:102C3000D9263850DA22DE50DD10D8B416D020EE76
:102C400002F03750D9263850DA22DECF3DF0DDCF02
:102C50003EF001D81FD00500FA6E3D50FD6E3E508B
:102C6000FE6EFF6AFA50200E120037C0D9FF38C03E
:102C7000DAFFDECF3DF0DDCF3EF03DC0D9FF3EC0F4
:102C8000DAFF200EDF6E37C0D9FF38C0DAFFDE2A48
:102C9000000EDD2200016D07D8A06E0700016E5105
:102CA0006D11D8A4C2D7030E000174153D6E000E3D
:102CB000000175153E6E3E503D10D8B42ED020EE6A
:102CC00002F03750D9263850DA22DE50DD10D8B461
:102CD00016D020EE02F03750D9263850DA22DECF57
:102CE0003DF0DDCF3EF001D850D00500FA6E3D50EA
:102CF000FD6E3E50FE6EFF6AFA502D0E120037C078
:102D0000D9FF38C0DAFFDECF3DF0DDCF3EF03DC069
:102D1000D9FF3EC0DAFF2D0E30D0000174A135D0AE
:102D200020EE02F03750D9263850DA22DE50DD107E
:102D3000D8B416D020EE02F03750D9263850DA2217
:102D4000DECF3DF0DDCF3EF001D81FD00500FA6E9A
:102D50003D50FD6E3E50FE6EFF6AFA50200E12008E
:102D600037C0D9FF38C0DAFFDECF3DF0DDCF3EF00F
:102D70003DC0D9FF3EC0DAFF200EDF6E37C0D9FF5D
:102D800038C0DAFFDE2A000EDD22C00E3D6E080ECE
:102D90003E6E000174C03FF0000175C040F03D5030
:102DA0003F163E5040164050080A400ED8B43F1817
:102DB000D8A42FD020EE02F03750D9263850DA228E
:102DC000DE50DD10D8B416D020EE02F03750D926F0
:102DD0003850DA22DECF3DF0DDCF3EF001D8D2D13F
:102DE0000500FA6E3D50FD6E3E50FE6EFF6AFA50D1
:102DF000300E120037C0D9FF38C0DAFFDECF3DF009
:102E0000DDCF3EF03DC0D9FF3EC0DAFF300EDF6EB1
:102E1000B2D1C00E3D6E080E3E6E000174C03FF090
:102E2000000175C040F03D503F163E5040164050E6
:102E3000080A800ED8B43F18D8A4A4D120EE02F01E
:102E40003750D9263850DA22DE50DD10D8B416D0EB
:102E500020EE02F03750D9263850DA22DECF3DF08E
:102E6000DDCF3EF001D81FD00500FA6E3D50FD6E5B
:102E70003E50FE6EFF6AFA50300E120037C0D9FF86
:102E800038C0DAFFDECF3DF0DDCF3EF03DC0D9FFE8
:102E90003EC0DAFF300EDF6E37C0D9FF38C0DAFF30
:102EA000DE2A000EDD2220EE02F03750D9263850FF
:102EB000DA22DE50DD10D8B425D0000174BB05D075
:102EC000000E0001666F780E04D0000E0001666FE0
:102ED000580E0001656F20EE02F03750D9263850A9
:102EE000DA22DECF3DF0DDCF3EF001D84BD1050038
:102EF000FA6E3D50FD6E3E50FE6EFF6AFA500001C4
:102F000065511200000174BB05D0000E0001686F0E
:102F1000780E04D0000E0001686F580E0001676F34
:102F200037C0D9FF38C0DAFFDECF3DF0DDCF3EF04D
:102F30003DC0D9FF3EC0DAFF000167C0DFFF1BD1F3
:102F400000016BC03DF000016CC03EF0D8903D36F2
:102F50003E36D8903D363E36A30E3D24F66EF10E39
:102F60003E20F76EF86A000EF8220900F5CF25F032
:102F70000900F5CF26F00900F5CF27F00A00F5CFBC
:102F800028F070C021F071C022F072C023F073C02D
:102F900024F00CEC49F021C02EF022C02FF023C009
:102FA00030F024C031F00A0E326E000E336E000E87
:102FB000346E000E356E40EC4AF02EC03FF02FC04C
:102FC00040F030C041F031C042F03F5091D070C06D
:102FD00021F071C022F072C023F073C024F0000110
:102FE0006BC03DF000016CC03EF0D8903D363E36DF
:102FF000D8903D363E36CB0E3D24F66EF10E3E2087
:10300000F76EF86A000EF8220900F5CF25F00900E6
:10301000F5CF26F00900F5CF27F00A00F5CF28F00C
:103020000CEC49F021C03FF022C040F023C041F039
:1030300024C042F03F500F0B0001606F000174BBD1
:1030400005D0FC0E00016A6F110E04D0FC0E0001C9
:103050006A6F000E0001696F00016051010D0001EF
:1030600069C03DF000016AC03EF0F3503D26F450C7
:103070003E223DC0F6FF3EC0F7FFF86A080000019F
:10308000F5CF6FF048D070C021F071C022F072C04F
:1030900023F073C024F000016BC03DF000016CC050
:1030A0003EF0D8903D363E36D8903D363E36730ED3
:1030B0003D24F66EF10E3E20F76EF86A000EF822FF
:1030C0000900F5CF25F00900F5CF26F00900F5CF6E
:1030D00027F00A00F5CF28F00CEC49F021C03FF0B2
:1030E00022C040F023C041F024C042F03F50070B03
:1030F000300F00016F6F0FD000017451C00B000A38
:10310000D8B41ED7400AD8B4BED7C00AD8B45FD747
:10311000400AD8B415D720EE02F03750D9263850DF
:10312000DA22DE50DD10D8B417D020EE02F037508E
:10313000D9263850DA22DECF3DF0DDCF3EF001D87F
:1031400021D00500FA6E3D50FD6E3E50FE6EFF6AC6
:10315000FA5000016F51120037C0D9FF38C0DAFFB2
:10316000DECF3DF0DDCF3EF03DC0D9FF3EC0DAFFFF
:1031700000016FC0DFFF37C0D9FF38C0DAFFDE2A99
:10318000000EDD2200016B07D8A06C0700016B293F
:10319000D8B46C29D8A4B0D7000174A747D00001D7
:1031A0006E51800A800F010ED8B46D5DD8A03ED05C
:1031B00020EE02F03750D9263850DA22DE50DD10EA
:1031C000D8B416D020EE02F03750D9263850DA2283
:1031D000DECF3DF0DDCF3EF001D81FD00500FA6E06
:1031E0003D50FD6E3E50FE6EFF6AFA50200E1200FA
:1031F00037C0D9FF38C0DAFFDECF3DF0DDCF3EF07B
:103200003DC0D9FF3EC0DAFF200EDF6E37C0D9FFC8
:1032100038C0DAFFDE2A000EDD2200016D07D8A0DB
:103220006E0700016E516D11D8A4C2D739C0F6FFE8
:103230003AC0F7FF394A3A2AF86A08000001F5CF88
:103240006FF000016F67A5EF0FF0000E386E000EF3
:10325000376E12000201020E166E0201000E156E8C
:10326000000E186E000E176E000E1A6E8C0E196E80
:1032700099EC4EF0040E166E800E156E000E186E50
:10328000000E176E040E1A6E5A0E196E99EC4EF05F
:10329000000E0001EE6F61EC4BF089949294000EE9
:1032A000146E020E136E04EC4FF09284F80E0001BF
:1032B000776FBF0E0001766F3AEC4CF0F70E00010D
:1032C000776F710E0001766F3AEC4CF0F60E00014C
:1032D000776FC60E0001766F3AEC4CF0F70E0001E6
:1032E000776F040E0001766FF60E0001796F2B0EDA
:1032F0000001786F3AEC4CF0BFEC3CF081B010D09C
:10330000000E0101E96FE9C116F0400E18EC4FF014
:10331000F80E0001776F5B0E0001766F3AEC4CF00F
:10332000A5EC35F00009D8A403D0010E20EC4EF036
:103330001FEC21F00009D8A403D0020E20EC4EF0BF
:10334000F60E0001AF6F500E0001AE6F8EEC33F041
:103350000009D8B409D0FA0E0001776FE50E00011C
:10336000766F3AEC4CF003D0030E20EC4EF08198CF
:10337000000E146E320E136E04EC4FF0CBEC49F0DD
:103380000201E36F0201E351500AD8A402D0010107
:10339000E3830201E351510AD8A402D00101E3936F
:1033A0000101E3510109FCEC4FF00101E3A303D05B
:1033B000010E03EC50F0010E126E010E3EEC4FF0C8
:1033C0000201020E0001776F02018C0E0001766F80
:1033D000FC0E0001796F990E0001786FF60E000166
:1033E0007B6F2B0E00017A6F05EC4BF00201020E91
:1033F000116E02018C0E106EFEEC3EF00101E3B185
:1034000005D0FE0E0201D26F8D0E04D0FE0E020119
:10341000D26FA10E0201D16F0201020E0001776F7F
:1034200002018C0E0001766FFB0E0001796F7E0E9B
:103430000001786F02010001D2C27BF0020100019D
:10344000D1C27AF005EC4BF00201020E116E0201BE
:103450008C0E106EFEEC3EF00201020E0001776F42
:1034600002018C0E0001766FFB0E0001796FA40E35
:103470000001786FE2C1E7F0030E0001E7170001D9
:10348000E751020D100EF324F66EF20EF420F76EE3
:10349000F86A000EF82209000001F5CF7AF00A0060
:1034A0000001F5CF7BF005EC4BF00201020E116E2E
:1034B00002018C0E106EFEEC3EF00201020E0001C5
:1034C000776F02018C0E0001766FFB0E0001796FA1
:1034D000B70E0001786FE2C1E7F00001D890E73342
:1034E0000001D890E733030E0001E7170001E75110
:1034F000020D180EF324F66EF20EF420F76EF86A41
:10350000000EF82209000001F5CF7AF00A00000150
:10351000F5CF7BF005EC4BF00201020E116E0201BB
:103520008C0E106EFEEC3EF00201020E0001776F71
:1035300002018C0E0001766FFB0E0001796F6B0E9D
:103540000001786F010E0101E52500017A6F00018D
:103550007B6B000E7B2305EC4BF00201020E116E1B
:1035600002018C0E106EFEEC3EF00101E46705D006
:10357000FE0E0201D46FF90E04D0FE0E0201D46FCC
:10358000FC0E0201D36F0201020E0001776F0201EF
:103590008C0E0001766FFB0E0001796F910E000119
:1035A000786F02010001D4C27BF002010001D3C296
:1035B0007AF005EC4BF00201020E116E02018C0E46
:1035C000106EFEEC3EF00101E951D8B409D0300E86
:1035D000C66EF60E116E860E106EFEEC3EF006D034
:1035E000F90E116E890E106EFEEC3EF00101010E17
:1035F0000001AF6F0101D40E0001AE6FACEC43F0DF
:103600000009D8B41CD00101010E106E0101D40EC6
:103610000F6EF60E126E5C0E116E3AEC4EF001015A
:10362000010E0001AF6F0101D40E0001AE6FACECD2
:1036300043F00009D8B403D0060E20EC4EF001018F
:10364000E651D8A481A01BD0F60E0001AF6F440E46
:103650000001AE6F7AEC45F00201E36F0201E35125
:10366000280AD8A404D0000E0101E66F08D0020198
:10367000E351290AD8A403D0070E20EC4EF0010133
:10368000E86705D0FE0E0201D66F230E04D0FE0EB1
:103690000201D66F460E0201D56F0201020E000133
:1036A000776F02018C0E0001766FFA0E0001796FC0
:1036B0007F0E0001786F02010001D6C27BF002018B
:1036C0000001D5C27AF005EC4BF00201020E116E3A
:1036D00002018C0E106EFEEC3EF0000E0201E36F54
:1036E0000201020E166E02018C0E156E0201E3C27B
:1036F0000FF0106A020E126E2D0E116E2BEC4FF0B1
:10370000800E0001E76F040EE86F0F500001E727FD
:1037100010500001E823E7C017F0E8C018F0000ED1
:103720001A6E0C0E196E4DEC49F00201020E0001EA
:10373000AF6F02018C0E0001AE6F0201E3515CEC31
:1037400040F00009D8A422D00201020E0001776FD8
:1037500002018C0E0001766FF60E0001796F360EB5
:103760000001786F02010001E3C27AF000017B6B77
:1037700005EC4BF00201020E0001AF6F02018C0E4E
:103780000001AE6F0201E3515CEC40F00201E3C2C4
:103790000FF0106A020E126E2D0E116E2BEC4FF010
:1037A0001F0E0F26000E1022800E0F24D96E040E5D
:1037B0001020DA6EDF50D8A407D0FD0E0201D86FBA
:1037C000B60E0201D76F28D00201E3C20FF0106AD3
:1037D000020E126E2D0E116E2BEC4FF0200E0F26E6
:1037E000000E1022800E0F24D96E040E1020DA6E07
:1037F000DF50D8A405D0FE0E0201DA6F230E04D0EC
:10380000FE0E0201DA6F460E0201D96F0201DAC222
:10381000D8F20201D9C2D7F20201E36705D0FE0E49
:103820000201DC6F940E04D0FE0E0201DC6F9B0ED1
:103830000201DB6F0201020E0001776F02018C0EA4
:103840000001766FFC0E0001796FD80E0001786FD1
:1038500002010001DCC27BF002010001DBC27AF050
:1038600002010001D8C27DF002010001D7C27CF044
:1038700005EC4BF00201020E116E02018C0E106E6F
:10388000FEEC3EF00201E3C20FF0106A020E126E6F
:103890002D0E116E2BEC4FF01F0E0F26000E102276
:1038A000800E0F24D96E040E1020DA6EDF50D8B4CB
:1038B0005CD10201E3C20FF0106A020E126E2D0EEF
:1038C000116E2BEC4FF0800E0001E76F040EE86FD5
:1038D0000F500001E72710500001E823E7C0DDF298
:1038E000E8C0DEF20201020E0001776F02018C0EC9
:1038F0000001766FFE0E0001796F2C0E0001786FCB
:1039000002010001DEC27BF002010001DDC27AF09B
:1039100005EC4BF00201020E116E02018C0E106ECE
:10392000FEEC3EF00201E3C20FF0106A020E126ECE
:103930002D0E116E2BEC4FF0210E0F26000E1022D3
:10394000800E0F24D96E040E1020DA6E0201DECF35
:10395000DDF20201DDCFDEF20201E3C20FF0106AF8
:10396000020E126E2D0E116E2BEC4FF0230E0F2651
:10397000000E1022800E0F24D96E040E1020DA6E75
:103980000201DECFCBF20201DDCFCCF20201E3C2B5
:103990000FF0106A020E126E2D0E116E2BEC4FF00E
:1039A000250E0F26000E1022800E0F24D96E040E55
:1039B0001020DA6E0201DECFCDF20201DDCFCEF2B1
:1039C0000201020E0001776F02018C0E0001766F7A
:1039D000FD0E0001796F030E0001786FDDC27AF0F1
:1039E000DEC27BF0CBC27CF0CCC27DF0CDC27EF0DB
:1039F000CEC27FF005EC4BF00201020E116E020107
:103A00008C0E106EFEEC3EF00201E3C20FF0106A65
:103A1000020E126E2D0E116E2BEC4FF0210E0F26A2
:103A2000000E1022800E0F24D96E040E1020DA6EC4
:103A3000DECFE7F0DDCFE8F00201E7C0DFF2020100
:103A4000E8C0E0F20201E16B0201E26BDFC215F0B7
:103A5000E0C216F0E1C217F0E2C218F00201E3C2C0
:103A60000FF0106A020E126E2D0E116E2BEC4FF03D
:103A7000230E0F26000E1022800E0F24D96E040E86
:103A80001020DA6EDECFE7F0DDCFE8F0E7C019F006
:103A9000E8C01AF01B6A1C6AE5EC4BF015C0DFF2B7
:103AA00016C0E0F217C0E1F218C0E2F2DFC215F072
:103AB000E0C216F0E1C217F0E2C218F00201E3C260
:103AC0000FF0106A020E126E2D0E116E2BEC4FF0DD
:103AD000250E0F26000E1022800E0F24D96E040E24
:103AE0001020DA6EDECFE7F0DDCFE8F0E7C019F0A6
:103AF000E8C01AF01B6A1C6AE5EC4BF015C0DFF257
:103B000016C0E0F217C0E1F218C0E2F20B0E00019D
:103B1000E76FD8900201E2330201E1330201E033A2
:103B20000201DF330001E72FF4D70201020E00018A
:103B3000776F02018C0E0001766FFC0E0001796F29
:103B4000F50E0001786FDFC27AF0E0C27BF0E1C2CF
:103B50007CF0E2C27DF005EC4BF00201020E116E2A
:103B600002018C0E106EFEEC3EF00201E32B010E02
:103B70000201E365B5D5400E0101A65DD8B018D0AD
:103B8000F70E116E3C0E106EFEEC3EF0F70E116E4D
:103B9000D90E106EFEEC3EF0F70E116EA50E106EF3
:103BA000FEEC3EF0F70E116E3D0E106EFEEC3EF098
:103BB000A0C4E7F024EE9FF0DF500001E715126E7D
:103BC000CDC6E8F026EECCF0DF500001E815136E0C
:103BD0000101E85167EC4DF0F90E116ED50E106E33
:103BE000FEEC3EF0000E146EC80E136E04EC4FF0A7
:103BF0000101E25111EC50F00101E351FCEC4FF0F6
:103C0000E4C112F00101E5513EEC4FF08DEC4BF0B8
:103C1000E1C112F00101E05150EC4FF00101E75118
:103C20000AEC50F0000E106E050E0F6EC7EC4FF050
:103C30000FC0CFF210C0D0F20001EE51D8A4FCD7D3
:103C400063EC4CF0CFC20FF0D0C210F0AFEC4EF0EE
:103C50000009D8B4F1D70201CF4BD02B4BEC00F0C8
:103C6000EBD70001AA677ED0000E0001EF6F0301C1
:103C7000030E166E0301000E156E000E186E000E78
:103C8000176E000E1A6EF80E196E99EC4EF0000EBB
:103C90000001B16F000E0001AF6F5FD00101010E96
:103CA00000019D6F0101B50E00019C6F0201020E23
:103CB00000019F6F0201AC0E00019E6FAFC0A0F02B
:103CC000A6EC34F00009D8B41200020E0001AF6F68
:103CD0000101C1B927D00001A7C0F6FF0001A8C0AB
:103CE000F7FF0001A9C0F8FF0800F5502A0AD8B470
:103CF00019D00101010E106E0101BD0E0F6E000101
:103D0000A9C013F00001A8C012F00001A7C011F073
:103D1000000E156E030E146E71EC47F010500F106C
:103D2000D8A41BD021EEB5F00001B1511F0D000E3B
:103D30000001AB6F030EAC6FF3500001AB27F450E2
:103D40000001AC23ABC0E1FFACC0E2FF1F0EDECF31
:103D5000E6FFE82EFCD70001B12B070E0001B1658C
:103D60009DD712000001AA51020AD8A4B3D0060EB2
:103D70000001EF659CD023EED9F011EEB5F01F0ED7
:103D8000DECFE6FFE82EFCD70101010E00019D6F9A
:103D90000101B50E00019C6F0201020E00019F6F30
:103DA0000201AC0E00019E6F020E0001A06FA6EC96
:103DB00034F00001B06F0101C1A904D00001B0517D
:103DC000D8A42AD00001A7C0F6FF0001A8C0F7FFC1
:103DD0000001A9C0F8FF0800F5502A0AD8B41CD089
:103DE0000101010E106E0101BD0E0F6E0001A9C090
:103DF00013F00001A8C012F00001A7C011F0000EDE
:103E0000156E030E146E71EC47F010500F10D8B4FD
:103E100003D00001B067B8D70001B051D8B4120088
:103E2000000E0001B16F35D0010E0001B1250F6EFB
:103E3000106A000E1022000E126E1F0E116E2BEC77
:103E40004FF0000E0001AB6F030EAC6F0F5000017E
:103E5000AB2710500001AC23ABC0D9FFACC0DAFFD8
:103E60000001B1511F0D000E0001AD6F030EAE6FCA
:103E7000F3500001AD27F4500001AE23ADC0E1FFC7
:103E8000AEC0E2FF1F0EDECFE6FFE82EFCD700013A
:103E9000B12B060E0001B165C7D721EEB5F013EEC8
:103EA000D9F01F0EDECFE6FFE82EFCD7120000018E
:103EB000EF2B0001EF511F0D0301000EF324D96E0B
:103EC0000301030EF420DA6EDF50D8A412000001C3
:103ED000EF0712000001AA51030AD8A4A1D00001E3
:103EE000EF679BD023EE00F011EEB5F01F0EDECF92
:103EF000E6FFE82EFCD70101010E00019D6F0101D4
:103F0000B50E00019C6F0201020E00019F6F0201BD
:103F1000AC0E00019E6F030E0001A06FA6EC34F002
:103F20000001B06F0101C1A904D00001B051D8A4B3
:103F30002AD00001A7C0F6FF0001A8C0F7FF0001CA
:103F4000A9C0F8FF0800F5502A0AD8B41CD0010116
:103F5000010E106E0101BD0E0F6E0001A9C013F01D
:103F60000001A8C012F00001A7C011F0000E156EEC
:103F7000030E146E71EC47F010500F10D8B403D03C
:103F80000001B067B8D70001B051D8B41200070ED5
:103F90000001B16F35D0FF0E0001B1250F6E106A20
:103FA000FF0E1022000E126E1F0E116E2BEC4FF042
:103FB000000E0001AB6F030EAC6F0F500001AB277A
:103FC00010500001AC23ABC0D9FFACC0DAFF000138
:103FD000B1511F0D000E0001AD6F030EAE6FF35017
:103FE0000001AD27F4500001AE23ADC0E1FFAEC02B
:103FF000E2FF1F0EDECFE6FFE82EFCD70001B1077F
:104000000001B167C8D721EEB5F013EE00F01F0E26
:10401000DECFE6FFE82EFCD712000001EF0712000A
:104020001F0E0001AA651200000E0001B16F03010E
:104030000051D8B4120023EE00F011EEB5F01F0EBF
:10404000DECFE6FFE82EFCD7020EF2D00101010E12
:1040500000019D6F0101B50E00019C6F0201020E6F
:1040600000019F6F0201AC0E00019E6FAFC0A0F077
:10407000A6EC34F00009D8B4DAD0020E0001AF6F1C
:10408000030123EE0DF0010111EEC2F0E652DE5203
:10409000DD50E518DFCFE8FFD8B4E718D8A409D081
:1040A0000001AA51030100631200000E0001EF6F2E
:1040B00012000001AA510101B563BCD00101C1B9D0
:1040C00027D00001A7C0F6FF0001A8C0F7FF00013C
:1040D000A9C0F8FF0800F5502A0AD8B419D0010188
:1040E000010E106E0101BD0E0F6E0001A9C013F08C
:1040F0000001A8C012F00001A7C011F0000E156E5B
:10410000030E146E71EC47F010500F10D8A492D02B
:10411000000E0001EF6F0301030E166E0301000E87
:10412000156E000E186E000E176E000E1A6EF80E49
:10413000196E99EC4EF021EEB5F00001B1511F0D52
:10414000000E0001AB6F030EAC6FF3500001AB2704
:10415000F4500001AC23ABC0E1FFACC0E2FF1F0E86
:10416000DECFE6FFE82EFCD75BD00101010E000197
:104170009D6F0101B50E00019C6F0201020E00014E
:104180009F6F0201AC0E00019E6F020E0001A06F36
:10419000A6EC34F00009D8B412000101C1B927D04F
:1041A0000001A7C0F6FF0001A8C0F7FF0001A9C0E9
:1041B000F8FF0800F5502A0AD8B419D00101010E01
:1041C000106E0101BD0E0F6E0001A9C013F00001B9
:1041D000A8C012F00001A7C011F0000E156E030E6A
:1041E000146E71EC47F010500F10D8A41BD021EEC4
:1041F000B5F00001B1511F0D000E0001AB6F030EB1
:10420000AC6FF3500001AB27F4500001AC23ABC0FE
:10421000E1FFACC0E2FF1F0EDECFE6FFE82EFCD7C9
:104220000001B12B070E0001B1659FD703D0000E2E
:104230000001AF6F070E0001B16508D71200080E2C
:104240000001766FDA0E0001756F080E0001786FBD
:10425000DA0E0001776F000E356E000E366E000E1E
:10426000376E000E386E080E3A6EDA0E396E24EC98
:104270003BF00009D8A402D0000E1200000121EE8C
:10428000FEF000017551D92600017651DA22D92AB3
:10429000DD50AA0A550ED8B4DF18D8B41FD0000ECE
:1042A0001200100E01D0200E01018E6F000121EED0
:1042B000C6F000017551D92600017651DA220101BC
:1042C000DECF8FF10101DECF90F10101DECF91F160
:1042D0000101DECF92F119D0000E1200000121EE93
:1042E000C2F000017551D92600017651DA22DF5063
:1042F000040AD8B4D6D7020AD8B4D3D70D0AD8B492
:10430000D2D7070AD8B4CFD7E7D78FC135F090C13D
:1043100036F091C137F092C138F0080E3A6EDA0EDD
:10432000396E24EC3BF00009D8A402D0000E120034
:1043300077C0D9FF78C0DAFFDF50E90AD8B40AD0D5
:1043400077C0D9FF78C0DAFFDF50EB0AD8B402D0CB
:10435000000E1200000120EE0BF000017751D9266B
:1043600000017851DA22D92ADD50020A000ED8B4B1
:10437000DF18D8B402D0000E1200000120EE15F0B4
:1043800000017751D92600017851DA22DF50F80A6E
:10439000D8B402D0000E1200000120EE0DF0000192
:1043A0007751D92600017851DA22DF500101A66F3A
:1043B000FF0E0001676FFF0E686F0101A65100013B
:1043C000696F6A6B0001675100016927000168513C
:1043D00000016A230001691D00016B6F00016A1D65
:1043E00000016C6F01016BC0A7F101016CC0A8F165
:1043F0000101000E0101A8BFFF0E0101A96F01011B
:10440000AA6F000120EE11F000017751D9260001BA
:104410007851DA220101DECFA3F10101DDCFA4F151
:10442000000120EE0EF000017751D92600017851ED
:10443000DA22DECF67F0DDCF68F0000167510101BD
:104440008F250101936F0001685101019021010145
:10445000946F000E010191210101956F000E010181
:1044600092210101966F000120EE10F000017751BA
:10447000D92600017851DA22DF500101A56F010130
:104480008E51100AD8A49BD0000120EE16F0000136
:104490007751D92600017851DA22DECF67F0DDCFDF
:1044A00068F0000167C071F0000168C072F000019F
:1044B000736B0001746B000E01019B6F000E010114
:1044C0009C6F000E01019D6F000E01019E6F0101A6
:1044D000A551156E166A176A186A71C019F072C074
:1044E0001AF073C01BF074C01CF0E5EC4BF015C063
:1044F00067F016C068F017C069F018C06AF00101D3
:1045000093510001672501019F6F01019451000142
:1045100068210101A06F010195510001692101018C
:10452000A16F0101965100016A210101A26FFF0EE6
:104530000001676F010E686F010121EEA3F0DECF6D
:1045400069F0DDCF6AF0050ED890000169376A374F
:10455000E82EFAD700016751000169270001685170
:1045600000016A23090E00016B6F0001D8906A33C5
:10457000693300016B2FF9D7000169C06DF00001AC
:104580006AC06EF000016F6B0001706B00016D512D
:1045900001019F250101976F00016E510101A021CA
:1045A0000101986F00016F510101A1210101996F73
:1045B000000170510101A22101019A6F91D0000107
:1045C00020EE24F000017751D92600017851DA223B
:1045D0000001DECF71F00001DECF72F00001DECF0E
:1045E00073F00001DECF74F00101A551156E166A5B
:1045F000176A186A71C019F072C01AF073C01BF004
:1046000074C01CF0E5EC4BF015C067F016C068F004
:1046100017C069F018C06AF00101935100016725C5
:104620000101976F01019451000168210101986F08
:1046300001019551000169210101996F0101965114
:1046400000016A2101019A6F000120EE2CF00001A7
:104650007751D92600017851DA220101DECF9BF192
:104660000101DECF9CF10101DECF9DF10101DECF22
:104670009EF1010121EE9BF0FE0EDE24156EFF0E71
:10468000DE20166EFF0EDE20176EFF0EDE20186E87
:104690000101A651196E1A6A1B6A1C6AE5EC4BF0FF
:1046A00015C067F016C068F017C069F018C06AF04E
:1046B000010197510001672501019F6F0101985188
:1046C000000168210101A06F0101995100016921D8
:1046D0000101A16F01019A5100016A210101A26F3C
:1046E0000201020E1E6E0201AC0E1D6E02EC48F0BD
:1046F000010E1200000120EE0DF000018151D926BB
:1047000000018251DA22DE50DD10D8A409D0000168
:104710008551030AD8A402D0000E1200010E120027
:10472000000120EE0DF000018151D92600018251D7
:10473000DA220001DECF96F00001DDCF97F0000114
:1047400084C074F0000183C073F0000120EE0DF00E
:1047500000018151D92600018251DA22DECF86F094
:10476000DDCF87F0040E0001886F0001D8908733F9
:1047700086330001882FF9D7000186C075F000014B
:1047800087C076F00001776B0001786B4DEC3AF052
:104790000009D8A402D0000E1200000120EE0DF096
:1047A00000018151D92600018251DA22DE06000E75
:1047B000DD5A000120EE0DF000018151D9260001E3
:1047C0008251DA22DECF86F0DDCF87F00F0E0001B6
:1047D00086150001986F0001996B000198510F0A2E
:1047E0009911D8A4C4D0000120EE0DF00001815130
:1047F000D92600018251DA22DECF86F0DDCF87F0A4
:10480000040E0001886F0001D890873386330001C1
:10481000882FF9D7000186510001896F0001875167
:1048200000018A6F00018B6B00018C6B000120EE90
:104830000FF000018351D92600018451DA2289C08A
:10484000DEFF8AC0DEFF8BC0DEFF8CC0DDFFD90635
:10485000D9060101A7C186F00101A8C187F00101B5
:10486000A9C188F00101AAC189F00001861F871F34
:10487000881F891F000120EE0FF000018351D92607
:1048800000018451DA22DECF8AF0DECF8BF0DECF5A
:104890008CF0DECF8DF00101A7C18EF00101A8C11F
:1048A0008FF00101A9C190F00101AAC191F00001AE
:1048B0008E1F8F1F901F911F00018A5100018E15BE
:1048C0000001926F00018B5100018F150001936F61
:1048D00000018C51000190150001946F00018D5171
:1048E000000191150001956F000189510001951992
:1048F0000EE1000188510001941909E1000187517E
:104900000001931904E10001865100019219D8A415
:104910002ED0000184C074F0000183C073F0000148
:1049200020EE0DF000018151D92600018251DA22DA
:10493000DECF86F0DDCF87F0040E0001886F000126
:10494000D890873386330001882FF9D7000186C0BD
:1049500075F0000187C076F00001776B0001786B7D
:104960004DEC3AF00009D8A402D0000E120000016C
:1049700084C022F0000183C021F094EC41F021C0FA
:1049800035F022C036F023C037F024C038F0080ECE
:104990003A6EDA0E396E24EC3BF00009D8A402D04E
:1049A000000E1200000198C086F0000199C087F047
:1049B000050ED890000186378737E82EFAD7DA0E31
:1049C0000001862500019A6F080E00018721000171
:1049D0009B6F9AC0D9FF9BC0DAFFDF50D8A402D0EA
:1049E000000E1200E50E9AC0D9FF9BC0DAFFDF620D
:1049F00001D082D0000120EE0BF000019A51D9269F
:104A000000019B51DA220F0EDF6210D000018505F4
:104A1000D8A472D09AC0D9FF9BC0DAFFDF50000142
:104A2000866F000186AD68D0010E1200000120EEF5
:104A30000BF000019A51D92600019B51DA22DF5078
:104A40000001866F0E0E00018617D8A434D0000135
:104A50008505D8A40ED0000120EE0DF00001815193
:104A6000D92600018251DA22DE2A000EDD22010E53
:104A70001200000120EE0DF000018151D926000145
:104A80008251DA22DE50DD10D8A402D0010E1200CD
:104A9000010E0001856F000120EE0DF00001815133
:104AA000D92600018251DA220001DECF96F0000102
:104AB000DDCF97F021D0000120EE0BF000019A51DC
:104AC000D92600019B51DA22DF500001866F0001D8
:104AD00086A712D000018505D8A40ED0000120EED3
:104AE0000DF000018151D92600018251DA22DE2A1F
:104AF000000EDD22010E1200000120EE0DF000017B
:104B00008151D92600018251DA22DE50DD10D8A46D
:104B100044D6000120EE0DF000018151D92600019C
:104B20008251DA22000196C0DEFF000197C0DDFF4E
:104B3000000E1200000120EE02F000018151D92682
:104B400000018251DA22DF500001836F000120EE64
:104B500001F000018151D92600018251DA22DF5093
:104B60000001835DD8A018D0000120EE02F0000102
:104B70008151D92600018251DA22000110EE01F0A4
:104B800000018151E12600018251E222E75000013B
:104B9000836F00018305DF6E8992000E26EC50F0D2
:104BA00000018B6F000E26EC50F000018C6F000EA0
:104BB00026EC50F000018E6F00018D6B000E26EC8C
:104BC00050F00001836F0001835100018D13000E2E
:104BD00026EC50F00001836F000183510001856FC6
:104BE000846B000E000184150001896F3F0E0001E7
:104BF000851500018A6F000E26EC50F00001836FCE
:104C000000018351000189138982000120EE01F027
:104C100000018151D92600018251DA22DF500001C2
:104C20008C5DD8A010D0000120EE01F00001815170
:104C3000D92600018251DA22DF500001836F000182
:104C4000830500018C6F040E000181250001676F50
:104C5000000E000182210001686FD6EC4FF08992AE
:104C6000000E26EC50F000018B6F000E26EC50F089
:104C700000018C6F000E26EC50F000018E6F0001D9
:104C80008D6B000E26EC50F00001836F0001835104
:104C900000018D13000E26EC50F00001836F00011F
:104CA00083510001856F846B000E000184150001A3
:104CB000896F3F0E0001851500018A6F000E26ECFA
:104CC00050F00001836F000183510001891300013E
:104CD00020EE01F000018151D92600018251DA2233
:104CE000DF5000018C5DD8A010D0000120EE01F053
:104CF00000018151D92600018251DA22DF500001E2
:104D0000836F0001830500018C6F00018E518D11AE
:104D1000D8B410D000018E51890A140ED8B48D1960
:104D2000D8B408D000018E51A10A440ED8B48D1910
:104D3000D8A406D0440E00018E6F890E00018D6F3D
:104D4000000120EE02F000018151D92600018251BC
:104D5000DA2200018C51DF6230D000018BA12DD00E
:104D6000080E116EDA0E106E000120EE03F0000145
:104D70008151D92600018251DA22DF50126E8CC097
:104D800013F000018EC083F083C084F00001856BB6
:104D900000018451146E8DC015F0EFEC2EF000016F
:104DA00020EE03F000018151D92600018251DA2260
:104DB0000A0EDF6202D096EC4FF08982000120EEED
:104DC00002F000018151D92600018251DA22DF5020
:104DD00000018C19D8A4120000018BA1120000015F
:104DE00020EE03F000018151D92600018251DA2220
:104DF000DF2A0A0EDF640BD0000120EE03F0000171
:104E00008151D92600018251DA22000EDF6E040E94
:104E1000000181250001736F000E00018221000155
:104E2000746F000120EE02F000018151D9260001CB
:104E30008251DA22DF500001836F00018351156E29
:104E4000166A176A186A0B0E196E000E1A6E000E9B
:104E50001B6E000E1C6EE5EC4BF015C084F016C006
:104E600085F017C086F018C087F0000120EE03F02F
:104E700000018151D92600018251DA22DF50000160
:104E8000886F00018851000184250001756F000EB4
:104E9000000185210001766F000E000186210001CE
:104EA000776F000E000187210001786F4DEC3AF01A
:104EB000CAD621C00FF0106A020E126E2D0E116EAE
:104EC0002BEC4FF0210E0F26000E1022800E0F2427
:104ED000D96E040E1020DA6EDECF28F0DDCF29F077
:104EE00021C00FF0106A020E126E2D0E116E2BEC07
:104EF0004FF0230E0F26000E1022800E0F24D96EC5
:104F0000040E1020DA6EDECF2AF0DDCF2BF028C0A1
:104F10000FF029C010F02AC011F02BC012F02BECBA
:104F20004FF00FC02CF010C02DF021C00FF0106A10
:104F3000020E126E2D0E116E2BEC4FF0250E0F2669
:104F4000000E1022800E0F24D96E040E1020DA6E8F
:104F5000DECF2EF0DDCF2FF02CC00FF02DC010F0E3
:104F60002EC011F02FC012F02BEC4FF00FC024F028
:104F700010C025F0266A276A20C016F01FC015F061
:104F8000000E186E000E176E000E1A6E020E196ECD
:104F900099EC4EF01FC0D9FF20C0DAFF400EDE6E44
:104FA000000EDD6E21C00FF0106A020E126E2D0E83
:104FB000116E2BEC4FF0210E0F26000E1022800EEA
:104FC0000F24D96E040E1020DA6E10EE02F01F507E
:104FD000E1262050E222DECFE6FFDDCFE5FF21C053
:104FE0000FF0106A020E126E2D0E116E2BEC4FF0A8
:104FF000230E0F26000E1022800E0F24D96E040EF1
:105000001020DA6E10EE06F01F50E1262050E2224A
:10501000DECFE6FFDDCFE5FF21C00FF0106A020E04
:10502000126E2D0E116E2BEC4FF0250E0F26000E7A
:105030001022800E0F24D96E040E1020DA6E10EEAE
:105040000CF01F50E1262050E222DECFE6FFDDCF3C
:10505000E5FF140E1F24156E000E2020166EFA0EAA
:10506000186E940E176E000E1A6E140E196EB9ECAF
:105070004BF02E0E1F24156E000E2020166EFE0E15
:10508000186E350E176E000E1A6E080E196EB9ECFA
:105090004BF0360E1F24156E000E2020166EF80EF3
:1050A000186E0D0E176E000E1A6E280E196EB9ECE2
:1050B0004BF03E0E1F24156E000E2020166E21C0F0
:1050C0000FF0106A020E126E2D0E116E2BEC4FF0C7
:1050D000800E226E040E236E0F50222610502322C3
:1050E00022C017F023C018F0000E1A6E0B0E196EB6
:1050F000B9EC4BF0360E1F240F6E000E2020106E00
:10510000280E116E000E126E000E136E000E146E3D
:10511000A5EC4AF020EE5EF01F50D9262050DA228E
:10512000100EDE6E800EDD6E20EE6AF01F50D92666
:105130002050DA22010EDE6E000EDD6E21C00FF06F
:10514000106A020E126E2D0E116E2BEC4FF0210E16
:105150000F26000E1022800E0F24D96E040E102090
:10516000DA6E10EE6CF01F50E1262050E222DECF06
:10517000E6FFDDCFE5FF21C00FF0106A020E126ED0
:105180002D0E116E2BEC4FF0230E0F26000E102269
:10519000800E0F24D96E040E1020DA6E10EE6EF021
:1051A0001F50E1262050E222DECFE6FFDDCFE5FFF3
:1051B00021C00FF0106A020E126E2D0E116E2BEC34
:1051C0004FF0250E0F26000E1022800E0F24D96EF0
:1051D000040E1020DA6E10EE70F01F50E126205001
:1051E000E222DECFE6FFDDCFE5FF20EE72F01F50BA
:1051F000D9262050DA2224C0DEFF25C0DEFF26C0DB
:10520000DEFF27C0DEFF120021C0D9FF22C0DAFF77
:10521000DF50D8A402D0000E120021C0D9FF22C056
:10522000DAFFDF50E50AD8B495D120EE0BF021501B
:10523000D9262250DA220F0EDF625ED021C0D9FFBC
:1052400022C0DAFFDF50236E3F0E2316FF0E232409
:105250000F6E106AFF0E1022000E126E0D0E116EF0
:105260002BEC4FF00FC029F010C02AF0000E2C6E6E
:10527000000E2B6E26D0EB0E2B24F66EF10E2C209A
:10528000F76EF86A000EF8220800F550010DF35091
:105290002124D96EF4502220DA6E29C023F02AC0CE
:1052A00024F02B5023262C5024220401000E23240A
:1052B000E16E0401040E2420E26EDFCFE7FF2B4AEB
:1052C0002C2A2C50800AF36E800EF35C0D0ED8B49D
:1052D0002B5CD8B03FD129C023F02AC024F02B503A
:1052E00023262C5024222450800A800F7F0ED8B40D
:1052F000235CD8B02FD1BFD720EE0BF02150D92698
:105300002250DA22DF50236E0E0E2316D8B411D0AD
:105310000401040E166E0401000E156E000E186EC8
:10532000000E176E000E1A6E800E196E99EC4EF07C
:1053300011D120C016F01FC015F022C018F021C0F6
:1053400017F0000E1A6E0B0E196EB9EC4BF020EE32
:105350000BF01F50D9262050DA22000EDF6E20EE0F
:105360000BF02150D9262250DA2210EE0CF01F50FB
:10537000E1262050E222DFCFE7FF20EE1CF0215093
:10538000D9262250DA2210EE13F01F50E1262050C9
:10539000E222DECFE6FFDECFE6FFDECFE6FFDDCFA7
:1053A000E5FFE552E55220EE1AF02150D9262250B1
:1053B000DA22DECF23F0DDCF24F02350256E2450F7
:1053C000266E276A286A20EE1BF01F50D92620502F
:1053D000DA2225C0DEFF26C0DEFF27C0DEFF28C0A0
:1053E000DDFFD906D90620EE14F02150D92622502F
:1053F000DA22DECF23F0DDCF24F02350256E2450B7
:10540000266E276A286A26C028F025C027F0266A5B
:10541000256A20EE1BF01F50D9262050DA22255095
:10542000DE122650DE122750DE122850DD12DD5229
:10543000DD5220EE1BF01F50D9262050DA2210EE4C
:1054400017F01F50E1262050E222DECFE6FFDECF2C
:10545000E6FFDECFE6FFDDCFE5FFE552E55220EEC9
:105460000FF01F50D9262050DA22DE6ADE6ADE6A8B
:10547000DD6A040100676CD01FC0D9FF20C0DAFFCD
:10548000DF502E0AD8B464D0000E2A6E000E296EAA
:10549000000E2C6E000E2B6E2C50800A800F0B0E0F
:1054A000D8B42B5CD8B030D02B501F24D96E2C50E0
:1054B0002020DA6EDF50200AD8B412D02B501F24DF
:1054C000D96E2C502020DA6E0401000E2924E16EE2
:1054D0000401040E2A20E26EDFCFE7FF294A2A2AC0
:1054E0002B50070A2C10D8A40CD00401000E29243C
:1054F000D96E0401040E2A20DA6E2E0EDF6E294AC0
:105500002A2A2B4A2C2AC8D7FF0E236EFF0E246EA0
:1055100029C025F02AC026F0235025262450262213
:105520000401000E2524D96E0401040E2620DA6E33
:105530002E0EDF6203D02906D8A02A060401000E31
:105540002924D96E0401040E2A20DA6E000EDF6EC3
:10555000010E1200020E12000101006F010100A5F0
:1055600012008188000E106E800EC5EC4EF0000E09
:105570000101056F000E0101046F080E0101045DB9
:10558000000E01010559D8B015D0000E26EC50F0E0
:105590000101860E01010425D96E0101010E0101F0
:1055A0000521DA6E000E26EC50F0DF6E0101044B8F
:1055B000052BE3D7898201018CA902D0010E01D00D
:1055C000000E0101036F010103C10FF0106A020E0A
:1055D000126E2D0E116E2BEC4FF0130E0F26000ED7
:1055E0001022800E0F24D96E040E1020DA6EDECF4A
:1055F000AAF0DECFABF0DECFACF0DECFADF0000135
:10560000AD51AA11AB11AC11D8A40FD0040E0101F9
:10561000876F0101010E136E0101860E126EAAEC56
:105620004DF0910EF4EC4FF020D18DC1AAF0F00EA8
:105630000001AA170001AA51100AD8A420D0000E18
:105640000101876F000E0101886F010E0101896F52
:10565000000E01018B6F000E01018A6F01018C5158
:10566000F00B01018C6F0101010E136E0101860E1A
:10567000126EAAEC4DF0900EF4EC4FF0F6D0010152
:105680008D51EC0AD8A455D00101010E206E010104
:10569000060E1F6E03C121F059EC27F0000E010128
:1056A000876F0101010E136E0101860E126EAAECC6
:1056B0004DF0080EF4EC4FF0000E106EA00EC5EC8D
:1056C0004EF00101010E0101026F0101060E010100
:1056D000016F000E0101056F000E0101046F800EC5
:1056E0000101045D000E01010559D8B00ED001C1C1
:1056F000D9FF02C1DAFFDF5026EC50F00101014B67
:10570000022B0101044B052BEAD7000E0101045DB9
:10571000020E01010559D8B007D0000E26EC50F05A
:105720000101044B052BF1D78982900EF4EC4FF068
:105730009CD001018D51910AD8A40FD0000E010117
:10574000876F0101010E136E0101860E126EAAEC25
:105750004DF0900EF4EC4FF088D001018D51C60A47
:10576000D8A421D0010188510001AA6FAB6B0101BF
:1057700003C10FF0106A020E126E2D0E116E2BEC8B
:105780004FF0270E0F26000E1022800E0F24D96E28
:10579000040E1020DA6EAAC0DEFFABC0DDFF900E53
:1057A000F4EC4FF062D001018D51200AD8A410D042
:1057B0000101010E0001986F0101860E0001976F33
:1057C00003C199F0000E00019A6F65EC39F04DD0DD
:1057D00001018D51C40AD8A410D00101010E0001AD
:1057E000986F0101860E0001976F03C199F0010EB9
:1057F00000019A6F65EC39F038D001018D51300A03
:10580000D8A410D00101010E0001986F0101860E8D
:105810000001976F03C199F0000E00019A6F74ECBC
:1058200032F023D001018D51C50AD8A410D0010156
:10583000010E0001986F0101860E0001976F03C1F0
:1058400099F0010E00019A6F74EC32F00ED0040E44
:105850000101876F0101010E136E0101860E126EA8
:10586000AAEC4DF0910EF4EC4FF08198120021EE6D
:10587000EAF010EE60F00C0EDECFE6FFE82EFCD76B
:1058800020EE13F02E50D9262F50DA22DECF30F042
:10589000DECF31F0DECF32F0DECF33F033503010D8
:1058A00031103210D8B4120020EE13F02E50D92649
:1058B0002F50DA22DECF30F0DECF31F0DECF32F003
:1058C000DECF33F00A0E05D0D89033323232313287
:1058D0003032E82EF9D730C06CF031C06DF032C0F4
:1058E0006EF033C06FF0000E0001746F000E000107
:1058F000756F000E0001766F000E0001776F030ECA
:105900000001745D000E00017559000E000176590A
:10591000000E00017759D8B003D1600E306E000E32
:10592000316ED89000017435D96E00017535DA6E8C
:10593000D890D936DA363050D9263150DA220001E3
:10594000DECF70F00001DECF71F00001DECF72F02B
:105950000001DECF73F0040E00017C6F000E000129
:105960007D6F000E00017E6F000E00017F6F110E33
:1059700000017C5D000E00017D59000E00017E5982
:10598000000E00017F59D8B0ADD06CC021F06DC0C1
:1059900022F06EC023F06FC024F07CC015F07DC0F3
:1059A00016F07EC017F07FC018F070C019F071C0FB
:1059B0001AF072C01BF073C01CF0E5EC4BF015C080
:1059C00025F016C026F017C027F018C028F00CEC00
:1059D00049F021C078F022C079F023C07AF024C0C9
:1059E0007BF0010E306E000E316E000E326E200E16
:1059F000336E20EE13F02E50D9262F50DA22DECF50
:105A000034F0DECF35F0DECF36F0DECF37F0305079
:105A1000345C315035583250365833503758D8B03E
:105A200006D0000E306E040E316E000E3FD0FF0E19
:105A3000306E3F0E316E000E326E000E336E3050FF
:105A40000001785D315000017959325000017A59D6
:105A5000335000017B59D8A045D0FF0E306E7F0E29
:105A6000316E000E326E000E336E30500001785DE4
:105A7000315000017959325000017A5933500001F8
:105A80007B59D8B00ED0050E00017C5D000E0001E0
:105A90007D59000E00017E59000E00017F59D8B0DB
:105AA00021D0000E306E000E316E010E326E000EEF
:105AB000336E30500001785D315000017959325019
:105AC00000017A59335000017B59D8A00BD0010E48
:105AD00000017C27000E00017D2300017E230001D0
