:040000008A15A02F8E
:101E80000317F900FE018D018F0120308400080046
:101E9000640000088C00840A00088E00840A8316FF
:101EA0008C137E1F8C170C1555308D00AA308D00B9
:101EB0008C14000000008C185B2F0C1183128D0A0B
:101EC0007E1FF903F90B482F08004E309900E32FCD
:101ED00083010530FB00FC01FD018C1E722F1A08E6
:101EE000F80708006400FD0B6D2FFC0B6C2FFB0B3B
:081EF0006B2F831298138A0185
:081F38000000000000000000A1
:101F40008301831670308F00243098001930990077
:101F50008312903098006827C13C031D792F3330DD
:101F600099000430402783168C170C1400000000E1
:101F700083120C088000840A0E088000840A8D0AEF
:101F8000F90BB32F7A30402783160C150C165530F9
:101F90008D00AA308D008C14000000000C110C1272
:101FA000831220308D0703188F0A7E18DD2FF90B5E
:101FB000C42F7E1480308D00C42F0830402748275E
:101FC00083014B309900F801682703178F00FE004A
:101FD000682703178D006827F900FA00FA0A1F30F6
:101FE00084006827840A8000FA0BF12FF808031D8B
:0C1FF000652F0317203084004827E02FE5
:02400E00303F41
:02401000FC3F73
:00000001FF
