:060000008A150A16A02F6C
:083F3800000000000000000081
:103F400083018316243098000C309900831290303E
:103F50009800E927C13C031DFA2F363099008301F0
:103F60004B309900F801E92703178F00FE00E9277D
:103F700003178D00E927F900FA00FA0A1F308400C0
:103F8000E927840A8000FA0BC02FF808031DE62FEA
:103F9000031720308400640000088C00840A0008A5
:103FA0008E00840A83168C137E1F8C170C155530D7
:103FB0008D00AA308D008C14000000000C118312BB
:103FC0008D0A7E1FF903F90BCB2FAF2F4E309900CE
:103FD000B22F83010330FB00FC01FD018C1EF32F87
:103FE0001A08F80708006400FD0BEE2FFC0BED2FFC
:083FF000FB0BEC2F98139C2F32
:02400E00C420CC
:02401000FF3E71
:00000001FF
