:040000008A15A02F8E
:081F38000000000000000000A1
:101F4000831678308F00EC27903098008316243069
:101F500098000A309900EC27C13C031DFE2F333056
:101F6000990083014B309900F801EC2703178F008B
:101F7000EC2703178D00EC27F900FA001F308400CE
:101F8000EC27840A8000FA0BC02FEC27031DDE2FFC
:101F90002030840003179430791CE12700088C005E
:101FA000840A00088E00840A0430791C8430E127FA
:101FB0008D0A791CF903F90BCE2FB12F4E30990001
:101FC000B42F83168C0055308D00AA308D008C14F0
:101FD0000C11EA2F831208000630FD00FC01FB0102
:101FE00083018C1EF62F1A08F8070800FB0BF02F50
:101FF000FC0BEF2FFD0BEE2F981F080098139C2F62
:02400E00623F0F
:02401000FC3F73
:00000001FF
