:060000008A150A16A02F6C
:083F3800000000000000000081
:103F40008301831624309800103099000F160F1447
:103F500003178715830190309800ED27C13C031D9E
:103F6000FE2F3630990083014B309900F801ED2780
:103F700003178F00FE00ED2703178D00ED27F900D2
:103F8000FA00FA0A1F308400ED27840A8000FA0B39
:103F9000C42FF808031DEA2F0317203084006400A3
:103FA00000088C00840A00088E00840A83168C1393
:103FB0007E1F8C170C1555308D00AA308D008C1487
:103FC000000000000C1183128D0A7E1FF903F90B0B
:103FD000CF2FB32F4E309900B62F83010530FB0051
:103FE000FC01FD018C1EF72F1A08F8070800640079
:103FF000FD0BF22FFC0BF12FFB0BF02F98139C2FD6
:02400E00E424A8
:02401000FF3E71
:00000001FF
