:060000008A150A16A02F6C
:083F3800000000000000000081
:103F400083018316243098000C309900831290303E
:103F50009800EA27C13C031D9C2F31309900830152
:103F60004B309900F801EA2703178F00FE00EA277B
:103F700003178D00EA27F900FA00FA0A1F308400BF
:103F8000EA27840A8000FA0BC02FF808031DE72FE8
:103F9000031720308400640000088C00840A0008A5
:103FA0008E00840A83168C137E1F8C170C155530D7
:103FB0008D00AA308D008C14000000008C18DE2FBC
:103FC0000C1183128D0AF903F90BCB2FAF2F4E3052
:103FD0009900B22F83010330FB00FC01FD018C1E10
:103FE000F42F1A08F80708006400FD0BEF2FFC0BF4
:083FF000EE2FFB0BED2F9C2FBF
:02400E00723FFF
:00000001FF
