:020000040000FA
:04000000A0EF0FF06E
:081F38000000000000000000A1
:101F4000700ED36E600EC16E240EAC6E190EAF6EA5
:101F5000900EAB6E44D8C10851E1450EAD6E4B0EEC
:101F6000AD6E006A3CD8F86E076E39D8F76EA96E70
:101F700036D8F66EA86E33D8016E012A00EE09F04D
:101F8000F56E2DD8EC6E012EFBD700661DD007AC88
:101F900001D01AD007AE04D00C00C40E18D812D04D
:101FA000940E15D80A00080E056E00EE0AF0080E11
:101FB000066EEE50F56E0F00062EFBD7840E07D886
:101FC000052EF5D7A694CBD74E0EAD6ECAD7A66E0A
:101FD000550EA76EAA0EA76EA68200001200050E6F
:101FE000026E036A046A9EAA03D0AE500026120055
:101FF000042EF9D7032EF6D7022EF3D7AB9E9CD72B
:020000040030CA
:0E000000FF38FEFEFFFFFBFFFFFFFFFFFFFFCD
:00000001FF
